:100000000C9468040C9485040C9485040C94850469
:100010000C9485040C9485040C9485040C9485043C
:100020000C9485040C9485040C945E0D0C94870E3E
:100030000C9485040C9485040C9485040C9485041C
:100040000C9485040C9485040C9485040C9485040C
:100050000C9485040C9485040C9485040C948504FC
:100060000C9485040C9485040C9485040C948504EC
:100070000C9485040C9485040C9485040C948504DC
:100080000C9485040C9485040C9485040C948504CC
:100090000C9485040C9485040C9485040C948504BC
:1000A0000C9485040C9485040C94850405091509A9
:1000B000F1081D09FB080D09E708210900091109CC
:1000C000EC081909F6080909E208DD08C908D3088F
:1000D000BF08D808C408CE08BA08B508B108B409E2
:1000E000C409A009CC09AA09BC099609D009AF091D
:1000F000C0099B09C809A509B80991098C097809A3
:1001000082096E09870973097D0969096409600913
:10011000560A530A500A4D0A4A0A470A440A410A33
:100120003E0A3B0A380A350A320A2F0A2C0A290AE3
:10013000260A230A200A1D0A1A0A170A140A110A93
:10014000590A01C10601C10601C10601C00600002D
:100150001C037A00690061006E005F006B0065009F
:10016000790062006F006100720064000C037A0085
:10017000690061006E0031000403090409025B009C
:10018000030100A03209040000010301010009215C
:100190001101000122400007058103080001090444
:1001A0000100010301020009211101000122840064
:1001B0000705820308000109040200020300000091
:1001C0000921110100012222000705830308000113
:1001D000070504030800010631FF0974A101097530
:1001E000150026FF0095087508810209761500267E
:1001F000FF00950875089102C005010902A101855B
:10020000010901A10005091901290515002501753C
:1002100001950581027503950181030501093009E6
:10022000311581257F7508950281060938158125CC
:100230007F35004500750895018106050C0A3802D6
:100240001581257F750895018106C0C005010980CB
:10025000A1018502150126B700190129B77510956E
:10026000018100C0050C0901A10185031501269C2F
:100270000219012A9C02751095018100C00501092F
:1002800006A10175019508050719E029E715002564
:10029000018102950175088103950575010508190D
:1002A00001290591029501750391039506750815BD
:1002B0000026FF000507190029FF8100C012010078
:1002C0000200000008CCCC1534000201020001003D
:1002D000000001010102030404050708090A0C0DCE
:1002E0000F1112141617191B1D1F2122242628294D
:1002F0002B2D2E3031333435363738393A3A3B3BB3
:100300003C3C3C3C3C3C3D3D3E3E3F404142434406
:100310004647494A4C4D4F5152545658595B5D5FC0
:100320006062646567696A6B6D6E6F707172737419
:100330007475757676767676767676767676767661
:100340007676767676767677777777777777777744
:100350007777777777777777787878787878787825
:100360007878787878787878787878787879797A09
:100370007A7B7B7C7D7E7F7F808283848586878974
:100380008A8B8C8E8F9091929495969798999A9B40
:100390009C9D9D9E9F9FA0A0A0A1A1A1A1A1A1A263
:1003A000A2A3A3A4A5A6A7A9AAACADAFB0B2B4B6A8
:1003B000B8BABCBEC0C2C4C6C8CACCCED0D2D4D6CD
:1003C000D8D9DBDCDEDFE0E1E2E3E3E4E4E5E5E528
:1003D000E5E4E4E3E2E0DFDDDBD8D6D3D0CDCAC686
:1003E000C2BFBBB7B3AFABA6A29E9A95918D8985CC
:1003F000817D7A7673706D6A676563615F5E5C5B51
:100400005B5A5A5A5A595958575655545351504E87
:100410004C4A484644423F3D3A383633302E2B2929
:100420002724221F1D1B1917151312100F0D0C0B5B
:100430000A090908080808080808080909090A0A31
:100440000A0B0B0C0D0D0E0E0F10101112131314BE
:10045000151516171818191A1A1B1B1C1D1D1E1E00
:100460001E1F1F1F20202020202020202020202091
:100470001F1F1F1F1F1E1E1E1E1D1D1D1C1C1C1BA3
:100480001B1A1A1A191919181818171717161616E9
:100490001615151515151414141414141414141415
:1004A0001413131313121212111110100F0F0E0E3A
:1004B0000D0D0C0B0B0A0A090808070706060504B0
:1004C00004030303020201010101000000000039DE
:1004D00039393939383838373736363534343332B4
:1004E0003231302F2E2D2C2B2B2A2928272625245C
:1004F0002323222120201F1E1E1D1D1C1C1C1B1B14
:100500001B1B1B1B1B1B1B1A1A1A1919191818174E
:10051000161615141413121111100F0E0D0D0C0BCD
:100520000A0908080706060504040303020201017C
:1005300001000000000000000000000000000000BA
:1005400000000000000000000000000000000000AB
:10055000000000000000000000000000000000009B
:100560000000000000000000000000000101020384
:1005700004050607080A0B0D0F11131517191B1D8B
:100580001F212426282A2C2E31333537383A3C3D7A
:100590003F40424344454646474748484848494902
:1005A0004A4B4C4E4F515356585B5D6063666A6DC3
:1005B0007074787B7F83868A8E9195989C9FA2A584
:1005C000A8ABAEB0B3B5B7B9BBBCBDBEBFC0C0C0B1
:1005D000C0C0C0C0C0C0BFBFBFBFBEBEBEBEBDBD2D
:1005E000BDBCBCBBBBBBBABAB9B9B8B8B8B7B7B673
:1005F000B6B6B5B5B4B4B4B4B3B3B3B3B3B2B2B2C0
:10060000B2B2B2B2B2B2B2B2B2B2B2B3B3B3B3B3C5
:10061000B3B4B4B4B4B4B5B5B5B5B6B6B6B6B7B789
:10062000B7B7B7B8B8B8B8B9B9B9B9B9B9B9BABA42
:10063000BABABABABABABABABABBBBBBBCBDBDBE0B
:10064000BFC0C1C2C4C5C6C7C9CACCCDCFD0D2D421
:10065000D5D7D8DADBDDDEE0E1E2E3E5E6E7E8E99D
:10066000EAEAEBECECECEDEDEDEDEDEDECECEBEACC
:10067000E9E8E7E5E4E2E1DFDDDBD9D7D4D2D0CEAB
:10068000CBC9C6C4C2BFBDBBB8B6B4B2B0AEACAACB
:10069000A9A7A6A5A3A2A1A1A0A09F9F9F9F9F9E3F
:1006A0009D9C9B9A99979593918F8D8A888582803E
:1006B0007D7A7773706D6A6764615E5B58555250DE
:1006C0004D4B48464442413F3E3C3B3B3A3939F36F
:1006D000F3F3F3F3F3F3F3F3F2F2F2F2F2F2F2F1F3
:1006E000F1F1F1F1F0F0F0F0F0EFEFEFEFEFEEEE0F
:1006F000EEEEEEEDEDEDEDEDEDEDECECECECECEC2D
:10070000ECECECECECECECEBEBEBEBEAEAE9E9E83B
:10071000E8E7E6E6E5E4E4E3E2E1E0E0DFDEDDDCB5
:10072000DCDBDAD9D9D8D7D7D6D6D5D5D4D4D3D35C
:10073000D3D2D2D2D2D2D2D2D1D1D0CFCECCCBC9B9
:10074000C7C5C3C0BEBBB9B6B3B0ADA9A6A3A09C74
:10075000999693908C898683807E7B79767472706B
:100760006E6D6B6A69686867676767676666656507
:10077000646362615F5E5D5B5A58565553514F4DDD
:100780004B4947454342403E3C3A38373533323097
:100790002F2E2D2C2B2A29282827272727272727C4
:1007A00026262625252423232221201F1E1D1C1B2F
:1007B0001A1918171614131211100F0E0D0B0A091F
:1007C00008080706050404030302020201010101EF
:1007D00001010101010202020203030304040405F2
:1007E0000506060707080809090A0A0B0B0C0C0D79
:1007F0000D0E0E0F0F0F10101011111111121212F9
:1008000012121212121213131415151617181A1B9E
:100810001C1E1F2122242628292B2D2F313335364B
:10082000383A3C3E3F414244454748494A4B4C4D8B
:100830004D4E4E4F4F4F4F4F505152535557595B9E
:100840005D606366696D7174787C8084898D919632
:100850009A9EA2A7ABAFB3B7BABEC2C5C8CBCED023
:10086000D2D4D6D8D9DADBDCDCDCDCDCDCDCDDDDE8
:10087000DDDEDEDFDFE0E0E1E2E2E3E4E4E5E6E75F
:10088000E8E9E9EAEBECEDEDEEEFF0F0F1F2F2F38E
:10089000F4F4F5F5F5F6F6F6F7F7F7F7F7F7F7F7F7
:1008A000F7F7F7F7F7F7F7F7F6F6F6F6F6F6F6F6E0
:1008B000F6F6F5F5F5F5F5F5F5F5F4F4F4F4F4F4EC
:1008C000F4F4F4F4F3F3F3F3F3F3F3F3F3F3F300E7
:1008D00011241FBECFEFDAE0DEBFCDBF11E0A0E0F4
:1008E000B1E0E6E7F5E202C005900D92A43FB10742
:1008F000D9F722E0A4EFB1E001C01D92AD34B207F8
:10090000E1F70E945C0A0C94B9120C940000AF92BB
:10091000BF92CF92DF92EF92FF920F931F93CF93EC
:10092000DF9380E090E00E9490125C0182E090E012
:100930000E9490128C0184E090E00E949012EC01E1
:1009400086E090E00E9490126C0188E090E00E94A6
:1009500090127C018AE0A816B10409F4B6C10F30E8
:100960001105C1F06D9709F46CC0E3E6CE16D10411
:1009700009F4CBC0F9EAEF16F10409F438C1DF91AC
:10098000CF911F910F91FF90EF90DF90CF90BF908C
:10099000AF9008958FE090E00E9488128093E0016C
:1009A00080E190E00E9488128093E10181E190E073
:1009B0000E9488128093E20182E190E00E948812F6
:1009C0008093E30183E190E00E9488128093E40128
:1009D00084E190E00E9488128093E50185E190E037
:1009E0000E9488128093E60186E190E00E948812BE
:1009F0008093E70187E190E00E9488128093E801EC
:100A000088E190E00E9488128093E90189E190E0FA
:100A10000E9488128093EA018AE190E00E94881285
:100A20008093EB018BE190E00E9488128093EC01AF
:100A30008CE190E00E9488128093ED016D9709F09F
:100A400094CF0AE911E0C0E0D0E0CE014D960E94BB
:100A50008812F8018083CE014E960E948812F80118
:100A60008183CE014F960E948812F8018283CE01C5
:100A700080960E948812F8018383CE0181960E949D
:100A80008812F8018483CE0182960E948812F801B0
:100A90008583CE0183960E948812F8018683CE0159
:100AA00084960E948812F8018783CE0185960E9461
:100AB0008812F8018087CE0186960E948812F8017C
:100AC0008187CE0187960E948812F8018287CE0125
:100AD00088960E948812F8018387CE0189960E9429
:100AE0008812F8018487CE018A960E948812F80144
:100AF00085872E96025F1F4FC634D10509F0A5CF1A
:100B0000E3E6CE16D10409F035CF04E511E0C0E0EC
:100B1000D0E0CE018D599F4F0E948812F80180834A
:100B2000CE018C599F4F0E948812F8018183CE011B
:100B30008B599F4F0E948812F8018283CE018A59F7
:100B40009F4F0E948812F8018383CE0189599F4FDD
:100B50000E948812F8018483CE0188599F4F0E9419
:100B60008812F8018583CE0187599F4F0E94881211
:100B7000F8018683CE0186599F4F0E948812F801A2
:100B80008783CE0185599F4F0E948812F801808784
:100B9000CE0184599F4F0E948812F8018187CE01AF
:100BA00083599F4F0E948812F8018287CE01825993
:100BB0009F4F0E948812F8018387CE0181599F4F71
:100BC0000E948812F8018487CE0180599F4F0E94AD
:100BD0008812F80185872E96025F1F4FC634D10513
:100BE00009F097CFF9EAEF16F10409F0C8CE0EE04C
:100BF00011E0C0E0D0E0CE0187559F4F0E948812DF
:100C0000F8018083CE0186559F4F0E948812F8011B
:100C10008183CE0185559F4F0E948812F8018283FF
:100C2000CE0184559F4F0E948812F8018383CE0124
:100C300083559F4F0E948812F8018483CE0182550C
:100C40009F4F0E948812F8018583CE0181559F4FE6
:100C50000E948812F8018683CE0180559F4F0E9422
:100C60008812F8018783CE018F549F4F0E9488120B
:100C7000F8018087CE018E549F4F0E948812F801A0
:100C80008187CE018D549F4F0E948812F801828780
:100C9000CE018C549F4F0E948812F8018387CE01A9
:100CA0008B549F4F0E948812F8018487CE018A548A
:100CB0009F4F0E948812F80185872E96025F1F4F72
:100CC000C634D10509F097CF5ACE8AE090E00E9451
:100CD00088128093EE018BE090E00E94881280934E
:100CE000EF018CE090E00E9488128093F0018DE08B
:100CF00090E00E9488128093F1018EE090E00E94C3
:100D000088128093F2012BCECF93DF9380911E0245
:100D100081111BC0C091F901D091FA01CF3F21EFA1
:100D2000D207B1F0CF3F82EFD80709F44AC08091D3
:100D300019028823B9F088E0E9EFF1E0DF011D92A4
:100D40008A95E9F781E080931E02DF91CF910895A3
:100D500080911902813009F43EC08111ECCF0E94CC
:100D6000940A1DC00E94940ACE3FA3E0DA0748F41B
:100D7000F999FECF6091FB017091FC01CE010E94B8
:100D80009612CE0102968E3FB3E09B0740F4F9998C
:100D9000FECF6091FD017091FE010E949612CE017E
:100DA00004968E3F23E0920718F00E94A60AC3CF54
:100DB000F999FECF6091FF01709100020E94961296
:100DC000F4CF809119028111B6CF0E94A60A82E069
:100DD00080931902B0CF10921902ADCFCF93DF9359
:100DE000EFE1F2E08CE0DF011D928A95E9F7ABE2DA
:100DF000B2E08BE0ED0119928A95E9F781E08083FA
:100E000092E0968393E0918719968C93DF91CF912E
:100E1000089588E0E1E0F2E0DF011D928A95E9F7AC
:100E2000E1E1F2E08DE0DF011D928A95E9F781E0D2
:100E3000808783878DE78187089588E0E9E0F2E085
:100E4000DF01982F1D929A95E9F7E9EFF1E0DF01B4
:100E50001D928A95E9F7089590E09093310280936E
:100E60003002089590E09093330280933202089507
:100E7000EBE2F2E09081892B80830895EBE2F2E0CF
:100E800010821682158210861782089586E0E2E1AC
:100E9000F2E0DF011D928A95E9F7109211020895A0
:100EA00090911202891711F1209113028217F1F02B
:100EB000309114028317D1F0409115028417B1F0DC
:100EC00050911602851791F060911702681771F022
:100ED000992371F02223A1F03323A9F04423B1F028
:100EE0005523B9F06623C1F080E0089581E00895AC
:100EF00020E030E0F901EF5EFD4F818381E008954D
:100F000021E030E0F7CF22E030E0F4CF23E030E022
:100F1000F1CF24E030E0EECF25E030E0EBCFE1E1AF
:100F2000F2E09081892B8083089580911102909145
:100F300001029817D1F18093010281E09091120291
:100F400020910302291719F09093030281E09091F8
:100F5000130220910402291719F09093040281E0F2
:100F60009091140220910502291719F0909305021F
:100F700081E09091150220910602291719F09093B3
:100F8000060281E09091160220910702291779F05C
:100F90009093070290911702809108029813909302
:100FA000080281E080931D02089580E0C7CF9091F0
:100FB0001702209108022913F2CF8111F2CF089570
:100FC00080911D02811102C081E0089510921D02DE
:100FD00022E348E061E072E081E00C94290D809109
:100FE0002B0290912002981729F18093200281E032
:100FF0002091300230913102409126025091270217
:1010000042175307C9F030932702209326022091FC
:101010003202309133028091290290912A02821784
:101020009307C9F030932A022093290283E080932A
:101030003502089580E0DCCF2091320230913302F6
:101040004091290250912A024217530759F78823E9
:1010500081F381E0ECCF82E0EACFCF93DF93809100
:101060003502837080933502811104C081E0DF91E5
:10107000CF9108950E94260D8823C1F38FB7F8946D
:10108000C091E400CE5C92E09093E9009091E8007A
:1010900095FD14C0D2E00CC08091E400C81731F374
:1010A0008FB7F894D093E9009091E80095FD06C0C1
:1010B0008FBF0E94260D8111EFCFD8CF90913502BE
:1010C000923099F1933011F19130D1F410923502B0
:1010D00090911F029093F100909120029093F10063
:1010E000909121029093F100909122029093F1004F
:1010F000909123029093F100909124029093F1003B
:101100009AE39093E8008FBF80E0B1CF1092350250
:10111000909128029093F100909129029093F10010
:1011200090912A029093F100EBCF109235029091AA
:1011300025029093F100909126029093F1009091F6
:1011400027029093F100DCCF80E885BF85BF08952A
:1011500090E08931910540F4FC01EA5AFF4F0C946C
:1011600082126111A2C06E980895662309F46DC0C1
:10117000559A0895662309F46AC0549A089566231F
:1011800009F46DC0859A0895662309F464C0819AB4
:101190000895662309F467C0879A0895662309F4C1
:1011A00058C0809A0895662309F45BC0869A089512
:1011B000662309F452C0849A0895662309F455C041
:1011C000269A0895662309F460C0259A0895662337
:1011D00009F453C0519A0895662309F45EC03F9AFA
:1011E0000895662309F445C0229A0895662309F4F8
:1011F00050C0579A0895662309F443C0279A08956A
:10120000662309F44EC0539A0895662381F1209A0B
:1012100008956623E1F1249A0895662381F1509A96
:1012200008956623E1F13E9A0895662321F1219AFB
:101230000895662381F1569A0895662321F1239A31
:101240000895662381F1529A089555980895549807
:1012500008958098089581980895849808958598B0
:101260000895869808958798089526980895209857
:1012700008952298089521980895519808955098B6
:1012800008952798089523980895259808952498F7
:10129000089557980895569808953F9808953E9850
:1012A000089553980895529808956E9A089590E07D
:1012B0008931910540F4FC01E159FF4F0C948212F1
:1012C0006111A2C076980895662309F46DC05D9AF5
:1012D0000895662309F46AC05C9A0895662309F4A8
:1012E0006DC08D9A0895662309F464C0899A0895A3
:1012F000662309F467C08F9A0895662309F458C0DD
:10130000889A0895662309F45BC08E9A089566232F
:1013100009F452C08C9A0895662309F455C02E9A98
:101320000895662309F460C02D9A0895662309F490
:1013300053C0599A0895662309F45EC0479A0895E8
:10134000662309F445C02A9A0895662309F450C01B
:101350005F9A0895662309F443C02F9A089566237F
:1013600009F44EC05B9A0895662381F1289A089586
:101370006623E1F12C9A0895662381F1589A089525
:101380006623E1F1469A0895662321F1299A08958A
:10139000662381F15E9A0895662321F12B9A0895C0
:1013A000662381F15A9A08955D9808955C9808958E
:1013B00088980895899808958C9808958D9808952F
:1013C0008E9808958F9808952E98089528980895D6
:1013D0002A98089529980895599808955898089535
:1013E0002F9808952B9808952D9808952C98089576
:1013F0005F9808955E9808954798089546980895CF
:101400005B9808955A980895769A089590E08931E6
:10141000910510F080E00895FC01E857FF4F0C940F
:10142000821289B18072089589B1807108958FB157
:10143000817008958FB1827008958FB18071089581
:101440008FB1807208958FB1807408958FB18078C4
:10145000089583B18074089583B18072089583B133
:101460008071089589B18078089589B18074089554
:1014700086B18078089586B18074089589B18870A6
:10148000089589B18470089589B18270089589B1F1
:101490008170089583B18078089583B1887008952C
:1014A00083B18470089583B18270089583B181708F
:1014B00008958CB1807408950C94A30C10924A0284
:1014C000E0E0F0E0E052FE4F60E080810E94A8087A
:1014D000E0914A02F0E0E052FE4F61E080810E941C
:1014E0005709E0914A02EF5FE0934A02EE3048F379
:1014F000089510924A02E0E0F0E0E251FE4F60E011
:1015000080810E94A808E0914A02F0E0E251FE4F7B
:1015100061E080810E945709E0914A02EF5FE09309
:101520004A02E53048F3089510924A02E0E0F0E004
:10153000E45FFE4F60E080810E945709E0914A021B
:10154000EF5FE0934A02E23090F3089510924A026E
:10155000E0E0F0E0E45FFE4F61E080810E94570927
:10156000E0914A02EF5FE0934A02E23090F308957F
:101570000F931F93CF93DF9310924A0280E0C1E054
:10158000D0E00BC061E080810E94570980914A023F
:101590008F5F80934A028230F0F4282F30E0AE0152
:1015A00002C0440F551F8A95E2F78091180290E01F
:1015B00084239523F901E45FFE4F4817590711F77B
:1015C00060E080810E94570980914A028F5F80937A
:1015D0004A02823010F380914C028F3F91F08111CA
:1015E00008C08FEF80934C02DF91CF911F910F9134
:1015F0000895815080934C02DF91CF911F910F91FC
:1016000008958091180282FF28C0C0E0D1E000E078
:1016100010E008C0998388830F5F1F4F2296063021
:101620001105E9F028813981F901E153F94F6491FD
:10163000F901E153FB4F4491F901E153FD4F24912E
:10164000C8010E948E11888199810196811522E03E
:10165000920700F319821882DFCF0E9486118091D1
:101660004C02815080934C02DF91CF911F910F91DA
:101670000C949A11CF93DF9380EF809336021092EF
:101680004902E0E0C9E0DFE0F0E0E251FE4F61E056
:1016900080810E94A808E0914902F0E0E251FE4FEB
:1016A00060E080810E94570910924B02E0E010C078
:1016B0008EE0A89FD0011124A25FBE4FAE0FB11DD6
:1016C0008C9187778C93EF5FE0934B02EE3010F5AF
:1016D000F0E0E052FE4F80810E94060AE0914B024A
:1016E000A09149028111E4CF8EE0A89FD00111247E
:1016F000A25FBE4FAE0FB11D8C9188688C93C093D2
:10170000F5018E3E01F7D0933602EF5FE0934B0276
:10171000EE30F0F210924A02E0E0F0E0E251FE4FCB
:1017200060E080810E94A808E0914A02F0E0E25166
:10173000FE4F61E080810E945709E0914A02EF5F0D
:10174000E0934A02E53048F3E0914902EF5FE0930D
:101750004902E53008F498CF0E9446070E943E07F0
:101760001092490240E010924B0290E01AC0803B78
:1017700009F4A9C008F06BC0803909F48BC0803A25
:1017800059F426563E4FE20FF31F80810E948F07C7
:101790004091490290914B029F5F90934B029E3083
:1017A00070F5E92FF0E08EE0489F90011124D901F7
:1017B000A25FBE4FAE0FBF1F5C91809136028523A2
:1017C0008D3009F473C098F68A3009F495C008F496
:1017D00051C08B3009F483C08C30F1F6A9014C5A0A
:1017E0005E4FE40FF51F80810E942C074091490253
:1017F00090914B029F5F90934B029E3090F24F5F0F
:1018000040934902453008F4AECF0E9495078823E3
:1018100019F083E08093F4010E94EF07882319F008
:1018200083E08093F4018091F501893009F475C05B
:10183000813009F47AC09091F401811172C099232A
:1018400019F091509093F401DF91CF910895803C6D
:1018500009F45FC0803D09F09FCFA90146565E4F55
:10186000E40FF51F80810E94320740914902909158
:101870004B0292CF893009F08FCFA9014C5A5E4FAD
:10188000E40FF51F80810E9450074091490290911A
:101890004B0282CF26563E4FE20FF31F80810E94FB
:1018A00050074091490290914B0276CFC9018C5A62
:1018B0009E4FE80FF91F80810E9432074091490234
:1018C00090914B0269CF26563E4FE20FF31F808165
:1018D0000E9438074091490290914B025DCFA901C7
:1018E0004C5A5E4FE40FF51F80810E9438074091EB
:1018F000490290914B0250CFA9014C5A5E4FE40F20
:10190000F51F80810E948F074091490290914B0200
:1019100043CFA90146565E4F64CF9091F4019130B8
:1019200059F081508093F5018ACF0E94E0070E9410
:101930002D088091F5017FCF0E94E0070E942D08BD
:101940008091F50175CF80E880936100109261006D
:101950000E94A4080E940A0D0E94260D81110AC04F
:101960002FEF85EA9EE0215080409040E1F700C0D3
:101970000000F2CF0E945E0A0E94790ACFEF109217
:101980004A02E0E0F0E0E45FFE4F61E080810E9407
:10199000A808E0914A02F0E0E45FFE4F60E0808139
:1019A0000E945709E0914A02EF5FE0934A02E23059
:1019B00048F30E948411C0934C020E9486110E9439
:1019C0009A1181E080931E02809319020E9487047D
:1019D0002FEF89E698E1215080409040E1F700C068
:1019E00000000E9446070E943E0722E348E061E0B3
:1019F00072E081E00E94290D0E9484068091190204
:101A0000823009F4BCCF8130B9F70E943A0B0E94B2
:101A1000B80AF2CF81E08093D70080EA8093D800A3
:101A200082E189BD09B400FEFDCF80E98093D80032
:101A30001092E0001092F8018CE08093E20078941C
:101A40000E9409070E94EE060C941D078091F80180
:101A500008959091F8019923E9F09FB7F894309197
:101A6000E400230F8093E9003091E80035FF0DC0BA
:101A700013C09091E400291769F09FB7F894809300
:101A8000E9003091E80035FD07C09FBF9091F80153
:101A90009111EFCF81E00895442351F0FB019B01A8
:101AA000240F311D81918093F1002E173F07D1F74C
:101AB0008AE38093E8009FBF80E008951F920F9211
:101AC0000FB60F9211242F933F934F938F939F93B1
:101AD0008091E1001092E10083FF0FC01092E900B5
:101AE00091E09093EB001092EC0092E09093ED0067
:101AF00098E09093F0001092F80182FF04C080916A
:101B0000F80181110AC09F918F914F913F912F91C0
:101B10000F900FBE0F901F9018959091F7019F5F47
:101B200089E2989F812D1124869586958695392F77
:101B300022E3829F30191124832F311116C0109295
:101B4000F7019091E80095FF12C090911E02992331
:101B500071F02091190221114AC08091F801811180
:101B60004EC021E020931E0202C09093F701909195
:101B70001A02992341F28091F6018F5F8093F6015A
:101B8000837009F0C0CF81E08093E9008091E80084
:101B900085FFB9CF80911B028F5F80931B02891351
:101BA000B2CF10921B02809101028093F1008091CC
:101BB00002028093F100809103028093F1008091F2
:101BC00004028093F100809105028093F1008091DE
:101BD00006028093F100809107028093F1008091CA
:101BE00008028093F1008AE38093E8008CCF909103
:101BF000F801911154C081E080931E02B8CF8FB7D5
:101C0000F8943091E40094E09093E9009091E8001A
:101C100095FD20C08FBF8091F801882309F4A1CFE2
:101C20008091E400381709F49CCF44E00BC08FBFCB
:101C30008091F801882309F494CF8091E40038174B
:101C400009F48FCF8FB7F8944093E9009091E800A2
:101C500095FFEDCF9091F1009093F9019091F100F3
:101C60009093FA019091F1009093FB019091F10013
:101C70009093FC019091F1009093FD019091F100FF
:101C80009093FE019091F1009093FF019091F100EB
:101C9000909300029AE39093E8008FBF63CF9FB7C1
:101CA000F8943091E40024E02093E9002091E800CA
:101CB00025FD20C09FBF9091F801992309F49BCF87
:101CC0009091E400931709F496CF44E00BC09FBFB6
:101CD0009091F801992309F48ECF9091E40039177F
:101CE00009F489CF9FB7F8944093E9002091E80068
:101CF00025FFEDCF2091F1002093F9012091F10013
:101D00002093FA012AE32093E8009FBF75CF1F922A
:101D10000F920FB60F9211242F933F934F935F931F
:101D20006F937F938F939F93AF93BF93EF93FF93A3
:101D30001092E9008091E80083FF38C07091F100B3
:101D40004091F1008091F1002091F10090E0922B00
:101D50002091F1005091F10030E0352B6091F100BD
:101D6000E091F10052EF5093E800463099F1453090
:101D700009F442C1493009F47EC0483009F40BC16E
:101D80004111B9C18091E80080FFFCCF723809F49D
:101D900088C180E08093F1001092F1008EEF809373
:101DA000E80007C02115310509F00EC181E28093DA
:101DB000EB00FF91EF91BF91AF919F918F917F9138
:101DC0006F915F914F913F912F910F900FBE0F90A8
:101DD0001F901895811541E0940709F459C18115A8
:101DE000F2E09F0709F467C1811542E2940709F404
:101DF00029C18115F1E29F0709F466C1811543E00D
:101E0000940709F065C22930344081F6A4E0B0E0BF
:101E100024E048E751E0862F90E09E2B8F3F91050C
:101E200009F020F48A179B0708F4262F6EEF8091A3
:101E3000E8008570E1F38091E80082FDBACF322F8F
:101E4000293008F420C138E0FA01832F949190934F
:101E5000F100815031968111F9CF8FEF830F90E01F
:101E60000196480F591F231B6093E8002111DFCF13
:101E70003830E9F29ECF711190C08093F8018EEF57
:101E80008093E80081E08093E900E2E4F1E0E491EE
:101E9000E093EB00EE2309F464C1E3E4F1E0E491A4
:101EA000E093EC00E4E4F1E0E491E093ED0025E45C
:101EB00031E082E08093E900C9010196F901449183
:101EC0004093EB00442351F0FC0184918093EC009B
:101ED000C9010396319624912093ED0023E02093CD
:101EE000E9009C012F5F3F4FFC0144914093EB00C0
:101EF000442359F0F90124912093EC009C012D5FBB
:101F00003F4F319684918093ED0084E08093E90007
:101F1000C9010196F90144914093EB00442351F02B
:101F2000FC0184918093EC00C901039631962491C1
:101F30002093ED0025E02093E9009C012F5F3F4FA7
:101F4000FC0144914093EB00442359F0F9012491A2
:101F50002093EC009C012D5F3F4F3196849180933C
:101F6000ED0086E08093E900A9014F5F5F4FF90122
:101F700084918093EB00882341F0FA0144914093CF
:101F8000EC00319624912093ED008EE78093EA00D7
:101F90001092EA000ECF7038D1F121153105A1F46D
:101FA000713A09F4E1C0713209F000CF4930D9F13A
:101FB0004A3009F47FC14B3009F0F8CE80931C02FF
:101FC0008EEF8093E800F5CE2230310509F444C04D
:101FD0002130310509F0EACE713A09F434C1713289
:101FE00009F0E4CE4B3009F46DC14A3009F0DECE81
:101FF0008EEF8093E800DDCE2EEF2093E800209155
:10200000E80020FFFCCF80688093E300D2CE80916F
:10201000E80080FFFCCF8091F8018093F1008EEF03
:102020008093E800C6CE8091E80082FFFCCF8091CB
:10203000F100809318028BEF8093E8008EEF80937D
:10204000E800B7CE2115310509F047C0A0E4B0E0A3
:1020500020E44DE752E0DFCE713A09F4D2C071328C
:1020600009F0A4CE4A3021F2493009F09FCE809188
:10207000E80082FFFCCF8BEF8093E8008091E800BE
:1020800080FFFCCFB5CF2111DFCE6093E80091CE69
:10209000232B09F08BCEA2E1B0E022E14DEB52E020
:1020A000BACE2093E9008091EB0085FB882780F968
:1020B0001092E9006FCE232B09F078CEABE5B0E0AB
:1020C0002BE54CE751E0A7CE21153105E1F5A9E05C
:1020D000B0E029E04EE851E09ECE2230310509F40F
:1020E0008AC02130310509F061CEA4E8B0E024E8CF
:1020F00049EF51E090CE542F5D7F513009F04DCF24
:10210000723009F04ACF009709F04CCE522F5F771A
:102110006FEF650F663008F045CE8EEF8093E800D4
:102120005093E900433009F441CE89E18093EB00FC
:1021300081E090E001C0880F5A95EAF78093EA00A9
:102140001092EA0036CE2230310509F4ADC02130BC
:10215000310509F02BCEA9E0B0E029E047EA51E0D3
:102160005ACE23E431E0A5CE413089F04230B9F1B6
:10217000433009F01BCE8091E80080FFFCCF8091B6
:102180001C028093F1008EEF8093E80012CE8091C4
:10219000E80080FFFCCF809101028093F1008091E4
:1021A00002028093F100809103028093F1008091FC
:1021B00004028093F100809105028093F1008091E8
:1021C00006028093F100809107028093F1008091D4
:1021D00008028093F1008EEF8093E800EACD8091B1
:1021E000E80080FFFCCF80911A028093F1008EEF0F
:1021F0008093E800DECDA2E2B0E022E247ED51E0BC
:102200000ACE413009F0D2CD28E03EEF8091E800BF
:10221000982F9570D9F382FDCCCD922F293070F094
:1022200098E0892F1092F1008150E1F7291B30933B
:10223000E8002111EBCF983049F3BBCD2111F1CF4C
:102240003093E800B6CD413079F0433009F0AECD9F
:102250008091E80080FFFCCF809134028093F100F0
:102260008EEF8093E800A5CD8091E80080FFFCCF41
:1022700080911F028093F100809120028093F100F1
:10228000809121028093F100809122028093F100DD
:10229000809123028093F100809124028093F100C9
:1022A0008EEF8093E80085CDA9E0B0E029E040EC16
:1022B00051E0B1CD90931A0210921B028EEF8093E1
:1022C000E80077CD809334028EEF8093E80071CDE3
:1022D0008130F3E09F0751F42930344009F066CD96
:1022E000ACE0B0E02CE04CE651E095CD823093407C
:1022F00009F05CCD2930344009F058CDACE1B0E0B4
:102300002CE140E551E087CD869A089582E1E7E32C
:10231000F2E0DF011D928A95E9F70895FC01EE0FC6
:10232000FF1F8E0F9F1FFC01E95CFD4F40836183FF
:1023300022830895F894E7E3F2E029E432E062C0F2
:1023400000008E9800000000000000000000000067
:102350000000000080818E9A86FD78C000008E9873
:10236000000000000000000000000000000000006D
:1023700080818E9A85FD79C000008E980000000053
:1023800000000000000000000000000080818E9A24
:1023900084FD7AC000008E9800000000000000005C
:1023A000000000000000000080818E9A83FD7BC049
:1023B00000008E98000000000000000000000000F7
:1023C0000000000080818E9A82FD7CC000008E9803
:1023D00000000000000000000000000000000000FD
:1023E00081918E9A81FD7DC000008E9800000000D2
:1023F0000000000000000000000000002E173F0752
:1024000009F47EC08E9A00008E9800000000000043
:1024100000000000000000000000808190E0880FB4
:10242000892F881F990B8E9A892B09F489CF000078
:10243000000000000000000000000000000000009C
:1024400000008E9880818E9A86FF88CF0000000061
:10245000000000000000000000000000000000007C
:102460008E9880818E9A85FF87CF00000000000043
:1024700000000000000000000000000000008E9836
:1024800080818E9A84FF86CF00000000000000004B
:102490000000000000000000000000008E98808115
:1024A0008E9A83FF85CF000000000000000000002E
:1024B000000000000000000000008E9880818E9ACD
:1024C00082FF84CF00000000000000000000000038
:1024D00000000000000000008E9881918E9A81FF1C
:1024E00083CF00000000000000000000000000009A
:1024F0000000000000008E982E173F0709F082CFE1
:1025000078940895EE0FFF1F0590F491E02D099443
:10251000F999FECF92BD81BDF89A992780B50895AB
:10252000A8E1B0E042E050E00C949D120E94AB1292
:10253000272F0C94AC12DC01CB01FC01F999FECFE2
:1025400006C0F2BDE1BDF89A319600B40D9241503B
:102550005040B8F70895262FF999FECF1FBA92BDC3
:1025600081BD20BD0FB6F894FA9AF99A0FBE019674
:062570000895F894FFCF6E
:1025760000002200440066008800AA001202111121
:102586001111111111111111111111111111111135
:102596001111111111111111111111131313101021
:1025A600101010101010001122001111111110102E
:1025B60010151500101122662200001100101100DE
:1025C60066221111353A3B3C3D3E3F404142434471
:1025D600454C2B595A5B5C5D5E5F606162565731B4
:1025E600390104020000000000000000002802007B
:1025F60053474946000000EAE90000520100040082
:10260600002C000050000010514F291E1F202122CF
:1026160023242526272D2E2A2B141A0815171C18B5
:102626000C12132F303139041607090A0B0D0E0F41
:102636003334002802001D1B061905111036370019
:10264600385201000400002C003850000010514F91
:102656001514180A090F1601040E0D0C0B030506B6
:04266600070817004A
:00000001FF
