:100000000C940E010C942B010C942B010C942B01DD
:100010000C942B010C942B010C942B010C942B01B0
:100020000C942B010C942B010C941F050C947B0554
:100030000C942B010C942B010C942B010C942B0190
:100040000C942B010C942B010C942B010C942B0180
:100050000C942B010C942B010C942B010C942B0170
:100060000C942B010C942B010C942B010C942B0160
:100070000C942B010C942B010C942B010C942B0150
:100080000C942B010C942B010C942B010C942B0140
:100090000C942B010C942B010C942B010C942B0130
:1000A0000C942B010C942B010C942B0137013D0176
:1000B000430149014F0155015B01610167016D0178
:1000C000730179017F0185018B01910197019D01E8
:1000D000A301A901AF01B501BB01C101C701D7014E
:1000E000DD01E301E901EF01F501FB010102070276
:1000F0000D02130219021F0225022B0231023702E0
:100100003D02430249024F0255025B02610267024F
:10011000770279027B027D027F02810284028702DC
:100120008A028D028F029102930295029702990230
:100130009B029E02A002A202A402A602A802AB0297
:10014000AE020001000004021200020000A301221E
:1001500000220000C5013F00210000B50109000395
:1001600000009F01040103090491010C020309042A
:1001700073011C1C037A00690061006E005F006B54
:10018000006500790062006F006100720064000089
:10019000000C037A00690061006E00310000000469
:1001A00003090409022200010100C0320904000011
:1001B0000103010100092111010001223F0007058F
:1001C000830308000105010906A1017501950805D1
:1001D0000719E029E71500250181029501750881BD
:1001E0000395057501050819012905910295017509
:1001F0000391039506750815002568050719002960
:10020000688100C01201000200000020CCCC133431
:10021000000101020001000001C1060011241FBEFF
:10022000CFEFDAE0DEBFCDBF11E0A0E0B1E0E4E562
:10023000FEE002C005900D92A83EB107D9F722E07A
:10024000A8EEB1E001C01D92A731B207E1F70E940C
:10025000B3020C9428070C94000090E089319105BA
:1002600008F09AC0FC01EA5AFF4F0C94220766235B
:1002700011F0209A089520980895662311F0219A8C
:10028000089521980895662311F0229A08952298DE
:100290000895662311F0239A0895239808956623FC
:1002A00011F0279A089527980895662311F0509A1F
:1002B000089550980895662311F0519A0895519821
:1002C0000895662311F0529A08955298089566236E
:1002D00011F0539A089553980895662311F03E9AA9
:1002E00008953E980895662311F03F9A08953F9827
:1002F0000895662311F0569A089556980895662336
:1003000011F0579A089557980895662311F0249A8A
:10031000089524980895662311F0259A0895259844
:100320000895662311F0269A089526980895662365
:1003300011F0879A089587980895662311F0869A98
:10034000089586980895662311F0859A08958598F2
:100350000895662311F0849A089584980895662379
:1003600011F0819A089581980895662311F0809A7A
:10037000089580980895662311F0549A089554982A
:100380000895662311F0559A0895559808956623A7
:1003900011F06E9A08956E98089590E08931910554
:1003A00008F09AC0FC01E159FF4F0C942207662324
:1003B00011F0289A089528980895662311F0299A33
:1003C000089529980895662311F02A9A08952A9885
:1003D0000895662311F02B9A08952B9808956623AB
:1003E00011F02F9A08952F980895662311F0589AC6
:1003F000089558980895662311F0599A08955998C8
:100400000895662311F05A9A08955A98089566231C
:1004100011F05B9A08955B980895662311F0469A4F
:10042000089546980895662311F0479A08954798CD
:100430000895662311F05E9A08955E9808956623E4
:1004400011F05F9A08955F980895662311F02C9A31
:1004500008952C980895662311F02D9A08952D98EB
:100460000895662311F02E9A08952E980895662314
:1004700011F08F9A08958F980895662311F08E9A3F
:1004800008958E980895662311F08D9A08958D9899
:100490000895662311F08C9A08958C980895662328
:1004A00011F0899A089589980895662311F0889A21
:1004B000089588980895662311F05C9A08955C98D1
:1004C0000895662311F05D9A08955D980895662356
:1004D00011F0769A08957698089590E08931910503
:1004E00008F03FC0FC01E857FF4F0C94220783B18E
:1004F00009C083B10AC083B10BC083B10CC083B102
:100500001BC089B18170089589B18270089589B145
:100510008470089589B18870089586B120C086B12D
:100520000BC089B11CC089B107C083B112C083B1AF
:1005300013C083B114C08FB1807808958FB10FC0FC
:100540008FB10AC08FB105C08FB1DFCF8FB1DACFC5
:1005500089B18071089589B1807208958CB18074D9
:10056000089580E008950C942B0410920202E0910B
:100570000202EE30B0F4F0E0EC52FE4F60E0808119
:100580000E942D01E0910202F0E0EC52FE4F61E08A
:1005900080810E94CD01809102028F5F80930202D0
:1005A000E6CF089510920202E0910202E530B0F425
:1005B000F0E0EE51FE4F60E080810E942D01E0915D
:1005C0000202F0E0EE51FE4F61E080810E94CD0119
:1005D000809102028F5F80930202E6CF089510920D
:1005E0000202E0910202E230B0F4F0E0EE52FE4F7F
:1005F00061E080810E942D01E0910202F0E0EE5264
:10060000FE4F60E080810E94CD01809102028F5FE9
:1006100080930202E6CF0E94DB068FEF80931602E2
:100620000E94DD060C94F1060F931F93CF93109256
:10063000020201E010E0809102028230F0F4E82F23
:10064000F0E0980102C0220F331F8A95E2F78091F3
:10065000FC0190E082239323EE52FE4F28173907C6
:1006600011F460E001C061E080810E94CD018091C1
:1006700002028F5F80930202DECF809116028F3FCD
:10068000E1F48091FC0182FF11C0C0E000E010E0C5
:100690004C2F40952C2F6C2FC8010E94E5060F5F50
:1006A0001F4FCE5C0630110599F702C00E94DD068F
:1006B0000E94F1068091160202C0882311F0815039
:1006C00001C08FEF80931602CF911F910F91089573
:1006D000CEE0D2E010E204E01092EA0110920102B2
:1006E000E0910102E53008F04AC0F0E0EE51FE4F23
:1006F00061E080810E942D01E0910102F0E0EE5165
:10070000FE4F60E080810E94CD0110920302E091D3
:100710000302EE3060F5F0E0EC52FE4F80810E9463
:100720006D02E091010290910302CE9FD00111244D
:10073000A050BF4FA90FB11D882321F08C918E7F4F
:100740008C9305C08C9181608C931093E901CE9FAE
:10075000F0011124E050FF4FE90FF11D8081813439
:1007600011F4D093EA019F5F90930302D0CF0E94CF
:10077000D202809101028F5F80930102B1CF0E946B
:100780005C0410920102809101028530F0F5109214
:100790000302E091030290910102EE3088F5F0E04F
:1007A000C99FC0011124DC01A050BF4FAE0FBF1F75
:1007B0003C912091EA01232B213211F0233249F49C
:1007C0009C0124573E4FE20FF31F80810E94830457
:1007D00011C0213131F49C0124573E4FE20FF31F29
:1007E00006C0233139F48A5B9E4FE80FF91F8081E0
:1007F0000E946604809103028F5F80930302C9CF39
:1008000081E0890F80930102BECF0E94DD04811137
:100810000093E8018091E901803231F48091E80190
:10082000813011F40E94A3048091E901813011F418
:100830000E94A3048091E901882319F081508093DC
:10084000E9018091E801882319F081508093E80143
:100850000E94140341CF80E88093610010926100F0
:1008600085BF85BF0E9489040E94A00481110AC02F
:100870002FEF85EA9EE0215080409040E1F700C0D4
:100880000000F2CF0E94B5020E94D2020E94EF0245
:100890002FEF89E698E1215080409040E1F700C0B9
:1008A00000000E945C040E94A3040E9468038091DF
:1008B000E80080FFFCCF0895E5EFF1E0118212829D
:1008C000138214821582168210820895A6EFB1E079
:1008D000FD0191919817A9F091E0EC3FF907C9F754
:1008E00020E030E09D91911105C0F901EB50FE4FE1
:1008F000818307C02F5F3F4F2630310599F780E095
:10090000089581E00895E5EFF1E09081892B8083DF
:10091000089581E08093D70080EA8093D80082E137
:1009200089BD09B400FEFDCF80E98093D800109204
:10093000E0001092EC018CE08093E200789408953E
:100940008091EC0108958091EC01811102C081E059
:1009500008958FB7F89493E09093E9009091E400A4
:100960009E5C23E03091E80035FD0EC08FBF809182
:10097000EC01882361F38091E400981741F38FB76D
:10098000F8942093E900EECF9091ED019093F1005F
:100990009091EE019093F100EFEEF1E09191909340
:1009A000F10091E0E53FF907C9F79AE39093E80079
:1009B0001092FF018FBF80E008958091F501909122
:1009C000ED01981721F08093ED0181E001C080E0F6
:1009D0009091F6012091EF01291719F09093EF0102
:1009E00081E09091F7012091F001291719F090937F
:1009F000F00181E09091F8012091F101291719F09F
:100A00009093F10181E09091F9012091F201291771
:100A100019F09093F20181E09091FA012091F30195
:100A2000291719F09093F30181E09091FB01209137
:100A3000F401291719F09093F40181E008951F92B1
:100A40000F920FB60F9211248F939F93EF93FF9302
:100A50008091E1001092E10083FF0FC01092E90045
:100A600091E09093EB001092EC0092E29093ED00F5
:100A700098E09093F0001092EC0182FF33C08091D7
:100A8000EC01882379F19091FE01992359F180912D
:100A9000EB018F5F8093EB01837021F583E08093FE
:100AA000E9008091E80085FF1DC08091FF018F5F04
:100AB0008093FF01891316C01092FF018091ED0110
:100AC0008093F1008091EE018093F100EFEEF1E070
:100AD00081918093F10081E0E53FF807C9F78AE34F
:100AE0008093E800FF91EF919F918F910F900FBE3F
:100AF0000F901F9018951F920F920FB60F9211240E
:100B0000FF920F931F932F933F934F935F936F9396
:100B10007F938F939F93AF93BF93CF93DF93EF9385
:100B2000FF931092E9008091E80083FF2BC1F090C1
:100B3000F1008091F100C091F1009091F100D0E0BE
:100B4000D92B0091F1009091F10010E0192B209128
:100B5000F1006091F10092EF9093E800863009F087
:100B600049C082E491E043E751E0FC01A591B491D2
:100B7000CA17DB07D9F4FC013296A591B4910A1784
:100B80001B07A1F4FC01349645915491FC01369663
:100B9000849130E0362B2F3F310519F010F02FEF04
:100BA00030E0281708F4822F3EEF0CC00796481754
:100BB0005907D9F6E7C0490F511D891B3093E8004A
:100BC0008823A9F09091E800292F2570D9F392FD90
:100BD000DCC0982F813208F090E2FA01292F2223FD
:100BE00051F364916093F10021503196F8CF903227
:100BF00049F3CBC0853049F48EEF8093E8000E9422
:100C00005704C068C093E300C0C0893039F5F110C3
:100C10006CC0C093EC018EEF8093E80041E086E168
:100C200092E04093E9009C012F5F3F4FFC015491FB
:100C30005093EB00552359F0F90124912093EC00D7
:100C40009C012D5F3F4F3196E491E093ED004F5FA3
:100C5000453011F0C901E5CF8EE142C0883041F442
:100C6000F0E8FF1242C00E9457048091EC0167C077
:100C7000811115C00E94570482E8F8120AC000933F
:100C8000E9008091EB0085FB882780F91092E9004C
:100C900001C080E08093F1001092F1006FC0982FA6
:100CA0009D7F913011F592E0F9121FC0CD2B09F014
:100CB00069C00F779FEF900F943008F063C09EEFEC
:100CC0009093E8000093E900833009F45BC089E168
:100CD0008093EB0081E090E001C0880F0A95EAF76D
:100CE0008093EA001092EA0050C0012B09F04AC03C
:100CF000E1EAFE1227C08130A9F40E9457048091D6
:100D0000ED018093F1008091EE018093F100EFEE10
:100D1000F1E085EF91E021912093F1008E179F077C
:100D2000D1F72CC0823029F40E9457048091FE0133
:100D300006C0833039F50E945704809100028093E9
:100D4000F1001CC0F1E2FF121DC0893061F48091F6
:100D5000E80082FFFCCF8091F1008093FC018BEFD3
:100D60008093E8000BC08A3029F4D093FE011092E2
:100D7000FF0104C08B3031F4C09300028EEF8093EA
:100D8000E80003C081E28093EB00FF91EF91DF91D7
:100D9000CF91BF91AF919F918F917F916F915F9113
:100DA0004F913F912F911F910F91FF900F900FBE88
:100DB0000F901F901895869A0895E4E0F2E0119242
:100DC00082E0E631F807D9F70895FC01EE0FFF1F26
:100DD0008E0F9F1FFC01EC5FFD4F408361832283D8
:100DE0000895F894E4E0F2E046E152E028E030E0D3
:100DF000808190E0022E02C0959587950A94E2F7D3
:100E00008E9A80FF0CC0000000000000000000006F
:100E1000000000000000000000008E980AC00000E2
:100E20008E9800000000000000000000000000009C
:100E3000000021503109E1F631964E175F07B1F6F7
:100E400078940895EE0FFF1F0590F491E02D09941A
:040E5000F894FFCF44
:100E5400101010101010101010101010101010108E
:100E6400101010101010101010101010101010107E
:100E7400101010101010101000102000101010107E
:100E8400101010101000101020402000001000104E
:100E9400100040201010353A3B3C3D3E3F4041425B
:100EA4004344454C2B595A5B5C5D5E5F60616256FE
:100EB4005731390000000000000000000000002845
:100EC40002005347494600000000000000520100A0
:100ED4000400002C000050000010514F291E1F2058
:100EE400212223242526272D2E2A2B141A081517F0
:100EF4001C180C12132F303139041607090A0B0D74
:100F04000E0F3334002802001D1B0619051110367C
:100F14003700385201000400002C00385000001043
:100F2400514F12021514180A090F1601040E0D0C64
:080F34000B0305060708170076
:00000001FF
