:100000000C9468010C9485010C9485010C94850175
:100010000C9485010C9485010C9485010C94850148
:100020000C9485010C9485010C94D8080C94010A59
:100030000C9485010C9485010C9485010C94850128
:100040000C9485010C9485010C9485010C94850118
:100050000C9485010C9485010C9485010C94850108
:100060000C9485010C9485010C9485010C948501F8
:100070000C9485010C9485010C9485010C948501E8
:100080000C9485010C9485010C9485010C948501D8
:100090000C9485010C9485010C9485010C948501C8
:1000A0000C9485010C9485010C948501360446045A
:1000B00022044E042C043E04180452043104420469
:1000C0001D044A0427043A0413040E04FA0304042A
:1000D000F0030904F503FF03EB03E603E203E50481
:1000E000F504D104FD04DB04ED04C7040105E004BC
:1000F000F104CC04F904D604E904C204BD04A90443
:10010000B3049F04B804A404AE049A0495049104B3
:100110008705840581057E057B05780575057205D3
:100120006F056C0569056605630560055D055A0583
:100130005705540551054E054B0548054505420533
:100140008A0501C10601C10601C10601C006000001
:100150001C037A00690061006E005F006B0065009F
:10016000790062006F006100720064000C037A0085
:10017000690061006E0031000403090409025B009C
:10018000030100A03209040000010301010009215C
:100190001101000122400007058103080001090444
:1001A0000100010301020009211101000122840064
:1001B0000705820308000109040200020300000091
:1001C0000921110100012222000705830308000113
:1001D000070504030800010631FF0974A101097530
:1001E000150026FF0095087508810209761500267E
:1001F000FF00950875089102C005010902A101855B
:10020000010901A10005091901290515002501753C
:1002100001950581027503950181030501093009E6
:10022000311581257F7508950281060938158125CC
:100230007F35004500750895018106050C0A3802D6
:100240001581257F750895018106C0C005010980CB
:10025000A1018502150126B700190129B77510956E
:10026000018100C0050C0901A10185031501269C2F
:100270000219012A9C02751095018100C00501092F
:1002800006A10175019508050719E029E715002564
:10029000018102950175088103950575010508190D
:1002A00001290591029501750391039506750815BD
:1002B0000026FF000507190029FF8100C012010078
:1002C0000200000008C432600300020102000100C5
:1002D00011241FBECFEFDAE0DEBFCDBF11E0A0E0FA
:1002E000B1E0EAE1FAE102C005900D92A63EB10745
:1002F000D9F722E0A6EEB1E001C01D92A534B20705
:10030000E1F70E9425060C940B0D0C940000CF938E
:10031000DF938091190281111BC0C091EC01D09133
:10032000ED01CF3F21EFD207B1F0CF3F82EFD807E9
:1003300009F44AC0809114028823B9F088E0ECEEF9
:10034000F1E0DF011D928A95E9F781E080931902BF
:10035000DF91CF91089580911402813009F43EC05D
:100360008111ECCF0E945D061DC00E945D06CE3F4C
:10037000A3E0DA0748F4F999FECF6091EE0170919D
:10038000EF01CE010E94F80CCE0102968E3FB3E041
:100390009B0740F4F999FECF6091F0017091F10153
:1003A0000E94F80CCE0104968E3F23E0920718F0CD
:1003B0000E946106C3CFF999FECF6091F20170915E
:1003C000F3010E94F80CF4CF809114028111B6CF92
:1003D0000E94610682E080931402B0CF1092140252
:1003E000ADCFCF93DF938CE0E1E3F2E0DF01C82FE4
:1003F0001D92CA95E9F7EAE1F2E0DF011D928A95C4
:10040000E9F7A6E2B2E08BE0ED0119928A95E9F7EF
:1004100081E0808392E0968393E0918719968C9394
:10042000DF91CF91089588E0E4E0F2E0DF01982FBA
:100430001D929A95E9F7E4EFF1E0DF011D928A95AC
:10044000E9F7ECE0F2E08DE0DF011D928A95E9F733
:1004500081E0808783878DE78187089588E0ECEFCE
:10046000F1E0DF01982F1D929A95E9F7ECEEF1E0AB
:10047000DF011D928A95E9F7089590E090932C0290
:1004800080932B020895982F907F9039D9F038F0FF
:10049000903C91F0903E81F0903B71F00895903245
:1004A00021F0903879F09111F9CF90E0926090931B
:1004B0002E0280932D02089590E090932E02809357
:1004C0002D02089590E0916090932E0280932D026A
:1004D0000895E6E2F2E09081892B80830895E6E2B8
:1004E000F2E010821682158210861782089586E047
:1004F000EDE0F2E0DF011D928A95E9F710920C021F
:10050000089590910D02891711F120910E02821722
:10051000F1F030910F028317D1F04091100284174F
:10052000B1F050911102851791F060911202681795
:1005300071F0992371F02223A1F03323A9F0442311
:10054000B1F05523B9F06623C1F080E0089581E051
:10055000089520E030E0F901E45FFD4F818381E000
:10056000089521E030E0F7CF22E030E0F4CF23E03F
:1005700030E0F1CF24E030E0EECF25E030E0EBCF0B
:10058000ECE0F2E09081892B8083089580910C0249
:100590009091F4019817D1F18093F40181E090914A
:1005A0000D022091F601291719F09093F60181E0D0
:1005B00090910E022091F701291719F09093F701FD
:1005C00081E090910F022091F801291719F0909382
:1005D000F80181E0909110022091F901291719F09A
:1005E0009093F90181E0909111022091FA0129176D
:1005F00079F09093FA01909112028091FB01981387
:100600009093FB0181E080931802089580E0C7CFAA
:10061000909112022091FB012913F2CF8111F2CFA8
:10062000089580911802811102C081E0089510920E
:10063000180222E348E064EF71E081E00C94A30823
:100640008091260290911B02981729F180931B023A
:1006500081E020912B0230912C0240912102509197
:10066000220242175307C9F030932202209321023D
:1006700020912D0230912E0280912402909125022A
:1006800082179307C9F0309325022093240283E058
:1006900080933002089580E0DCCF20912D023091CC
:1006A0002E0240912402509125024217530759F718
:1006B000882381F381E0ECCF82E0EACFCF93DF9310
:1006C00080913002837080933002811104C081E0F8
:1006D000DF91CF9108950E94A0088823C1F38FB7BE
:1006E000F894C091E400CE5C92E09093E900909180
:1006F000E80095FD14C0D2E00CC08091E400C8175A
:1007000031F38FB7F894D093E9009091E80095FD0C
:1007100006C08FBF0E94A0088111EFCFD8CF909163
:100720003002923099F1933011F19130D1F410925E
:10073000300290911A029093F10090911B029093D5
:10074000F10090911C029093F10090911D02909302
:10075000F10090911E029093F10090911F029093EE
:10076000F1009AE39093E8008FBF80E0B1CF109240
:100770003002909123029093F10090912402909383
:10078000F100909125029093F100EBCF109230028E
:10079000909120029093F100909121029093F100AA
:1007A000909122029093F100DCCF80E885BF85BF55
:1007B000089590E08931910540F4FC01EA5AFF4F19
:1007C0000C94F20C6111A2C06E980895662309F48E
:1007D0006DC0559A0895662309F46AC0549A089525
:1007E000662309F46DC0859A0895662309F464C0F0
:1007F000819A0895662309F467C0879A089566234D
:1008000009F458C0809A0895662309F45BC0869A5B
:100810000895662309F452C0849A0895662309F462
:1008200055C0269A0895662309F460C0259A089554
:10083000662309F453C0519A0895662309F45EC0F3
:100840003F9A0895662309F445C0229A08956623C5
:1008500009F450C0579A0895662309F443C0279AB3
:100860000895662309F44EC0539A0895662381F1D2
:10087000209A08956623E1F1249A0895662381F170
:10088000509A08956623E1F13E9A0895662321F176
:10089000219A0895662381F1569A0895662321F1DD
:1008A000239A0895662381F1529A089555980895E0
:1008B000549808958098089581980895849808958B
:1008C000859808958698089587980895269808959C
:1008D0002098089522980895219808955198089590
:1008E0005098089527980895239808952598089575
:1008F0002498089557980895569808953F98089514
:100900003E98089553980895529808956E9A0895C0
:1009100090E08931910540F4FC01E159FF4F0C94BE
:10092000F20C6111A2C076980895662309F46DC097
:100930005D9A0895662309F46AC05C9A0895662357
:1009400009F46DC08D9A0895662309F464C0899AEC
:100950000895662309F467C08F9A0895662309F401
:1009600058C0889A0895662309F45BC08E9A08954A
:10097000662309F452C08C9A0895662309F455C081
:100980002E9A0895662309F460C02D9A089566236F
:1009900009F453C0599A0895662309F45EC0479A32
:1009A0000895662309F445C02A9A0895662309F438
:1009B00050C05F9A0895662309F443C02F9A0895A2
:1009C000662309F44EC05B9A0895662381F1289A44
:1009D00008956623E1F12C9A0895662381F1589ACF
:1009E00008956623E1F1469A0895662321F1299A34
:1009F0000895662381F15E9A0895662321F12B9A6A
:100A00000895662381F15A9A08955D9808955C9837
:100A1000089588980895899808958C9808958D98D8
:100A200008958E9808958F9808952E98089528987F
:100A300008952A98089529980895599808955898DE
:100A400008952F9808952B9808952D9808952C981F
:100A500008955F9808955E98089547980895469878
:100A600008955B9808955A980895769A089590E0AD
:100A70008931910510F080E00895FC01E857FF4F9F
:100A80000C94F20C89B18072089589B18071089537
:100A90008FB1817008958FB1827008958FB1807188
:100AA00008958FB1807208958FB1807408958FB1C9
:100AB0008078089583B18074089583B18072089519
:100AC00083B18071089589B18078089589B1807467
:100AD000089586B18078089586B18074089589B1AB
:100AE0008870089589B18470089589B182700895DD
:100AF00089B18170089583B18078089583B1887039
:100B0000089583B18470089583B18270089583B18C
:100B1000817008958CB180740895843031F0909183
:100B20003E02892B80933E0208959091F40199230F
:100B300089F190910D02953391F320910E022533A6
:100B400071F330910F02353351F340911002453368
:100B500031F350911102553311F360911202653354
:100B6000F1F2992309F447C0222309F44AC0332340
:100B700009F450C0442309F453C0552309F453C069
:100B80006111CDCF25E030E0F901E45FFD4F95E341
:100B90009183C5CF90910D02993209F220910E02F6
:100BA000293209F4BCCF30910F02393209F4B7CFA2
:100BB00040911002493209F4B2CF509111025932DA
:100BC00009F4ADCF60911202693209F4A8CF9923DC
:100BD000A9F02223C9F03323D1F04423F1F05523A7
:100BE00029F161119CCF25E030E0F901E45FFD4F70
:100BF00099E2918394CF20E030E0C6CF20E030E04E
:100C0000F4CF21E030E0C0CF21E030E0EECF22E0B1
:100C100030E0EBCF22E030E0B7CF23E030E0E5CFAB
:100C200023E030E0B1CF24E030E0AECF24E030E08C
:100C3000DCCF80913E0290913F02981721F0809383
:100C40003F0281E0089580E008950C94110810920D
:100C50004102E0E0F0E0EE52FE4F60E080810E9451
:100C6000D903E0914102F0E0EE52FE4F61E0808155
:100C70000E948804E0914102EF5FE0934102EE3070
:100C800048F3089510924102E0E0F0E0E052FE4F98
:100C900060E080810E94D903E0914102F0E0E052DF
:100CA000FE4F61E080810E948804E0914102EF5F85
:100CB000E0934102E53048F3089560E082E00C944F
:100CC000880461E082E00C948804CF93DF9380EF86
:100CD00080933D0210924002E0E0C8E0DFE0F0E0E7
:100CE000E052FE4F61E080810E94D903E091400212
:100CF000F0E0E052FE4F60E080810E948804109294
:100D00004202E0E010C08EE0A89FD0011124A05064
:100D1000BF4FAE0FB11D8C9187778C93EF5FE0933F
:100D20004202EE3010F5F0E0EE52FE4F80810E945C
:100D30003705E0914202A09140028111E4CF8EE09C
:100D4000A89FD0011124A050BF4FAE0FB11D8C91B0
:100D500088688C93C093E8018E3E01F7D0933D02E2
:100D6000EF5FE0934202EE30F0F210924102E0E0D9
:100D7000F0E0E052FE4F60E080810E94D903E091F4
:100D80004102F0E0E052FE4F61E080810E94880461
:100D9000E0914102EF5FE0934102E53048F3E091DA
:100DA0004002EF5FE0934002E53008F498CF0E94E4
:100DB00077020E946F0210923E021092400240E0C1
:100DC0001092420290E01DC0803B09F4CCC008F4B0
:100DD00085C0803D09F4BBC0803F09F4ABC0803CB6
:100DE00059F424573E4FE20FF31F80810E943D02C9
:100DF00040914002909142029F5F909342029E3048
:100E000070F5E92FF0E08EE0489F90011124D901A0
:100E1000A050BF4FAE0FBF1F5C9180913D02852354
:100E20008F3009F4B9C080F68B3009F469C008F03E
:100E300042C0893009F471C08A30F1F6A9014A5BD9
:100E40005E4FE40FF51F80810E94C0024091400276
:100E5000909142029F5F909342029E3090F24F5FCA
:100E600040934002453008F4ABCF0E941906882316
:100E700019F083E08093E7010E94C602882319F0ED
:100E800083E08093E7010E94200381119EC080913E
:100E9000E801883009F4A1C0813009F4A6C090911E
:100EA000E70181119EC0992319F091509093E701B9
:100EB000DF91CF9108958C3009F461C08D3009F035
:100EC0009BCFA9014A5B5E4FE40FF51F80810E9412
:100ED000430240914002909142028ECF803909F442
:100EE00068C0803A09F088CF24573E4FE20FF31FC5
:100EF00080810E94C00240914002909142027CCFCA
:100F0000A9014A5B5E4FE40FF51F80810E946902D0
:100F100040914002909142026FCFA9014A5B5E4F1F
:100F2000E40FF51F80810E94810240914002909160
:100F3000420262CFA90144575E4FE40FF51F808142
:100F40000E948D05409140029091420255CF245756
:100F50003E4FE20FF31F80810E9443024091400206
:100F60009091420249CF24573E4FE20FF31F8081F8
:100F70000E94690240914002909142023DCFA90136
:100F80004A5B5E4FE40FF51F80810E943D02409155
:100F900040029091420230CFC9018A5B9E4FE80F18
:100FA000F91F80810E948D0540914002909142027C
:100FB00023CF24573E4FE20FF31F80810E9481020E
:100FC000409140029091420217CF83E08093E70165
:100FD0008091E801883009F05FCF9091E70191306E
:100FE00091F081508093E8015ECF9091E60180916D
:100FF0003F0289278093E6010E9411030E945E034D
:101000008091E8014CCF9091E60180913F028927C1
:101010008093E6010E9411030E945E038091E80123
:101020003BCF80E880936100109261000E94D5035D
:101030000E947F080E94A00881110AC02FEF85EA54
:101040009EE0215080409040E1F700C00000F2CFC8
:101050000E9427060E94420661E082E00E94D903B6
:1010600060E082E00E94880461E08FE00E94D90382
:1010700060E08FE00E9488041092E60181E0809396
:101080001902809314022FEF89E698E121508040E5
:101090009040E1F700C000000E9477020E946F02BA
:1010A00022E348E064EF71E081E00E94A3080E941F
:1010B000870180911402823079F28130C1F70E9459
:1010C00065068091130281FF0DC060E082E00E94FE
:1010D00088048091E60180FD0DC061E08FE00E94F0
:1010E0008804E5CF61E082E00E9488048091E601F7
:1010F00080FFF3CF60E08FE00E948804D8CF81E0CA
:101100008093D70080EA8093D80082E189BD09B43A
:1011100000FEFDCF80E98093D8001092E00010928D
:10112000EB018CE08093E20078940E9413020E940D
:10113000F1010E942E0210923E0210923F02089589
:101140008091EB0108959091EB019923E9F09FB70D
:10115000F8943091E400230F8093E9003091E80087
:1011600035FF0DC013C09091E400291769F09FB7B7
:10117000F8948093E9003091E80035FD07C09FBFE7
:101180009091EB019111EFCF81E00895442351F04C
:10119000FB019B01240F311D81918093F1002E17DB
:1011A0003F07D1F78AE38093E8009FBF80E008956E
:1011B0001F920F920FB60F9211242F933F934F93CC
:1011C0008F939F938091E1001092E10083FF0FC005
:1011D0001092E90091E09093EB001092EC0092E005
:1011E0009093ED0098E09093F0001092EB0182FF55
:1011F00004C08091EB0181110AC09F918F914F91A2
:101200003F912F910F900FBE0F901F9018959091C6
:10121000EA019F5F89E2989F812D1124869586952A
:101220008695392F22E3829F30191124832F3111A3
:1012300016C01092EA019091E80095FF12C09091BB
:101240001902992371F02091140221114AC0809152
:10125000EB0181114EC021E02093190202C090934E
:10126000EA0190911502992341F28091E9018F5F83
:101270008093E901837009F0C0CF81E08093E90099
:101280008091E80085FFB9CF809116028F5F80932F
:1012900016028913B2CF109216028091F401809346
:1012A000F1008091F5018093F1008091F601809327
:1012B000F1008091F7018093F1008091F801809313
:1012C000F1008091F9018093F1008091FA018093FF
:1012D000F1008091FB018093F1008AE38093E800A4
:1012E0008CCF9091EB01911154C081E08093190251
:1012F000B8CF8FB7F8943091E40094E09093E90070
:101300009091E80095FD20C08FBF8091EB0188236C
:1013100009F4A1CF8091E400381709F49CCF44E090
:101320000BC08FBF8091EB01882309F494CF80918B
:10133000E400381709F48FCF8FB7F8944093E90091
:101340009091E80095FFEDCF9091F1009093EC0122
:101350009091F1009093ED019091F1009093EE0146
:101360009091F1009093EF019091F1009093F00132
:101370009091F1009093F1019091F1009093F2011E
:101380009091F1009093F3019AE39093E8008FBF5E
:1013900063CF9FB7F8943091E40024E02093E900F4
:1013A0002091E80025FD20C09FBF9091EB0199237B
:1013B00009F49BCF9091E400931709F496CF44E091
:1013C0000BC09FBF9091EB01992309F48ECF9091B0
:1013D000E400391709F489CF9FB7F8944093E900E6
:1013E0002091E80025FFEDCF2091F1002093EC0142
:1013F0002091F1002093ED012AE32093E8009FBFA4
:1014000075CF1F920F920FB60F9211242F933F9317
:101410004F935F936F937F938F939F93AF93BF93FC
:10142000EF93FF931092E9008091E80083FF38C0AA
:101430007091F1004091F1008091F1002091F10054
:1014400090E0922B2091F1005091F10030E0352B8B
:101450006091F100E091F10052EF5093E8004630C6
:1014600099F1453009F43EC1493009F47BC0483058
:1014700009F407C14111B5C18091E80080FFFCCF9C
:10148000723809F484C180E08093F1001092F10079
:101490008EEF8093E80007C02115310509F00AC1DD
:1014A00081E28093EB00FF91EF91BF91AF919F910B
:1014B0008F917F916F915F914F913F912F910F90FD
:1014C0000FBE0F901F901895811541E0940709F405
:1014D00055C18115F2E09F0709F463C1811542E20D
:1014E000940709F425C18115F1E29F0709F462C14F
:1014F000811523E0920709F061C2A4E0B0E024E086
:1015000048E751E0862F90E09E2B8F3F910509F030
:1015100020F48A179B0708F4262F6EEF8091E800CD
:101520008570E1F38091E80082FDBDCF322F293034
:1015300008F41FC138E0FA01832F94919093F100D1
:10154000815031968111F9CF8FEF830F90E0019692
:10155000480F591F231B6093E8002111DFCF38305B
:10156000E9F2A1CF71118FC08093EB018EEF8093D0
:10157000E80081E08093E900E2E4F1E0E491E093A7
:10158000EB00EE2309F463C1E3E4F1E0E491E093BE
:10159000EC00E4E4F1E0E491E093ED0025E431E0D7
:1015A00082E08093E900C9010196F90144914093DA
:1015B000EB00442351F0FC0184918093EC00C901BD
:1015C0000396319624912093ED0023E02093E900C7
:1015D0009C012F5F3F4FFC0144914093EB0044235B
:1015E00059F0F90124912093EC009C012D5F3F4FAD
:1015F000319684918093ED0084E08093E900C901E5
:101600000196F90144914093EB00442351F0FC0111
:1016100084918093EC00C901039631962491209324
:10162000ED0025E02093E9009C012F5F3F4FFC0176
:1016300044914093EB00442359F0F9012491209305
:10164000EC009C012D5F3F4F319684918093ED001B
:1016500086E08093E900C9010196F9014491409325
:10166000EB00442341F0FC0184918093EC0031961F
:1016700024912093ED008EE78093EA001092EA0017
:1016800012CF7038D1F121153105A1F4713A09F466
:10169000E1C0713209F004CF4930D9F14A3009F480
:1016A00085C14B3009F0FCCE809317028EEF8093FA
:1016B000E800F9CE2230310509F444C0213031056B
:1016C00009F0EECE713A09F412C1713209F0E8CE98
:1016D0004B3009F465C14A3009F0E2CE8EEF8093B9
:1016E000E800E1CE2EEF2093E8002091E80020FFF3
:1016F000FCCF80688093E300D6CE8091E80080FF25
:10170000FCCF8091EB018093F1008EEF8093E80095
:10171000CACE8091E80082FFFCCF8091F1008093D7
:1017200013028BEF8093E8008EEF8093E800BBCE2E
:101730002115310509F047C0A0E4B0E020E44DE7F1
:1017400052E0E0CE713A09F403C1713209F0A8CE3B
:101750004A3021F2493009F0A3CE8091E80082FF9F
:10176000FCCF8BEF8093E8008091E80080FFFCCFF6
:10177000B5CF2111E0CE6093E80095CE232B09F080
:101780008FCEA2E1B0E022E14DEB52E0BBCE209340
:10179000E9008091EB0085FB882780F91092E90031
:1017A00073CE232B09F07CCEABE5B0E02BE54CE704
:1017B00051E0A8CE21153105E1F5A9E0B0E029E01E
:1017C0004EE851E09FCE2230310509F48AC0213025
:1017D000310509F065CEA4E8B0E024E849EF51E016
:1017E00091CE542F5D7F513009F04DCF723009F00A
:1017F0004ACF009709F050CE522F5F776FEF650FF9
:10180000663008F049CE8EEF8093E8005093E900EF
:10181000433009F445CE89E18093EB0081E090E00C
:1018200001C0880F5A95EAF78093EA001092EA0007
:101830003ACE2230310509F4ADC02130310509F02E
:101840002FCEA9E0B0E029E047EA51E05BCE23E4E7
:1018500031E0A6CE413089F04230B9F1433009F091
:101860001FCE8091E80080FFFCCF8091170280930B
:10187000F1008EEF8093E80016CE8091E80080FFA3
:10188000FCCF8091F4018093F1008091F501809369
:10189000F1008091F6018093F1008091F70180932F
:1018A000F1008091F8018093F1008091F90180931B
:1018B000F1008091FA018093F1008091FB01809307
:1018C000F1008EEF8093E800EECD8091E80080FF7C
:1018D000FCCF809115028093F1008EEF8093E80099
:1018E000E2CDA2E2B0E022E247ED51E00BCE413082
:1018F00079F0433009F0D4CD8091E80080FFFCCF2F
:1019000080912F028093F1008EEF8093E800CBCD81
:101910008091E80080FFFCCF80911A028093F10053
:1019200080911B028093F10080911C028093F10052
:1019300080911D028093F10080911E028093F1003E
:1019400080911F028093F1008EEF8093E800ABCD71
:10195000413009F0A5CD28E03EEF8091E800982FB6
:101960009570D9F382FD9FCD922F293070F098E0C9
:10197000892F1092F1008150E1F7291B3093E80084
:101980002111EBCF983049F38ECD2111F1CF309357
:10199000E80089CDA9E0B0E029E040EC51E0B2CD0B
:1019A00080932F028EEF8093E8007DCD90931502F7
:1019B000109216028EEF8093E80075CD813043E0DF
:1019C000940751F08230934009F06ACDACE1B0E069
:1019D0002CE140E551E096CDACE0B0E02CE04CE6E7
:1019E00051E090CDEE0FFF1F0590F491E02D09948A
:1019F0000E94FD0C272F0C94FE0C262FF999FECF88
:101A00001FBA92BD81BD20BD0FB6F894FA9AF99A1B
:0A1A10000FBE01960895F894FFCF71
:101A1A00711111111111111111111111111111104D
:101A2A0011101010101010101010101011111111A7
:101A3A00101010101010101000112211111111178E
:101A4A001717151515000022226622000000110042
:101A5A00000022666622353A3B3C3D3E3F40414209
:101A6A004344454C2B0052000000000000000000D7
:101A7A0000003950514F000000000000000000280B
:101A8A000253474946010208EAE9E2000020010040
:101A9A00040000002C00000040000010041E1F205B
:101AAA00212223242526272D2E2A2B141A0815171E
:101ABA001C180C12132F303139041607090A0B0DA2
:101ACA000E0F33340028021D1B0619051110363774
:101ADA00380000200100040000002C000000400033
:101AEA0000101514180A09041601000E0D0C0B0338
:061AFA00050607081700B5
:00000001FF
