:100000000C9468010C9485010C9485010C94850175
:100010000C9485010C9485010C9485010C94850148
:100020000C9485010C9485010C94380A0C94610B96
:100030000C9485010C9485010C9485010C94850128
:100040000C9485010C9485010C9485010C94850118
:100050000C9485010C9485010C9485010C94850108
:100060000C9485010C9485010C9485010C948501F8
:100070000C9485010C9485010C9485010C948501E8
:100080000C9485010C9485010C9485010C948501D8
:100090000C9485010C9485010C9485010C948501C8
:1000A0000C9485010C9485010C94850105061506B8
:1000B000F1051D06FB050D06E705210600061106E4
:1000C000EC051906F6050906E205DD05C905D305A7
:1000D000BF05D805C405CE05BA05B505B105B406FA
:1000E000C406A006CC06AA06BC069606D006AF0635
:1000F000C0069B06C806A506B80691068C067806BB
:1001000082066E06870673067D066906640660062B
:100110005607530750074D074A074707440741074B
:100120003E073B073807350732072F072C072907FB
:100130002607230720071D071A07170714071107AB
:10014000590701C10601C10601C10601C006000030
:100150001C037A00690061006E005F006B0065009F
:10016000790062006F006100720064000C037A0085
:10017000690061006E0031000403090409025B009C
:10018000030100A03209040000010301010009215C
:100190001101000122400007058103080001090444
:1001A0000100010301020009211101000122840064
:1001B0000705820308000109040200020300000091
:1001C0000921110100012222000705830308000113
:1001D000070504030800010631FF0974A101097530
:1001E000150026FF0095087508810209761500267E
:1001F000FF00950875089102C005010902A101855B
:10020000010901A10005091901290515002501753C
:1002100001950581027503950181030501093009E6
:10022000311581257F7508950281060938158125CC
:100230007F35004500750895018106050C0A3802D6
:100240001581257F750895018106C0C005010980CB
:10025000A1018502150126B700190129B77510956E
:10026000018100C0050C0901A10185031501269C2F
:100270000219012A9C02751095018100C00501092F
:1002800006A10175019508050719E029E715002564
:10029000018102950175088103950575010508190D
:1002A00001290591029501750391039506750815BD
:1002B0000026FF000507190029FF8100C012010078
:1002C0000200000008CCCC1534000201020001003D
:1002D00011241FBECFEFDAE0DEBFCDBF11E0A0E0FA
:1002E000B1E0EEE2FDE102C005900D92AA3FB10738
:1002F000D9F722E0AAEFB1E001C01D92A738B207FA
:10030000E1F70E945C070C94950E0C940000AF92EC
:10031000BF92CF92DF92EF92FF920F931F93CF93F2
:10032000DF9380E090E00E946C0E5C0182E090E040
:100330000E946C0E8C0184E090E00E946C0EEC0137
:1003400086E090E00E946C0E6C0188E090E00E94D4
:100350006C0E7C018AE0A816B10409F4B6C10F3016
:100360001105C1F06D9709F46CC0E3E6CE16D10417
:1003700009F4CBC0F9EAEF16F10409F438C1DF91B2
:10038000CF911F910F91FF90EF90DF90CF90BF9092
:10039000AF9008958FE090E00E94640E8093E60194
:1003A00080E190E00E94640E8093E70181E190E09B
:1003B0000E94640E8093E80182E190E00E94640E46
:1003C0008093E90183E190E00E94640E8093EA014A
:1003D00084E190E00E94640E8093EB0185E190E05F
:1003E0000E94640E8093EC0186E190E00E94640E0E
:1003F0008093ED0187E190E00E94640E8093EE010E
:1004000088E190E00E94640E8093EF0189E190E022
:100410000E94640E8093F0018AE190E00E94640ED5
:100420008093F1018BE190E00E94640E8093F201D1
:100430008CE190E00E94640E8093F3016D9709F0C7
:1004400094CF0CE811E0C0E0D0E0CE014D960E94C0
:10045000640EF8018083CE014E960E94640EF8016E
:100460008183CE014F960E94640EF8018283CE01F3
:1004700080960E94640EF8018383CE0181960E94CB
:10048000640EF8018483CE0182960E94640EF80106
:100490008583CE0183960E94640EF8018683CE0187
:1004A00084960E94640EF8018783CE0185960E948F
:1004B000640EF8018087CE0186960E94640EF801D2
:1004C0008187CE0187960E94640EF8018287CE0153
:1004D00088960E94640EF8018387CE0189960E9457
:1004E000640EF8018487CE018A960E94640EF8019A
:1004F00085872E96025F1F4FC634D10509F0A5CF20
:10050000E3E6CE16D10409F035CF06E411E0C0E0F1
:10051000D0E0CE018D599F4F0E94640EF801808378
:10052000CE018C599F4F0E94640EF8018183CE0149
:100530008B599F4F0E94640EF8018283CE018A5925
:100540009F4F0E94640EF8018383CE0189599F4F0B
:100550000E94640EF8018483CE0188599F4F0E9447
:10056000640EF8018583CE0187599F4F0E94640E67
:10057000F8018683CE0186599F4F0E94640EF801D0
:100580008783CE0185599F4F0E94640EF8018087B2
:10059000CE0184599F4F0E94640EF8018187CE01DD
:1005A00083599F4F0E94640EF8018287CE018259C1
:1005B0009F4F0E94640EF8018387CE0181599F4F9F
:1005C0000E94640EF8018487CE0180599F4F0E94DB
:1005D000640EF80185872E96025F1F4FC634D10541
:1005E00009F097CFF9EAEF16F10409F0C8CE00E060
:1005F00011E0C0E0D0E0CE0187559F4F0E94640E0D
:10060000F8018083CE0186559F4F0E94640EF80149
:100610008183CE0185559F4F0E94640EF80182832D
:10062000CE0184559F4F0E94640EF8018383CE0152
:1006300083559F4F0E94640EF8018483CE0182553A
:100640009F4F0E94640EF8018583CE0181559F4F14
:100650000E94640EF8018683CE0180559F4F0E9450
:10066000640EF8018783CE018F549F4F0E94640E61
:10067000F8018087CE018E549F4F0E94640EF801CE
:100680008187CE018D549F4F0E94640EF8018287AE
:10069000CE018C549F4F0E94640EF8018387CE01D7
:1006A0008B549F4F0E94640EF8018487CE018A54B8
:1006B0009F4F0E94640EF80185872E96025F1F4FA0
:1006C000C634D10509F097CF5ACE8AE090E00E9457
:1006D000640E8093F4018BE090E00E94640E80939E
:1006E000F5018CE090E00E94640E8093F6018DE0AD
:1006F00090E00E94640E8093F7018EE090E00E94EB
:10070000640E8093F8012BCECF93DF9380916B0220
:1007100081111BC0C0914602D0914702CF3F21EF0B
:10072000D207B1F0CF3F82EFD80709F44AC08091D9
:1007300066028823B9F088E0E6E4F2E0DF011D926A
:100740008A95E9F781E080936B02DF91CF9108955C
:1007500080916602813009F43EC08111ECCF0E9485
:1007600079071DC00E947907CE3FA3E0DA0748F45D
:10077000F999FECF6091480270914902CE010E9422
:10078000720ECE0102968E3FB3E09B0740F4F999BA
:10079000FECF60914A0270914B020E94720ECE0110
:1007A00004968E3F23E0920718F00E947A07C3CF89
:1007B000F999FECF60914C0270914D020E94720E29
:1007C000F4CF809166028111B6CF0E947A0782E051
:1007D00080936602B0CF10926602ADCFCF93DF93C5
:1007E000ECE6F2E08CE0DF011D928A95E9F7A8E7DC
:1007F000B2E08BE0ED0119928A95E9F781E0808300
:1008000092E0968393E0918719968C93DF91CF9134
:10081000089588E0EEE4F2E0DF011D928A95E9F7A1
:10082000EEE5F2E08DE0DF011D928A95E9F781E0C7
:10083000808783878DE78187089588E0E6E5F2E089
:10084000DF01982F1D929A95E9F7E6E4F2E0DF01C7
:100850001D928A95E9F7089590E090937E02809327
:100860007D02089590E09093800280937F02089526
:10087000E8E7F2E09081892B80830895E8E7F2E0D1
:1008800010821682158210861782089586E0EFE5A1
:10089000F2E0DF011D928A95E9F710925E02089559
:1008A00090915F02891711F1209160028217F1F097
:1008B000309161028317D1F0409162028417B1F048
:1008C00050916302851791F060916402681771F08E
:1008D000992371F02223A1F03323A9F04423B1F02E
:1008E0005523B9F06623C1F080E0089581E00895B2
:1008F00020E030E0F901E25AFD4F818381E0089564
:1009000021E030E0F7CF22E030E0F4CF23E030E028
:10091000F1CF24E030E0EECF25E030E0EBCFEEE5A4
:10092000F2E09081892B8083089580915E029091FE
:100930004E029817D1F180934E0281E090915F02B0
:1009400020915002291719F09093500281E0909164
:10095000600220915102291719F09093510281E011
:100960009091610220915202291719F0909352023E
:1009700081E09091620220915302291719F090931F
:10098000530281E09091630220915402291779F07B
:100990009093540290916402809155029813909321
:1009A000550281E080936A02089580E0C7CF90915C
:1009B0006402209155022913F2CF8111F2CF0895DC
:1009C00080916A02811102C081E0089510926A024A
:1009D00022E348E06EE472E081E00C94030A809127
:1009E000780290916D02981729F180936D0281E051
:1009F00020917D0230917E024091730250917402E9
:100A000042175307C9F03093740220937302209168
:100A10007F02309180028091760290917702821756
:100A20009307C9F0309377022093760283E0809396
:100A30008202089580E0DCCF20917F023091800215
:100A400040917602509177024217530759F7882355
:100A500081F381E0ECCF82E0EACFCF93DF93809106
:100A60008202837080938202811104C081E0DF9151
:100A7000CF9108950E94000A8823C1F38FB7F8949C
:100A8000C091E400CE5C92E09093E9009091E80080
:100A900095FD14C0D2E00CC08091E400C81731F37A
:100AA0008FB7F894D093E9009091E80095FD06C0C7
:100AB0008FBF0E94000A8111EFCFD8CF90918202A0
:100AC000923099F1933011F19130D1F41092820269
:100AD00090916C029093F10090916D029093F100CF
:100AE00090916E029093F10090916F029093F100BB
:100AF000909170029093F100909171029093F100A7
:100B00009AE39093E8008FBF80E0B1CF1092820209
:100B1000909175029093F100909176029093F1007C
:100B2000909177029093F100EBCF10928202909116
:100B300072029093F100909173029093F100909162
:100B400074029093F100DCCF80E885BF85BF0895E3
:100B500090E08931910540F4FC01EA5AFF4F0C9472
:100B60005E0E6111A2C06E980895662309F46DC0EF
:100B7000559A0895662309F46AC0549A0895662325
:100B800009F46DC0859A0895662309F464C0819ABA
:100B90000895662309F467C0879A0895662309F4C7
:100BA00058C0809A0895662309F45BC0869A089518
:100BB000662309F452C0849A0895662309F455C047
:100BC000269A0895662309F460C0259A089566233D
:100BD00009F453C0519A0895662309F45EC03F9A00
:100BE0000895662309F445C0229A0895662309F4FE
:100BF00050C0579A0895662309F443C0279A089570
:100C0000662309F44EC0539A0895662381F1209A11
:100C100008956623E1F1249A0895662381F1509A9C
:100C200008956623E1F13E9A0895662321F1219A01
:100C30000895662381F1569A0895662321F1239A37
:100C40000895662381F1529A08955598089554980D
:100C500008958098089581980895849808958598B6
:100C6000089586980895879808952698089520985D
:100C700008952298089521980895519808955098BC
:100C800008952798089523980895259808952498FD
:100C9000089557980895569808953F9808953E9856
:100CA000089553980895529808956E9A089590E083
:100CB0008931910540F4FC01E159FF4F0C945E0E1F
:100CC0006111A2C076980895662309F46DC05D9AFB
:100CD0000895662309F46AC05C9A0895662309F4AE
:100CE0006DC08D9A0895662309F464C0899A0895A9
:100CF000662309F467C08F9A0895662309F458C0E3
:100D0000889A0895662309F45BC08E9A0895662335
:100D100009F452C08C9A0895662309F455C02E9A9E
:100D20000895662309F460C02D9A0895662309F496
:100D300053C0599A0895662309F45EC0479A0895EE
:100D4000662309F445C02A9A0895662309F450C021
:100D50005F9A0895662309F443C02F9A0895662385
:100D600009F44EC05B9A0895662381F1289A08958C
:100D70006623E1F12C9A0895662381F1589A08952B
:100D80006623E1F1469A0895662321F1299A089590
:100D9000662381F15E9A0895662321F12B9A0895C6
:100DA000662381F15A9A08955D9808955C98089594
:100DB00088980895899808958C9808958D98089535
:100DC0008E9808958F9808952E98089528980895DC
:100DD0002A9808952998089559980895589808953B
:100DE0002F9808952B9808952D9808952C9808957C
:100DF0005F9808955E9808954798089546980895D5
:100E00005B9808955A980895769A089590E08931EC
:100E1000910510F080E00895FC01E857FF4F0C9415
:100E20005E0E89B18072089589B1807108958FB185
:100E3000817008958FB1827008958FB18071089587
:100E40008FB1807208958FB1807408958FB18078CA
:100E5000089583B18074089583B18072089583B139
:100E60008071089589B18078089589B1807408955A
:100E700086B18078089586B18074089589B18870AC
:100E8000089589B18470089589B18270089589B1F7
:100E90008170089583B18078089583B18870089532
:100EA00083B18470089583B18270089583B1817095
:100EB00008958CB1807408950C94920980B38C7F4E
:100EC00080BB81B3836081BB6E98769A8AB18F7242
:100ED0008AB98BB1806D8BB987B18F7387B988B1AF
:100EE000806C88B984B1847484B985B18B6B85B901
:100EF0000895089508951F93CF93DF9384B1846478
:100F000084B985B18B7B85B980B3806F80BB81B399
:100F10008F7181BB8C9A8AB1807D8AB98BB18F62C7
:100F20008BB980B38C7F80BB81B3836081BB6E98AB
:100F3000769A8AB18F728AB98BB1806D8BB987B17D
:100F40008F7387B988B1806C88B984B1847484B98F
:100F500085B18B6B85B980EF8093830210928402F8
:100F6000E0E0DCE6C9E01FE0F0E0EC50FE4F61E0BD
:100F700080810E94A805E0918402F0E0EC50FE4FD1
:100F800060E080810E94570610928602E0E012C065
:100F9000A09184022EE0A29FD0011124A050BF4F47
:100FA000AE0FB11D8C9187778C93EF5FE093860233
:100FB000EE3058F5F0E0EA51FE4F80810E940607BE
:100FC000E09186028111E4CF909184024E2F50E08F
:100FD0002EE0929FC0011124DC01A050BF4FA40F4E
:100FE000B51F2C9128682C93C093FB0183509E4F12
:100FF000DC01A40FB51FDC932E3EB9F610938302DB
:10100000EF5FE0938602EE30A8F28AB1807D8AB964
:101010008BB18F628BB9E0918402EF5FE093840221
:10102000E53008F4A1CF80B3836080BB81B38C7FAF
:1010300081BB6E9A76988AB1806D8AB98BB18F72B6
:101040008BB987B1806C87B988B18F7388B984B147
:101050008B6B84B985B1847485B9E091FC01F0E0B3
:10106000E052FE4F61E080810E9457061092860296
:101070009091FC0180E0292F30E01CC061E080816C
:101080000E9457069091FC0180918602292F30E042
:101090004EE0949FF0011124E350FE4FE80FF11D44
:1010A0004081442311F0415040838F5F809386023A
:1010B0008E30D8F490E0220F331FF901EE0FFF1F9E
:1010C000EE0FFF1FEE0FFF1FE21BF30BE350FE4F6F
:1010D000E80FF91F2081FC01EE52FE4F2111CECF07
:1010E00060E080810E945706CDCF8091650280FF2D
:1010F00003C0992309F4F6C081FF03C0923009F4BC
:10110000FBC09F5F9093FC01953010F01092FC01A2
:101110000E9446040E943E041092840240E0109215
:10112000860290E01AC0803B09F4AAC008F06CC0A7
:10113000803909F48CC0803A59F424573E4FE20FAD
:10114000F31F80810E948F04409184029091860257
:101150009F5F909386029E3070F5E92FF0E08EE05D
:10116000489F90011124D901A050BF4FAE0FBF1F5F
:101170005C918091830285238D3009F474C098F6C8
:101180008A3009F496C008F452C08B3009F484C048
:101190008C30F1F6A9014A5B5E4FE40FF51F8081A8
:1011A0000E942C0440918402909186029F5F90934C
:1011B00086029E3090F24F5F40938402453008F4DF
:1011C000AECF0E949504882319F083E08093FA0142
:1011D0000E94EF04882319F083E08093FA01809144
:1011E000FB01893009F476C0813009F48DC09091FB
:1011F000FA01811173C0992319F091509093FA016B
:10120000DF91CF911F910895803C09F45FC0803D2C
:1012100009F09ECFA90144575E4FE40FF51F80816E
:101220000E943204409184029091860291CF8930CD
:1012300009F08ECFA9014A5B5E4FE40FF51F808154
:101240000E945004409184029091860281CF2457DD
:101250003E4FE20FF31F80810E94500440918402B0
:101260009091860275CFC9018A5B9E4FE80FF91FE6
:1012700080810E943204409184029091860268CF5E
:1012800024573E4FE20FF31F80810E9438044091A3
:101290008402909186025CCFA9014A5B5E4FE40F05
:1012A000F51F80810E94380440918402909186024B
:1012B0004FCFA9014A5B5E4FE40FF51F80810E946A
:1012C0008F04409184029091860242CFA901445735
:1012D0005E4F63CF9091FA019130E9F08150809395
:1012E000FB0189CF61E08091DF010E945706809168
:1012F00065029091FC0100CF61E08091D2010E94D3
:1013000057069091FC01FDCE0E94E0040E942D053D
:101310008091FB016CCF0E94E0040E942D0580911A
:10132000FB0162CF80E880936100109261000E940F
:10133000A4050E94E4090E94000A81110AC02FEF4F
:1013400085EA9EE0215080409040E1F700C0000017
:10135000F2CF0E945E078AB1807D8AB98BB18F621D
:101360008BB984B1846484B985B18B7B85B980B332
:10137000806F80BB81B38F7181BB8C9AC1E0C093B9
:101380006B02C09366020E9487012FEF89E698E105
:10139000215080409040E1F700C000000E944604C8
:1013A0000E943E0422E348E06EE472E081E00E9485
:1013B000030A0E94840380916602823001F3813027
:1013C000C1F70E947B07F5CF81E08093D70080EAC8
:1013D0008093D80082E189BD09B400FEFDCF80E989
:1013E0008093D8001092E000109245028CE0809328
:1013F000E20078940E9409040E94EE030C941D04FC
:10140000809145020895909145029923E9F09FB794
:10141000F8943091E400230F8093E9003091E800C4
:1014200035FF0DC013C09091E400291769F09FB7F4
:10143000F8948093E9003091E80035FD07C09FBF24
:10144000909145029111EFCF81E00895442351F02E
:10145000FB019B01240F311D81918093F1002E1718
:101460003F07D1F78AE38093E8009FBF80E00895AB
:101470001F920F920FB60F9211242F933F934F9309
:101480008F939F938091E1001092E10083FF0FC042
:101490001092E90091E09093EB001092EC0092E042
:1014A0009093ED0098E09093F0001092450282FF37
:1014B00004C08091450281110AC09F918F914F9184
:1014C0003F912F910F900FBE0F901F901895909104
:1014D00044029F5F89E2989F812D1124869586950D
:1014E0008695392F22E3829F30191124832F3111E1
:1014F00016C0109244029091E80095FF12C090919E
:101500006B02992371F02091660221114AC08091EB
:10151000450281114EC021E020936B0202C09093DE
:10152000440290916702992341F2809143028F5FB8
:1015300080934302837009F0C0CF81E08093E9007B
:101540008091E80085FFB9CF809168028F5F80931A
:1015500068028913B2CF1092680280914E02809384
:10156000F10080914F028093F100809150028093AE
:10157000F100809151028093F1008091520280939A
:10158000F100809153028093F10080915402809386
:10159000F100809155028093F1008AE38093E80086
:1015A0008CCF90914502911154C081E080936B02E1
:1015B000B8CF8FB7F8943091E40094E09093E900AD
:1015C0009091E80095FD20C08FBF8091450288234F
:1015D00009F4A1CF8091E400381709F49CCF44E0CE
:1015E0000BC08FBF80914502882309F494CF80916E
:1015F000E400381709F48FCF8FB7F8944093E900CF
:101600009091E80095FFEDCF9091F1009093460204
:101610009091F100909347029091F10090934802CD
:101620009091F100909349029091F10090934A02B9
:101630009091F10090934B029091F10090934C02A5
:101640009091F10090934D029AE39093E8008FBF40
:1016500063CF9FB7F8943091E40024E02093E90031
:101660002091E80025FD20C09FBF9091450299235D
:1016700009F49BCF9091E400931709F496CF44E0CE
:101680000BC09FBF90914502992309F48ECF909192
:10169000E400391709F489CF9FB7F8944093E90023
:1016A0002091E80025FFEDCF2091F1002093460224
:1016B0002091F100209347022AE32093E8009FBF86
:1016C00075CF1F920F920FB60F9211242F933F9355
:1016D0004F935F936F937F938F939F93AF93BF933A
:1016E000EF93FF931092E9008091E80083FF38C0E8
:1016F0007091F1004091F1008091F1002091F10092
:1017000090E0922B2091F1005091F10030E0352BC8
:101710006091F100E091F10052EF5093E800463003
:1017200099F1453009F442C1493009F47EC048308E
:1017300009F40BC14111B9C18091E80080FFFCCFD1
:10174000723809F488C180E08093F1001092F100B2
:101750008EEF8093E80007C02115310509F00EC116
:1017600081E28093EB00FF91EF91BF91AF919F9148
:101770008F917F916F915F914F913F912F910F903A
:101780000FBE0F901F901895811541E0940709F442
:1017900059C18115F2E09F0709F467C1811542E242
:1017A000940709F429C18115F1E29F0709F466C184
:1017B000811543E0940709F065C22930344081F671
:1017C000A4E0B0E024E048E751E0862F90E09E2BB3
:1017D0008F3F910509F020F48A179B0708F4262F04
:1017E0006EEF8091E8008570E1F38091E80082FD62
:1017F000BACF322F293008F420C138E0FA01832F04
:1018000094919093F100815031968111F9CF8FEF2F
:10181000830F90E00196480F591F231B6093E80047
:101820002111DFCF3830E9F29ECF711190C0809343
:1018300045028EEF8093E80081E08093E900E2E4C6
:10184000F1E0E491E093EB00EE2309F464C1E3E4FA
:10185000F1E0E491E093EC00E4E4F1E0E491E09362
:10186000ED0025E431E082E08093E900C9010196B2
:10187000F90144914093EB00442351F0FC01849121
:101880008093EC00C9010396319624912093ED00DA
:1018900023E02093E9009C012F5F3F4FFC0144911E
:1018A0004093EB00442359F0F90124912093EC007C
:1018B0009C012D5F3F4F319684918093ED0084E031
:1018C0008093E900C9010196F90144914093EB002E
:1018D000442351F0FC0184918093EC00C9010396EC
:1018E000319624912093ED0025E02093E9009C019E
:1018F0002F5F3F4FFC0144914093EB00442359F08C
:10190000F90124912093EC009C012D5F3F4F31960B
:1019100084918093ED0086E08093E900A9014F5FF8
:101920005F4FF90184918093EB00882341F0FA0125
:1019300044914093EC00319624912093ED008EE782
:101940008093EA001092EA000ECF7038D1F1211591
:101950003105A1F4713A09F4E1C0713209F000CF08
:101960004930D9F14A3009F47FC14B3009F0F8CE43
:10197000809369028EEF8093E800F5CE2230310526
:1019800009F444C02130310509F0EACE713A09F476
:1019900034C1713209F0E4CE4B3009F46DC14A30E4
:1019A00009F0DECE8EEF8093E800DDCE2EEF20939F
:1019B000E8002091E80020FFFCCF80688093E300DE
:1019C000D2CE8091E80080FFFCCF809145028093C9
:1019D000F1008EEF8093E800C6CE8091E80082FF90
:1019E000FCCF8091F100809365028BEF8093E8003B
:1019F0008EEF8093E800B7CE2115310509F047C07E
:101A0000A0E4B0E020E44DE752E0DFCE713A09F403
:101A1000D2C0713209F0A4CE4A3021F2493009F027
:101A20009FCE8091E80082FFFCCF8BEF8093E8008F
:101A30008091E80080FFFCCFB5CF2111DFCE60930D
:101A4000E80091CE232B09F08BCEA2E1B0E022E199
:101A50004DEB52E0BACE2093E9008091EB0085FB7C
:101A6000882780F91092E9006FCE232B09F078CEF9
:101A7000ABE5B0E02BE54CE751E0A7CE21153105F1
:101A8000E1F5A9E0B0E029E04EE851E09ECE223039
:101A9000310509F48AC02130310509F061CEA4E88E
:101AA000B0E024E849EF51E090CE542F5D7F5130F3
:101AB00009F04DCF723009F04ACF009709F04CCEB3
:101AC000522F5F776FEF650F663008F045CE8EEFCF
:101AD0008093E8005093E900433009F441CE89E156
:101AE0008093EB0081E090E001C0880F5A95EAF7FF
:101AF0008093EA001092EA0036CE2230310509F4D4
:101B0000ADC02130310509F02BCEA9E0B0E029E0CD
:101B100047EA51E05ACE23E431E0A5CE413089F0C6
:101B20004230B9F1433009F01BCE8091E80080FFCC
:101B3000FCCF809169028093F1008EEF8093E800E2
:101B400012CE8091E80080FFFCCF80914E028093FE
:101B5000F10080914F028093F100809150028093B8
:101B6000F100809151028093F100809152028093A4
:101B7000F100809153028093F10080915402809390
:101B8000F100809155028093F1008EEF8093E80080
:101B9000EACD8091E80080FFFCCF809167028093BE
:101BA000F1008EEF8093E800DECDA2E2B0E022E209
:101BB00047ED51E00ACE413009F0D2CD28E03EEFAA
:101BC0008091E800982F9570D9F382FDCCCD922FAB
:101BD000293070F098E0892F1092F1008150E1F7E0
:101BE000291B3093E8002111EBCF983049F3BBCD8E
:101BF0002111F1CF3093E800B6CD413079F0433078
:101C000009F0AECD8091E80080FFFCCF8091810289
:101C10008093F1008EEF8093E800A5CD8091E800DD
:101C200080FFFCCF80916C028093F10080916D0267
:101C30008093F10080916E028093F10080916F0299
:101C40008093F100809170028093F1008091710285
:101C50008093F1008EEF8093E80085CDA9E0B0E09D
:101C600029E040EC51E0B1CD9093670210926802F8
:101C70008EEF8093E80077CD809381028EEF809382
:101C8000E80071CD8130F3E09F0751F429303440F2
:101C900009F066CDACE0B0E02CE04CE651E095CD2B
:101CA0008230934009F05CCD2930344009F058CDA2
:101CB000ACE1B0E02CE140E551E087CDEE0FFF1F35
:101CC0000590F491E02D0994F999FECF92BD81BD64
:101CD000F89A992780B50895A8E1B0E042E050E075
:101CE0000C94790E0E94870E272F0C94880EDC012D
:101CF000CB01FC01F999FECF06C0F2BDE1BDF89A17
:101D0000319600B40D9241505040B8F70895262FF7
:101D1000F999FECF1FBA92BD81BD20BD0FB6F894D0
:0E1D2000FA9AF99A0FBE01960895F894FFCF33
:101D2E001111111111111111111111111111111096
:101D3E00111010101010101010101011111111118F
:101D4E00101010101010101000112200111111118E
:101D5E00101010101010002222222200001100007C
:101D6E00000022226622353A3B3C3D3E3F40414236
:101D7E004344454C2B0052000000000000000000C0
:101D8E0000313950514F00000000000000000028C3
:101D9E0002005347494600000000000000200108E1
:101DAE000400002C0000000040800010291E1F209F
:101DBE00212223242526272D2E2A2B141A08151707
:101DCE001C180C12132F303139041607090A0B0D8B
:101DDE000E0F3334002802001D1B06190511103694
:101DEE003738002001080400002C0000000040805D
:101DFE0000101514180A09041600010E0D0C0B0321
:101E0E000F12111002131514180A09041600010EF0
:0A1E1E000D0C0B0305060708170062
:00000001FF
