:100000000C940E010C942B010C942B010C942B01DD
:100010000C942B010C942B010C942B010C942B01B0
:100020000C942B010C942B010C949E050C9404064B
:100030000C942B010C942B010C942B010C942B0190
:100040000C942B010C942B010C942B010C942B0180
:100050000C942B010C942B010C942B010C942B0170
:100060000C942B010C942B010C942B010C942B0160
:100070000C942B010C942B010C942B010C942B0150
:100080000C942B010C942B010C942B010C942B0140
:100090000C942B010C942B010C942B010C942B0130
:1000A0000C942B010C942B010C942B017201780100
:1000B0007E0184018A01900196019C01A201A801A0
:1000C000AE01B401BA01C001C601CC01D201D80110
:1000D000DE01E401EA01F001F601FC010202120274
:1000E00018021E0224022A02300236023C02420298
:1000F00048024E0254025A02600266026C02720208
:1001000078027E0284028A02900296029C02A20277
:10011000B202B502B802BB02BE02C102C402C702EB
:10012000CA02CD02D002D302D602D902DC02DF021B
:10013000E202E502E802EB02EE02F102F402F7024B
:10014000FA020001000004021200020000A30122D2
:1001500000220000C5013F00210000B50109000395
:1001600000009F01040103090491010C020309042A
:1001700073011C1C037A00690061006E005F006B54
:10018000006500790062006F006100720064000089
:10019000000C037A00690061006E00310000000469
:1001A00003090409022200010100C0320904000011
:1001B0000103010100092111010001223F0007058F
:1001C000830308000105010906A1017501950805D1
:1001D0000719E029E71500250181029501750881BD
:1001E0000395057501050819012905910295017509
:1001F0000391039506750815002568050719002960
:10020000688100C01201000200000020CCCC133431
:10021000000101020001000001C1060011241FBEFF
:10022000CFEFDAE0DEBFCDBF11E0A0E0B1E0E2EF5A
:10023000FFE002C005900D92AA3EB107D9F722E077
:10024000AAEEB1E001C01D92A531B207E1F70E940C
:1002500001050C94F7070C94000086E0E6EFF1E04E
:10026000DF011D928A95E9F71092FD0108954091F2
:10027000F601841719F1A7EFB1E02CEF31E0FD0191
:1002800091919817E9F0E217F307D1F7442339F079
:1002900021E030E0A9019D91911109C002C040E028
:1002A00050E0FA01EA50FE4F808381E008952F5F0D
:1002B0003F4F2630310571F780E0089581E00895C1
:1002C00081E008959091FD01892B8093FD010895AF
:1002D00090E08931910508F09AC0FC01EA5AFF4F7D
:1002E0000C94F107662311F0209A08952098089540
:1002F000662311F0219A089521980895662311F03C
:10030000229A089522980895662311F0239A089559
:1003100023980895662311F0279A08952798089541
:10032000662311F0509A089550980895662311F0AD
:10033000519A089551980895662311F0529A08959C
:1003400052980895662311F0539A0895539808958A
:10035000662311F03E9A08953E980895662311F0A1
:100360003F9A08953F980895662311F0569A08958C
:1003700056980895662311F0579A0895579808954E
:10038000662311F0249A089524980895662311F0A5
:10039000259A089525980895662311F0269A0895C0
:1003A00026980895662311F0879A089587980895EE
:1003B000662311F0869A089586980895662311F0B1
:1003C000859A089585980895662311F0849A089572
:1003D00084980895662311F0819A0895819808956C
:1003E000662311F0809A089580980895662311F08D
:1003F000549A089554980895662311F0559A0895D3
:1004000055980895662311F06E9A08956E98089590
:1004100090E08931910508F09AC0FC01E159FF4F45
:100420000C94F107662311F0289A089528980895EE
:10043000662311F0299A089529980895662311F0EA
:100440002A9A08952A980895662311F02B9A089500
:100450002B980895662311F02F9A08952F980895E8
:10046000662311F0589A089558980895662311F05C
:10047000599A089559980895662311F05A9A089543
:100480005A980895662311F05B9A08955B98089531
:10049000662311F0469A089546980895662311F050
:1004A000479A089547980895662311F05E9A089533
:1004B0005E980895662311F05F9A08955F980895F5
:1004C000662311F02C9A08952C980895662311F054
:1004D0002D9A08952D980895662311F02E9A089567
:1004E0002E980895662311F08F9A08958F98089595
:1004F000662311F08E9A08958E980895662311F060
:100500008D9A08958D980895662311F08C9A089518
:100510008C980895662311F0899A08958998089512
:10052000662311F0889A089588980895662311F03B
:100530005C9A08955C980895662311F05D9A089579
:100540005D980895662311F0769A08957698089537
:1005500090E08931910508F050C0FC01E857FF4F49
:100560000C94F10783B18170089583B1827008956E
:1005700083B18470089583B18870089583B18078C1
:10058000089589B18170089589B18270089589B103
:100590008470089589B18870089586B18074089533
:1005A00086B18078089589B18074089589B1807882
:1005B000089583B18071089583B18072089583B1E5
:1005C000807408958FB1807808958FB180740895F4
:1005D0008FB1807208958FB1807108958FB182704C
:1005E00008958FB18170089589B18071089589B19E
:1005F000807208958CB18074089580E008951092FF
:100600000002E0E0F0E0EC52FE4F60E080810E94EA
:100610006801E0910002F0E0EC52FE4F61E0808161
:100620000E940802E0910002EF5FE0930002EE30CA
:1006300048F3089510920002E0E0F0E0EE51FE4F22
:1006400060E080810E946801E0910002F0E0EE51DC
:10065000FE4F61E080810E940802E0910002EF5F9E
:10066000E0930002E53048F3089510920002E0E0C4
:10067000F0E0EE52FE4F61E080810E946801E0915F
:100680000002F0E0EE52FE4F60E080810E9408021E
:10069000E0910002EF5FE0930002E23048F30E9435
:1006A000A6078FEF809314020E94A8070E94BD073F
:1006B00008950F931F93CF93DF931092000280E071
:1006C000C1E0D0E09091EE01282F30E0AE0102C0F1
:1006D000440F551F8A95E2F7892F90E084239523D4
:1006E0004817590741F4F901EE52FE4F60E080814E
:1006F0000E94080207C0F901EE52FE4F61E08081BE
:100700000E940802809100028F5F80930002823075
:10071000C8F2809114028F3FF9F48091EE0182FFBC
:1007200011C0C0E000E010E04C2F40952C2F6C2F42
:10073000C8010E94B1070F5F1F4FCE5C0630110544
:1007400099F702C00E94A8070E94BD078091140279
:1007500081508093140209C0882321F08150809336
:10076000140203C08FEF80931402DF91CF911F9189
:100770000F91089510E202E0C6EFD1E00F2EF6E0EF
:10078000FF2EF02D1092EC011092FF01E0E0F0E05E
:10079000EE51FE4F61E080810E946801E091FF010F
:1007A000F0E0EE51FE4F60E080810E94080210925E
:1007B0000102E0E0F0E0EC52FE4F80810E94A802CE
:1007C0008823C1F08091FF0190E020910102880F01
:1007D000991FFC01EE0FFF1FEE0FFF1FEE0FFF1F13
:1007E000E81BF90BE050FF4FE20FF11D80818E7F77
:1007F000808319C08091FF0190E020910102880F51
:10080000991FFC01EE0FFF1FEE0FFF1FEE0FFF1FE2
:10081000E81BF90BE050FF4FE20FF11D8081816072
:1008200080831093EB01E09101028091FF0190E041
:10083000880F991FDC01AA0FBB1FAA0FBB1FAA0FAD
:10084000BB1FA81BB90BA050BF4FAE0FB11D8C91A1
:10085000813411F40093EC01EF5FE0930102EE307C
:1008600008F4A8CF0E941A03E091FF01EF5FE09324
:10087000FF01E53008F48BCFBCC01092010280E08C
:100880004091FF0150E090E09A01220F331FF901DF
:10089000EE0FFF1FEE0FFF1FEE0FFF1FE21BF30B0C
:1008A000E050FF4FE80FF91F30812091EC01232B1E
:1008B0002132A1F4440F551F9A01220F331F220F3A
:1008C000331F220F331F241B350B24573E4FF901D2
:1008D000E80FF91F80810E94620141C02332A1F418
:1008E000440F551F9A01220F331F220F331F220F6F
:1008F000331F241B350B24573E4FF901E80FF91F16
:1009000080810E9462012BC02131A1F4440F551F48
:100910009A01220F331F220F331F220F331F241B74
:10092000350B24573E4FF901E80FF91F80810E94D3
:10093000370115C0233199F4440F551F9A01220F36
:10094000331F220F331F220F331F241B350B2A5B4B
:100950003E4FF901E80FF91F80810E943701809115
:1009600001028F5F809301028E3008F489CF80915D
:10097000FF018F5F8093FF01853008F47ECF1092D6
:10098000EA018091FD019091FC01981729F0809374
:10099000FC0181E08093EA012091EA01E0EFF1E0BF
:1009A000A6EFB1E031E08D919081981711F080832E
:1009B000232F3196EC17FD07B1F7F0920002209338
:1009C000EA018091EB01803221F42130B9F40E94D8
:1009D00047058091EB01813011F40E944705809119
:1009E000EB01882319F081508093EB010E94590399
:1009F000C9CE0E942D011092FF013FCF8091EB01E3
:100A0000F2CFE1E6F0E080E88083108285BF85BF09
:100A10000E942D0509C02FEF85EA9EE021508040FD
:100A20009040E1F700C000000E944405882399F33C
:100A30000E94FF020E941A030E9435032FEF89E6ED
:100A400098E1215080409040E1F700C000000E94F2
:100A50002D010E9447050E94BA0381E08093D700D0
:100A600080EA8093D80082E189BD09B400FEFDCF01
:100A700080E98093D8001092E0001092FE018CE093
:100A80008093E200789408958091FE010895CF93B9
:100A9000DF938091FE01882309F444C08FB7F89456
:100AA00093E09093E9002091E4002E5C9091E8009F
:100AB00095FD1FC08FBF8091FE018823A9F1809111
:100AC000E400281799F1A9EEB0E033E0E8EEF0E099
:100AD000C4EED0E008C08FBF8091FE01882341F1B1
:100AE0008881281739F18FB7F8943C93908195FF4E
:100AF000F2CF9091FD01E1EFF0E090831082E6EFFC
:100B0000F1E02CEF31E0A1EFB0E091919C93E2177E
:100B1000F307D9F79AE39093E8001092EF018FBFA3
:100B200080E009C08FEF07C08FEF05C08FEF03C0D3
:100B30008FEF01C08FEFDF91CF9108951F920F9239
:100B40000FB60F9211242F933F938F939F93AF93E0
:100B5000BF93EF93FF93E1EEF0E08081108283FF7B
:100B60000FC01092E90091E09093EB001092EC001E
:100B700092E29093ED0098E09093F0001092FE01C5
:100B800082FF35C08091FE01882389F18091E701C1
:100B9000882369F18091ED018F5F8093ED0183706F
:100BA00031F583E08093E9008091E80085FF1FC064
:100BB0008091EF018F5F8093EF019091E70189139E
:100BC00016C01092EF018091FD01E1EFF0E080830B
:100BD0001082E6EFF1E02CEF31E0A1EFB0E081917F
:100BE0008C93E217F307D9F78AE38093E800FF912B
:100BF000EF91BF91AF919F918F913F912F910F9066
:100C00000FBE0F901F9018951F920F920FB60F9264
:100C100011240F931F932F933F934F935F936F93E1
:100C20007F938F939F93AF93BF93CF93DF93EF9374
:100C3000FF931092E9008091E80083FF6BC1E1EF20
:100C4000F0E0A08180812081908130E0392B4081CB
:100C5000908150E0BA01792BC081D08192EF9093BE
:100C6000E800863009F058C004C081E28093EB00B0
:100C700058C142E451E003E711E0CA01FA01A5912D
:100C8000B4912A173B0701F5FA013296A591B49168
:100C90006A177B07C9F4FA01349645915491FC0117
:100CA000369624918C2F90E09D2B8F3F910519F063
:100CB00010F08FEF90E0821708F4282FA8EEB0E034
:100CC0006EEFC1EFD0E006C0495F5F4F0417150714
:100CD000A1F6CBCF8C91982F9570E1F382FD21C1C5
:100CE000322F213208F030E2332309F417C1FA0120
:100CF000832F94919883815031968111FACF8FEF91
:100D0000830F90E00196480F591F231B6C9321110C
:100D1000E1CF3032F9F205C1853061F48EEF809376
:100D2000E800E8EEF0E0808180FFFDCF20682093AE
:100D3000E300F7C0893089F5A11187C02093FE0137
:100D40008EEF8093E80081E026E132E0C9EED0E04A
:100D5000ABEEB0E00CEE10E06DEE70E08883A90120
:100D60004F5F5F4FF90194919C93992361F0FA01D1
:100D70004491F8014083F901329694912D5F3F4FE1
:100D8000FB01908301C09A018F5F853039F7EAEE4D
:100D9000F0E08EE180831082C4C0883081F4A038F6
:100DA00009F053C0E8EEF0E0808180FFFDCF809134
:100DB000FE018093F1008EEF8093E800B2C08111B4
:100DC0001AC0E8EEF0E0808180FFFDCFA23851F438
:100DD000E9EEF0E060838091EB0085FB882780F9E5
:100DE000108201C080E0E1EFF0E0808310828EEF9E
:100DF0008093E80096C0982F9D7F913031F5A23006
:100E000021F5232B09F086C0462F4F779FEF940FD3
:100E1000943008F07FC09EEF9093E8004093E90083
:100E2000833021F481E28093EB007BC089E18093E1
:100E3000EB0081E090E002C0880F991F4A95E2F72D
:100E4000EAEEF0E0808310826CC0672B09F062C08C
:100E5000A13AD1F58130D1F4E8EEF0E0808180FF55
:100E6000FDCF8091FD01E1EFF0E080831082E6EF9D
:100E7000F1E02CEF31E0A1EFB0E081918C932E17DF
:100E80003F07D9F78EEF8093E8004BC0823069F4BA
:100E9000E8EEF0E0808180FFFDCF8091E701809354
:100EA000F1008EEF8093E8003CC0833099F5E8EEC6
:100EB000F0E0808180FFFDCF8091E8018093F10018
:100EC0008EEF8093E8002DC0A13221F5893081F4A6
:100ED000E8EEF0E0808182FFFDCF8091F100809309
:100EE000EE01E8EEF0E08BEF80838EEF808319C097
:100EF0008A3041F43093E7011092EF018EEF809336
:100F0000E8000FC08B3031F42093E8018EEF80931E
:100F1000E80007C081E28093EB0003C06C932111CD
:100F2000D9CEFF91EF91DF91CF91BF91AF919F917A
:100F30008F917F916F915F914F913F912F911F9171
:100F40000F910F900FBE0F901F901895869A0895DD
:100F5000E2E0F2E084E192E01192E817F907E1F7AC
:100F60000895FC01EE0FFF1F8E0F9F1FFC01EE5F27
:100F7000FD4F4083618322830895F894E2E0F2E01C
:100F800044E152E029C0808190E0022E02C0959594
:100F900087950A94E2F780FF0DC08E9A000000004A
:100FA0000000000000000000000000000000000041
:100FB0008E980BC08E9A00008E98000000000000F2
:100FC0000000000000000000000021503109D9F6A7
:100FD00031964E175F0719F028E030E0D4CF7894AF
:100FE0000895EE0FFF1F0590F491E02D0994F894F9
:020FF000FFCF31
:100FF20010101010101010101010101010101010EF
:1010020010101010101010101010101010101010DE
:1010120010101010101010100010200010101010DE
:1010220010101010100010102040200000100010AE
:10103200100040201010353A3B3C3D3E3F404142BB
:101042004344454C2B005200000000000000000009
:1010520000493950514F00000000000000000028F4
:10106200020053470000000000000000005201008F
:101072000400002C000050000010514F291E1F20B8
:10108200212223242526272D2E2A2B141A08151750
:101092001C180C12132F303139041607090A0B0DD4
:1010A2000E0F3334002802001D1B061905111036DD
:1010B2003700385201000400002C003850000010A4
:1010C200514F12021514180A090F1601040E0D0CC5
:0A10D2000B0305060708177D010057
:00000001FF
