:100000000C9467010C9484010C9484010C94840179
:100010000C9484010C9484010C9484010C9484014C
:100020000C9484010C9484010C94ED080C945B09ED
:100030000C9484010C9484010C9484010C9484012C
:100040000C9484010C9484010C9484010C9484011C
:100050000C9484010C9484010C9484010C9484010C
:100060000C9484010C9484010C9484010C948401FC
:100070000C9484010C9484010C9484010C948401EC
:100080000C9484010C9484010C9484010C948401DC
:100090000C9484010C9484010C9484010C948401CC
:1000A0000C9484010C9484010C9484013E04440457
:1000B0004A04500456045C04620468046E04740428
:1000C0007A04800486048C04920498049E04A40498
:1000D000AA04B004B604BC04C204C804CE04DE04FE
:1000E000E404EA04F004F604FC04020508050E0525
:1000F00014051A05200526052C05320538053E0590
:1001000044054A05500556055C05620568056E05FF
:100110007E05800582058405860588058B058E058C
:1001200091059405960598059A059C059E05A005E0
:10013000A205A505A705A905AB05AD05AF05B20547
:10014000B50501C10601C10601C10601C0060000D6
:100150001C037A00690061006E005F006B0065009F
:10016000790062006F006100720064000C037A0085
:10017000690061006E0031000403090409025B009C
:10018000030100A03209040000010301010009215C
:1001900011010001223F0007058103080001090445
:1001A0000100010301020009211101000122840064
:1001B0000705820308000109040200020300000091
:1001C0000921110100012222000705830308000113
:1001D000070504030800010631FF0974A101097530
:1001E000150026FF0095087508810209761500267E
:1001F000FF00950875089102C005010902A101855B
:10020000010901A10005091901290515002501753C
:1002100001950581027503950181030501093009E6
:10022000311581257F7508950281060938158125CC
:100230007F35004500750895018106050C0A3802D6
:100240001581257F750895018106C0C005010980CB
:10025000A1018502150126B700190129B77510956E
:10026000018100C0050C0901A10185031501269C2F
:100270000219012A9C02751095018100C00501092F
:1002800006A10175019508050719E029E715002564
:10029000018102950175088103950575010508190D
:1002A00001290591029501750391039506750815BD
:1002B0000025FF0507190029FF8100C01201000277
:1002C00000000008CCCC153400020102000111240A
:1002D0001FBECFEFDAE0DEBFCDBF11E0A0E0B1E09E
:1002E000E2E1F8E102C005900D92A83EB107D9F70E
:1002F00022E0A8EEB1E001C01D92A734B207E1F7F9
:100300000E94DC060C94070C0C9400007F928F92E4
:100310009F92AF92BF92CF92DF92EF92FF920F9394
:100320001F93CF93DF93882E8B0110921302912C91
:100330008EE0782ED0911302D530F0F51092200285
:100340007D9EC00111249C01285B3E4F79019C01D8
:1003500022573E4F69019C012E5F3E4F5901C091CB
:100360002002C53020F531E0831699F0831650F055
:1003700082E0881217C0C801890D911D0E94D60B1A
:10038000F5010DC0C801890D911D0E94D60BF60123
:1003900006C0C801890D911D0E94D60BF701EC0F14
:1003A000F11D80839394CF5FC0932002D8CF81E06A
:1003B0008D0F80931302BECFDF91CF911F910F91CC
:1003C000FF90EF90DF90CF90BF90AF909F908F9075
:1003D0007F9008959F92AF92BF92CF92DF92EF925B
:1003E000FF920F931F93CF93DF9380E090E00E94E2
:1003F000D60BC82F81E090E00E94D60B982E82E0A9
:1004000090E00E94DE0B6C0184E090E00E94DE0B25
:100410007C0186E090E00E94DE0B8C01C83021F068
:100420008DE0981222C011C092EEA92E91E0B92E53
:10043000C8E0D0E0CE010E94D60BF50181935F01A8
:100440002196CD30D105B1F7EBCF84EDA82E81E018
:10045000B82ECDE0D0E0CE010E94D60BF5018193FD
:100460005F012196CB31D105B1F7FBE1CF16D10465
:1004700029F46BE170E080E00E948601F1E6EF165E
:10048000F10429F461E670E081E00E948601073AF8
:10049000110581F467EA70E082E0DF91CF911F914E
:1004A0000F91FF90EF90DF90CF90BF90AF909F9013
:1004B0000C948601DF91CF911F910F91FF90EF90E7
:1004C000DF90CF90BF90AF909F900895CF93DF9330
:1004D00080911202811154C0C091ED01D091EE01C2
:1004E00080910D02CF3F21EFD20729F4813079F4BA
:1004F00010920D023BC0CF3F92EFD90741F481111A
:1005000006C00E942C0782E080930D022FC081114B
:100510002DC00E941807CE3FA3E0DA0748F4F999EE
:10052000FECF6091EF017091F001CE010E94E40BCB
:10053000CE0102968E3FB3E09B0740F4F999FECFBF
:100540006091F1017091F2010E94E40BCE010496DA
:100550008E3F23E0920740F4F999FECF6091F301BA
:100560007091F4010E94E40B0E942C0788E0EDEEEC
:10057000F1E0DF011D928A95E9F781E08093120294
:10058000DF91CF910895CF93DF93E4E1F2E08CE027
:10059000DF011D928A95E9F7A1E2B2E08BE0ED015F
:1005A00019928A95E9F781E0808392E0968393E03F
:1005B000918719968C93DF91CF91089588E0E5EFAC
:1005C000F1E0DF011D928A95E9F7E5E0F2E08DE0C8
:1005D000DF011D928A95E9F781E0808783878DE7A7
:1005E0008187089588E0EDEFF1E0DF01982F1D92FB
:1005F0009A95E9F7EDEEF1E0DF011D928A95E9F7B2
:100600000895E1E2F2E09081892B80830895E1E290
:10061000F2E0108216821582108617820895E5E0B6
:10062000F2E01182128213821482158216821082E5
:100630000895A6E0B2E0FD0191919817A9F092E02B
:10064000EC30F907C9F720E030E09D91911105C029
:10065000F901EB5FFD4F818307C02F5F3F4F2630CD
:10066000310599F780E0089581E00895E5E0F2E032
:100670009081892B80830895809105029091F501E6
:10068000981721F08093F50181E001C080E09091FE
:1006900006022091F701291719F09093F70181E0E4
:1006A000909107022091F801291719F09093F80111
:1006B00081E0909108022091F901291719F0909397
:1006C000F90181E0909109022091FA01291719F0AE
:1006D0009093FA0181E090910A022091FB01291781
:1006E00019F09093FB0181E090910B022091FC01A5
:1006F000291719F09093FC0102C0882319F081E0BA
:1007000080931102089580911102882349F010927C
:10071000110222E348E065EF71E081E00C94970854
:1007200081E008958091210290911502981721F09F
:100730008093150281E001C080E020912602309173
:10074000270240911B0250911C024217530729F0C7
:1007500030931C0220931B0282E0209128023091EA
:10076000290240911E0250911F024217530731F097
:1007700030931F0220931E0283E001C081118093F9
:100780002B020895CF93DF9380912B028370809387
:100790002B02811102C081E060C00E94640888239E
:1007A000D1F38FB7F894C091E400CE5C92E09093BF
:1007B000E900D2E09091E80095FD0EC08FBF0E9445
:1007C0006408882341F38091E400C81721F38FB7B0
:1007D000F894D093E900EECF90912B029230E9F09B
:1007E000933041F19130A1F510922B0290911402B7
:1007F0009093F100909115029093F1009091160260
:100800009093F100909117029093F100909118024B
:100810009093F1009091190219C010922B029091BF
:100820001A029093F10090911B029093F100909125
:100830001C020CC010922B0290911D029093F100AB
:1008400090911E029093F10090911F029093F100FD
:100850009AE39093E8008FBF80E0DF91CF910895F5
:1008600080E885BF85BF089590E08931910508F043
:100870009AC0FC01EA5AFF4F0C94D00B662311F08A
:10088000209A089520980895662311F0219A0895DA
:1008900021980895662311F0229A089522980895C8
:1008A000662311F0239A089523980895662311F082
:1008B000279A089527980895662311F0509A08956D
:1008C00050980895662311F0519A0895519808950B
:1008D000662311F0529A089552980895662311F0F4
:1008E000539A089553980895662311F03E9A0895F7
:1008F0003E980895662311F03F9A08953F98089511
:10090000662311F0569A089556980895662311F0BB
:10091000579A089557980895662311F0249A0895D8
:1009200024980895662311F0259A0895259808952E
:10093000662311F0269A089526980895662311F0EB
:10094000879A089587980895662311F0869A0895E6
:1009500086980895662311F0859A089585980895DC
:10096000662311F0849A089584980895662311F0FF
:10097000819A089581980895662311F0809A0895C8
:1009800080980895662311F0549A08955498089514
:10099000662311F0559A089555980895662311F02D
:1009A0006E9A08956E98089590E08931910508F047
:1009B0009AC0FC01E159FF4F0C94D00B662311F053
:1009C000289A089528980895662311F0299A089581
:1009D00029980895662311F02A9A08952A9808956F
:1009E000662311F02B9A08952B980895662311F031
:1009F0002F9A08952F980895662311F0589A089514
:100A000058980895662311F0599A089559980895B1
:100A1000662311F05A9A08955A980895662311F0A2
:100A20005B9A08955B980895662311F0469A08959D
:100A300046980895662311F0479A089547980895B7
:100A4000662311F05E9A08955E980895662311F06A
:100A50005F9A08955F980895662311F02C9A08957F
:100A60002C980895662311F02D9A08952D980895D5
:100A7000662311F02E9A08952E980895662311F09A
:100A80008F9A08958F980895662311F08E9A08958D
:100A90008E980895662311F08D9A08958D98089583
:100AA000662311F08C9A08958C980895662311F0AE
:100AB000899A089589980895662311F0889A08956F
:100AC00088980895662311F05C9A08955C980895BB
:100AD000662311F05D9A08955D980895662311F0DC
:100AE000769A08957698089590E08931910508F0F6
:100AF0003FC0FC01E857FF4F0C94D00B83B109C0F5
:100B000083B10AC083B10BC083B10CC083B11BC0D9
:100B100089B18170089589B18270089589B1847016
:100B2000089589B18870089586B120C086B10BC040
:100B300089B11CC089B107C083B112C083B113C091
:100B400083B114C08FB1807808958FB10FC08FB179
:100B50000AC08FB105C08FB1DFCF8FB1DACF89B1B5
:100B60008071089589B1807208958CB18074089560
:100B700080E008951F93CF93DF9380EF80932C0242
:100B800010921302CEE0DFE019E0E0911302E530AD
:100B900008F04AC0F0E0EE51FE4F61E080810E9413
:100BA0003404E0911302F0E0EE51FE4F60E08081EA
:100BB0000E94D40410922002E0912002EE3060F5F1
:100BC000F0E0EC52FE4F80810E947405E091130228
:100BD00090912002CE9FD0011124AE5FBE4FA90F8D
:100BE000B11D882321F08C9187778C9305C08C915F
:100BF00088688C931093E901CE9FF0011124EE5F79
:100C0000FE4FE90FF11D80818E3E11F4D0932C022E
:100C10009F5F90932002D0CF0E94FB068091130229
:100C20008F5F80931302B1CF0E940F030E940703CE
:100C300010921302CEE080911302853008F088C034
:100C400010922002E091200280911302EE3008F011
:100C50007BC0F0E0C89FC0011124DC01AE5FBE4F35
:100C6000AE0FBF1F3C9120912C0223232D3009F49D
:100C70005AC0A8F42A30E1F148F4293009F05EC0E6
:100C8000AC01485B5E4FE40FF51F2EC02B30C9F15D
:100C90002C3009F053C0AC01485B5E4F3BC0203B99
:100CA000D1F050F4203991F0203A09F047C0825732
:100CB0009E4FE80FF91F21C0203C91F0203DF1F537
:100CC000AC0142575E4FE40FF51F32C082579E4F72
:100CD000E80FF91F09C082579E4FE80FF91F16C091
:100CE000AC0142575E4F16C080810E94190326C096
:100CF000AC01485B5E4FE40FF51F80810E94360314
:100D00001DC0AC01485B5E4FE40FF51F80810E945F
:100D1000010314C0E40FF51F808190E09093270237
:100D2000809326020BC09C01285B3E4FE20FF31F0D
:100D3000808190E090932902809328028091200284
:100D40008F5F809320027ECF8F5F8093130273CFDB
:100D50000E943C03882319F083E08093E8010E94FD
:100D60009203882319F083E08093E8018091E901E0
:100D7000893041F48091E801813021F40E9483039D
:100D80000E94C2038091E901813021F40E94830313
:100D90000E94C2038091E901882319F08150809359
:100DA000E9018091E801882319F081508093E801DE
:100DB000DF91CF911F9108950C9405081092320293
:100DC000E0913202EE30B0F4F0E0EC52FE4F60E021
:100DD00080810E943404E0913202F0E0EC52FE4F38
:100DE00061E080810E94D404809132028F5F809301
:100DF0003202E6CF089510923202E0913202E530DD
:100E0000B0F4F0E0EE51FE4F60E080810E943404C7
:100E1000E0913202F0E0EE51FE4F61E080810E94ED
:100E2000D404809132028F5F80933202E6CF08951E
:100E300010923202E0913202E23068F4F0E0E050C9
:100E4000FF4F60E080810E94D404809132028F5F66
:100E500080933202EFCF089510923202E091320275
:100E6000E23068F4F0E0E050FF4F61E080810E94E2
:100E7000D404809132028F5F80933202EFCF0895C5
:100E800010923202E0913202E230B0F4F0E0E05031
:100E9000FF4F61E080810E943404E0913202F0E073
:100EA000E050FF4F60E080810E94D40480913202C4
:100EB0008F5F80933202E6CF0E947D0B8FEF80938D
:100EC00045020E947F0B0C94930BCF93DF931092FB
:100ED0003202C1E0D0E0809132028230F0F4E82F9B
:100EE000F0E09E0102C0220F331F8A95E2F7809145
:100EF0000C0290E082239323E050FF4F281739071C
:100F000011F460E001C061E080810E94D40480910E
:100F100032028F5F80933202DECF809145028F3F95
:100F200009F069C090912E0280913102992311F04D
:100F3000855001C08B5F8093310290914602809171
:100F40003002992311F0835001C08D5F80933002ED
:100F500090912F0280912D02992311F0845001C0AD
:100F60008C5F80932D0280910C0282FF10C0C0E044
:100F7000D0E020912D024091300260913102CE01EB
:100F80000E94870B2196C630D10599F702C00E94B6
:100F90007F0B0E94930B8091450281508093450204
:100FA000209131022F3F19F481E080932E0290911D
:100FB00030029F3F19F481E08093460280912D0218
:100FC0008F3F19F431E030932F02263028F410922D
:100FD000310225E020932E02963028F41092300240
:100FE00095E090934602863068F410922D0285E0D9
:100FF00080932F0207C0882311F0815001C08FEF2A
:1010000080934502DF91CF91089580E8809361003D
:10101000109261000E9430040E9448080E946408F7
:1010200081110AC02FEF85EA9EE021508040904058
:10103000E1F700C00000F2CF0E94DE060E94FB062E
:10104000C1E00E944007C0931202C0930D020E94AB
:10105000EA012FEF89E698E1215080409040E1F7C6
:1010600000C000000E940F030E9407030E94660256
:1010700080910D02823029F38130C1F70E94BA05B8
:101080000E946507F3CF8091E80080FFFCCF0895B0
:1010900081E08093D70080EA8093D80082E189BD07
:1010A00009B400FEFDCF80E98093D8001092E000E3
:1010B0001092EC018CE08093E20078940E94DE02B2
:1010C0000E94C3020C94F2028091EC010895909169
:1010D000EC01911102C081E008959FB7F89430911E
:1010E000E400230F8093E9003091E80035FF03C04E
:1010F000FB0150E00CC09FBF9091EC01992359F384
:101100009091E400291739F39FB7F894EBCF9F0132
:10111000261B370B2417350724F48091F1008193A7
:10112000F6CF8AE38093E8009FBF80E00895909116
:10113000EC01911102C081E008959FB7F8943091BD
:10114000E400230F8093E9003091E80035FF03C0ED
:10115000FB0150E00CC09FBF9091EC01992359F323
:101160009091E400291739F39FB7F894EBCF9F01D2
:10117000261B370B2417350724F481918093F10047
:10118000F6CF8AE38093E8009FBF80E00895209126
:10119000EB012F5F822F62E30E94C40B992319F0A9
:1011A0002093EB0108951092EB018091E80085FFF8
:1011B00013C080911202882379F080910D0220E003
:1011C000811102C048E001C042E06DEE71E084E0B0
:1011D0000E9467088093120208951F920F920FB623
:1011E0000F9211242F933F934F935F936F937F93AD
:1011F0008F939F93AF93BF93EF93FF938091E10001
:101200001092E10083FF0FC01092E90091E09093EB
:10121000EB001092EC0092E09093ED0098E0909338
:10122000F0001092EC0182FF35C08091EC01882320
:1012300089F10E94C70890910E02992359F180917B
:10124000EA018F5F8093EA01837021F581E080934A
:10125000E9008091E80085FF1DC080910F028F5F3B
:1012600080930F02891316C010920F028091F5012E
:101270008093F1008091F6018093F100E7EFF1E0B7
:1012800081918093F10081E0ED3FF807C9F78AE38F
:101290008093E800FF91EF91BF91AF919F918F9163
:1012A0007F916F915F914F913F912F910F900FBE62
:1012B0000F901F9018951F920F920FB60F92112446
:1012C000EF92FF921F932F933F934F935F936F93F0
:1012D0007F938F939F93AF93BF93CF93DF93EF93BE
:1012E000FF931092E9008091E80083FFEDC1109117
:1012F000F1008091F100E090F1009091F100F12C6B
:10130000F92AC091F1009091F100D0E0D92B209101
:10131000F1009091F10032EF3093E800863009F04F
:10132000A1C0E11481E0F80639F4CD2B09F0CCC15D
:1013300082E14CEB52E067C0E114E2E0FE0639F4D2
:10134000CD2B09F0C1C18BE54CE751E05CC0E11445
:10135000F2E2FF0621F4209709F446C008C0E11428
:1013600081E2F806D1F4209709F442C004C0C230EB
:10137000D10529F441C0C230D10541F441C02197C3
:1013800009F0A2C184E849EF51E03DC0219709F07E
:101390009BC189E047EA51E036C0E114E3E0FE0674
:1013A00041F4C930D44009F08FC184E048E751E0EE
:1013B0002AC081E0E81683E0F80641F4C930D44041
:1013C00009F082C18CE04CE651E01DC0F2E0EF165E
:1013D000F3E0FF0609F078C1C930D44009F074C1C8
:1013E0008CE140E551E00FC08FE34DE752E00BC0C8
:1013F00089E04EE851E007C082E247ED51E003C0CA
:1014000089E040EC51E030E0392B2F3F310519F0F5
:1014100010F02FEF30E0682F70E02617370708F440
:10142000822F3EEF9091E8009570E1F39091E800F3
:1014300092FD4DC1982F893008F098E0FA01292FCC
:10144000222331F064916093F10021503196F8CF5E
:10145000490F511D891B3093E8008111E3CF98306B
:1014600009F335C1853051F48EEF8093E8000E9476
:1014700043088E2D80688093E30029C1893039F5B7
:1014800011116CC0E092EC018EEF8093E80041E016
:1014900082E491E04093E9009C012F5F3F4FFC0103
:1014A00054915093EB00552359F0F9012491209366
:1014B000EC009C012D5F3F4F3196E491E093ED00ED
:1014C0004F5F473011F0C901E5CF8EE742C0883049
:1014D00041F4103809F042C00E9443088091EC01A9
:1014E000E3C0811114C00E944308123851F4C09324
:1014F000E9008091EB0085FB882780F91092E900D4
:1015000001C080E08093F1001092F100D9C0982FC3
:101510009D7F913019F5123009F5E114F10409F0BD
:1015200065C02C2F2F779FEF920F963008F05EC08A
:101530009EEF9093E8002093E900833009F4C4C043
:1015400089E18093EB0081E090E001C0880F2A954B
:10155000EAF78093EA001092EA00B9C0209709F0F8
:1015600048C0113A29F58130A1F40E9443088091C6
:10157000F5018093F1008091F6018093F100E7EF8F
:10158000F1E081918093F10081E0ED3FF807C9F728
:1015900097C0823029F40E94430880910E0284C0D3
:1015A000833009F091C00E944308809110027CC0F2
:1015B000113209F089C0893061F48091E80082FF1E
:1015C000FCCF8091F10080930C028BEF8093E800B8
:1015D00077C08A3029F4F0920E0210920F0270C088
:1015E0008B3009F071C0E09210026AC0209709F4B4
:1015F0006BC0C230D10599F5113AF9F4813009F088
:1016000063C088E03EEF9091E800292F2570D9F360
:1016100092FD5DC0982F893008F098E0292F222391
:1016200021F01092F1002150FACF891B3093E8008D
:101630008111E9CF983039F34AC0113209F044C022
:101640008A30F1F1893009F03FC08091E80082FFD3
:10165000FCCF8BEF8093E8000E94430831C02197B4
:1016600099F5113A21F58130C9F40E94430880911F
:1016700014028093F100809115028093F100809113
:1016800016028093F100809117028093F1008091FF
:1016900018028093F1008091190206C08330A1F4F2
:1016A0000E94430880912A028093F10009C0113200
:1016B00059F48B3019F4E0922A0202C08A3021F4E6
:1016C0008EEF8093E80003C081E28093EB00FF91EE
:1016D000EF91DF91CF91BF91AF919F918F917F91CA
:1016E0006F915F914F913F912F911F91FF90EF90DC
:1016F0000F900FBE0F901F901895869A0895E3E300
:10170000F2E0119282E0E534F807D9F70895FC0180
:10171000EE0FFF1F8E0F9F1FFC01ED5CFD4F4083FE
:10172000618322830895F894E3E3F2E045E452E014
:1017300028E030E0808190E0022E02C095958795E8
:101740000A94E2F78E9A80FF0CC0000000000000AF
:1017500000000000000000000000000000008E9863
:101760000AC000008E980000000000000000000089
:1017700000000000000021503109E1F631964E17BB
:101780005F07B1F678940895991B79E004C0991F1A
:10179000961708F0961B881F7A95C9F780950895CB
:1017A000EE0FFF1F0590F491E02D0994F999FECFFB
:1017B00092BD81BDF89A992780B50895A8E1B0E05F
:1017C00042E050E00C94EB0B0E94F90B272F0C9495
:1017D000FA0BDC01CB01FC01F999FECF06C0F2BD8A
:1017E000E1BDF89A319600B40D9241505040B8F7DF
:1017F0000895262FF999FECF1FBA92BD81BD20BD55
:101800000FB6F894FA9AF99A0FBE01960895F894D3
:02181000FFCF08
:1018120012021111111111111111111111111111C4
:1018220011111111111111111111111111111113A4
:1018320013131010101010101010001122001111AB
:10184200111110101015150010112266220000113E
:101852000010110066221111353A3B3C3D3E3F40DB
:1018620041424344454C2B595A5B5C5D5E5F60616B
:1018720062565731390104020000000000000000E6
:101882000028020053474946000000EAE9000052DE
:1018920001000400002C000050000010514F291ECE
:1018A2001F20212223242526272D2E2A2B141A0815
:1018B20015171C180C12132F303139041607090A98
:1018C2000B0D0E0F3334002802001D1B06190511E3
:1018D20010363700385201000400002C0038500046
:1018E2000010514F1514180A090F1601040E0D0CA1
:0818F2000B03050607081700AF
:00000001FF
