:100000000C9468010C9485010C9485010C94850175
:100010000C9485010C9485010C9485010C94850148
:100020000C9485010C9485010C94430B0C946C0C7E
:100030000C9485010C9485010C9485010C94850128
:100040000C9485010C9485010C9485010C94850118
:100050000C9485010C9485010C9485010C94850108
:100060000C9485010C9485010C9485010C948501F8
:100070000C9485010C9485010C9485010C948501E8
:100080000C9485010C9485010C9485010C948501D8
:100090000C9485010C9485010C9485010C948501C8
:1000A0000C9485010C9485010C948501330643065C
:1000B0001F064B0629063B0615064F062E063F0671
:1000C0001A0647062406370610060B06F705010632
:1000D000ED050606F205FC05E805E305DF05E20689
:1000E000F206CE06FA06D806EA06C406FE06DD06C5
:1000F000EE06C906F606D306E606BF06BA06A6064B
:10010000B0069C06B506A106AB06970692068E06BB
:10011000840781077E077B077807750772076F07DB
:100120006C0769076607630760075D075A0757078B
:10013000540751074E074B074807450742073F073B
:10014000870701C10601C10601C10601C006000002
:100150001C037A00690061006E005F006B0065009F
:10016000790062006F006100720064000C037A0085
:10017000690061006E0031000403090409025B009C
:10018000030100A03209040000010301010009215C
:100190001101000122400007058103080001090444
:1001A0000100010301020009211101000122840064
:1001B0000705820308000109040200020300000091
:1001C0000921110100012222000705830308000113
:1001D000070504030800010631FF0974A101097530
:1001E000150026FF0095087508810209761500267E
:1001F000FF00950875089102C005010902A101855B
:10020000010901A10005091901290515002501753C
:1002100001950581027503950181030501093009E6
:10022000311581257F7508950281060938158125CC
:100230007F35004500750895018106050C0A3802D6
:100240001581257F750895018106C0C005010980CB
:10025000A1018502150126B700190129B77510956E
:10026000018100C0050C0901A10185031501269C2F
:100270000219012A9C02751095018100C00501092F
:1002800006A10175019508050719E029E715002564
:10029000018102950175088103950575010508190D
:1002A00001290591029501750391039506750815BD
:1002B0000026FF000507190029FF8100C012010078
:1002C0000200000008C432600200020102000100C6
:1002D00011241FBECFEFDAE0DEBFCDBF11E0A0E0FA
:1002E000B1E0ECE2FFE102C005900D92AC3EB10737
:1002F000D9F722E0ACEEB1E001C01D92AE38B207F2
:10030000E1F70E9422080C94940F0C940000AF9225
:10031000BF92CF92DF92EF92FF920F931F93CF93F2
:10032000DF9380E090E00E946B0F5C0182E090E040
:100330000E946B0F8C0184E090E00E946B0FEC0137
:1003400086E090E00E946B0F6C0188E090E00E94D4
:100350006B0F7C018AE0A816B10409F4B6C10F3016
:100360001105C1F06D9709F46CC0E3E6CE16D10417
:1003700009F4CBC0F9EAEF16F10409F438C1DF91B2
:10038000CF911F910F91FF90EF90DF90CF90BF9092
:10039000AF9008958FE090E00E94630F8093D801A2
:1003A00080E190E00E94630F8093D90181E190E0A9
:1003B0000E94630F8093DA0182E190E00E94630F54
:1003C0008093DB0183E190E00E94630F8093DC0166
:1003D00084E190E00E94630F8093DD0185E190E06D
:1003E0000E94630F8093DE0186E190E00E94630F1C
:1003F0008093DF0187E190E00E94630F8093E0012A
:1004000088E190E00E94630F8093E10189E190E030
:100410000E94630F8093E2018AE190E00E94630FE3
:100420008093E3018BE190E00E94630F8093E401ED
:100430008CE190E00E94630F8093E5016D9709F0D5
:1004400094CF0CE811E0C0E0D0E0CE014D960E94C0
:10045000630FF8018083CE014E960E94630FF8016E
:100460008183CE014F960E94630FF8018283CE01F3
:1004700080960E94630FF8018383CE0181960E94CB
:10048000630FF8018483CE0182960E94630FF80106
:100490008583CE0183960E94630FF8018683CE0187
:1004A00084960E94630FF8018783CE0185960E948F
:1004B000630FF8018087CE0186960E94630FF801D2
:1004C0008187CE0187960E94630FF8018287CE0153
:1004D00088960E94630FF8018387CE0189960E9457
:1004E000630FF8018487CE018A960E94630FF8019A
:1004F00085872E96025F1F4FC634D10509F0A5CF20
:10050000E3E6CE16D10409F035CF06E411E0C0E0F1
:10051000D0E0CE018D599F4F0E94630FF801808378
:10052000CE018C599F4F0E94630FF8018183CE0149
:100530008B599F4F0E94630FF8018283CE018A5925
:100540009F4F0E94630FF8018383CE0189599F4F0B
:100550000E94630FF8018483CE0188599F4F0E9447
:10056000630FF8018583CE0187599F4F0E94630F67
:10057000F8018683CE0186599F4F0E94630FF801D0
:100580008783CE0185599F4F0E94630FF8018087B2
:10059000CE0184599F4F0E94630FF8018187CE01DD
:1005A00083599F4F0E94630FF8018287CE018259C1
:1005B0009F4F0E94630FF8018387CE0181599F4F9F
:1005C0000E94630FF8018487CE0180599F4F0E94DB
:1005D000630FF80185872E96025F1F4FC634D10541
:1005E00009F097CFF9EAEF16F10409F0C8CE00E060
:1005F00011E0C0E0D0E0CE0187559F4F0E94630F0D
:10060000F8018083CE0186559F4F0E94630FF80149
:100610008183CE0185559F4F0E94630FF80182832D
:10062000CE0184559F4F0E94630FF8018383CE0152
:1006300083559F4F0E94630FF8018483CE0182553A
:100640009F4F0E94630FF8018583CE0181559F4F14
:100650000E94630FF8018683CE0180559F4F0E9450
:10066000630FF8018783CE018F549F4F0E94630F61
:10067000F8018087CE018E549F4F0E94630FF801CE
:100680008187CE018D549F4F0E94630FF8018287AE
:10069000CE018C549F4F0E94630FF8018387CE01D7
:1006A0008B549F4F0E94630FF8018487CE018A54B8
:1006B0009F4F0E94630FF80185872E96025F1F4FA0
:1006C000C634D10509F097CF5ACE8AE090E00E9457
:1006D000630F8093E6018BE090E00E94630F8093AC
:1006E000E7018CE090E00E94630F8093E8018DE0C9
:1006F00090E00E94630F8093E9018EE090E00E94F9
:10070000630F8093EA012BCECF93DF938091650234
:1007100081111BC0C0913802D0913902CF3F21EF27
:10072000D207B1F0CF3F82EFD80709F44AC08091D9
:1007300060028823B9F088E0E8E3F2E0DF011D926F
:100740008A95E9F781E080936502DF91CF91089562
:1007500080916002813009F43EC08111ECCF0E948B
:100760003F081DC00E943F08CE3FA3E0DA0748F4CF
:10077000F999FECF60913A0270913B02CE010E943E
:10078000710FCE0102968E3FB3E09B0740F4F999BA
:10079000FECF60913C0270913D020E94710FCE012C
:1007A00004968E3F23E0920718F00E944008C3CFC2
:1007B000F999FECF60913E0270913F020E94710F45
:1007C000F4CF809160028111B6CF0E94400882E090
:1007D00080936002B0CF10926002ADCFCF93DF93D1
:1007E0008CE0EDE7F2E0DF01C82F1D92CA95E9F732
:1007F000E6E6F2E0DF011D928A95E9F7A2E7B2E0B2
:100800008BE0ED0119928A95E9F781E0808392E00F
:10081000968393E0918719968C93DF91CF910895F9
:1008200088E0E0E5F2E0DF01982F1D929A95E9F764
:10083000E0E4F2E0DF011D928A95E9F7E8E5F2E0F5
:100840008DE0DF011D928A95E9F781E0808783873B
:100850008DE78187089588E0E8E4F2E0DF01982FD2
:100860001D929A95E9F7E8E3F2E0DF011D928A957F
:10087000E9F7089590E090937802809377020895C5
:10088000982F907F9039D9F038F0903C91F0903EBD
:1008900081F0903B71F00895903221F0903879F01A
:1008A0009111F9CF90E0926090937A02809379024F
:1008B000089590E090937A0280937902089590E0F1
:1008C000916090937A02809379020895E2E7F2E0D2
:1008D0009081892B80830895E2E7F2E010821682EE
:1008E000158210861782089586E0E9E5F2E0DF01BF
:1008F0001D928A95E9F71092580208959091590235
:10090000891711F120915A028217F1F030915B02A0
:100910008317D1F040915C028417B1F050915D02D1
:10092000851791F060915E02681771F0992371F05C
:100930002223A1F03323A9F04423B1F05523B9F0C9
:100940006623C1F080E0089581E0089520E030E062
:10095000F901E85AFD4F818381E0089521E030E0FC
:10096000F7CF22E030E0F4CF23E030E0F1CF24E015
:1009700030E0EECF25E030E0EBCFE8E5F2E090812B
:10098000892B808308958091580290914002981796
:10099000D1F18093400281E090915902209142026E
:1009A000291719F09093420281E090915A02209108
:1009B0004302291719F09093430281E090915B0262
:1009C00020914402291719F09093440281E09091FC
:1009D0005C0220914502291719F09093450281E0AD
:1009E00090915D0220914602291779F0909346027A
:1009F00090915E028091470298139093470281E0A4
:100A000080936402089580E0C7CF90915E022091A8
:100A100047022913F2CF8111F2CF08958091640229
:100A2000811102C081E008951092640222E348E03F
:100A300060E472E081E00C940E0B80917202909160
:100A40006702981729F18093670281E0209177026D
:100A50003091780240916D0250916E024217530717
:100A6000C9F030936E0220936D022091790230918B
:100A70007A02809170029091710282179307C9F0F7
:100A8000309371022093700283E080937C0208957A
:100A900080E0DCCF2091790230917A02409170029F
:100AA000509171024217530759F7882381F381E06F
:100AB000ECCF82E0EACFCF93DF9380917C0283700A
:100AC00080937C02811104C081E0DF91CF91089571
:100AD0000E940B0B8823C1F38FB7F894C091E400F8
:100AE000CE5C92E09093E9009091E80095FD14C0EF
:100AF000D2E00CC08091E400C81731F38FB7F894AE
:100B0000D093E9009091E80095FD06C08FBF0E9448
:100B10000B0B8111EFCFD8CF90917C02923099F1DD
:100B2000933011F19130D1F410927C0290916602D1
:100B30009093F100909167029093F1009091680278
:100B40009093F100909169029093F10090916A0264
:100B50009093F10090916B029093F1009AE390933F
:100B6000E8008FBF80E0B1CF10927C0290916F02BD
:100B70009093F100909170029093F1009091710226
:100B80009093F100EBCF10927C0290916C029093C5
:100B9000F10090916D029093F10090916E0290930C
:100BA000F100DCCF80E885BF85BF089590E08931F2
:100BB000910540F4FC01EA5AFF4F0C945D0F61115E
:100BC000A2C06E980895662309F46DC0559A0895E1
:100BD000662309F46AC0549A0895662309F46DC027
:100BE000859A0895662309F464C0819A089566235E
:100BF00009F467C0879A0895662309F458C0809A5B
:100C00000895662309F45BC0869A0895662309F463
:100C100052C0849A0895662309F455C0269A08950F
:100C2000662309F460C0259A0895662309F453C029
:100C3000519A0895662309F45EC03F9A0895662389
:100C400009F445C0229A0895662309F450C0579AC2
:100C50000895662309F443C0279A0895662309F48A
:100C60004EC0539A0895662381F1209A0895662311
:100C7000E1F1249A0895662381F1509A089566233C
:100C8000E1F13E9A0895662321F1219A08956623A1
:100C900081F1569A0895662321F1239A08956623D7
:100CA00081F1529A0895559808955498089580981E
:100CB0000895819808958498089585980895869850
:100CC0000895879808952698089520980895229861
:100CD0000895219808955198089550980895279857
:100CE000089523980895259808952498089557986D
:100CF0000895569808953F9808953E9808955398FA
:100D00000895529808956E9A089590E0893191055A
:100D100040F4FC01E159FF4F0C945D0F6111A2C03A
:100D200076980895662309F46DC05D9A0895662348
:100D300009F46AC05C9A0895662309F46DC08D9A1F
:100D40000895662309F464C0899A0895662309F416
:100D500067C08F9A0895662309F458C0889A089549
:100D6000662309F45BC08E9A0895662309F452C085
:100D70008C9A0895662309F455C02E9A0895662327
:100D800009F460C02D9A0895662309F453C0599A56
:100D90000895662309F45EC0479A0895662309F40E
:100DA00045C02A9A0895662309F450C05F9A0895B1
:100DB000662309F443C02F9A0895662309F44EC0B0
:100DC0005B9A0895662381F1289A08956623E1F1DC
:100DD0002C9A0895662381F1589A08956623E1F1CB
:100DE000469A0895662321F1299A0895662381F190
:100DF0005E9A0895662321F12B9A0895662381F166
:100E00005A9A08955D9808955C9808958898089571
:100E1000899808958C9808958D9808958E980895CE
:100E20008F9808952E980895289808952A980895DF
:100E30002998089559980895589808952F980895D5
:100E40002B9808952D9808952C9808955F980895EB
:100E50005E98089547980895469808955B98089578
:100E60005A980895769A089590E08931910510F086
:100E700080E00895FC01E857FF4F0C945D0F89B1A5
:100E80008072089589B1807108958FB1817008953D
:100E90008FB1827008958FB1807108958FB1807283
:100EA00008958FB1807408958FB18078089583B1CB
:100EB0008074089583B18072089583B1807108951C
:100EC00089B18078089589B18074089586B1807859
:100ED000089586B18074089589B18870089589B1A4
:100EE0008470089589B18270089589B181700895E0
:100EF00083B18078089583B18870089583B1847038
:100F0000089583B18270089583B1817008958CB182
:100F100080740895843031F090918A02892B8093F7
:100F20008A02089590914002992389F19091590283
:100F3000953391F320915A02253371F330915B027E
:100F4000353351F340915C02453331F350915D02EA
:100F5000553311F360915E026533F1F2992309F480
:100F600047C0222309F44AC0332309F450C0442364
:100F700009F453C0552309F453C06111CDCF25E0C6
:100F800030E0F901E85AFD4F95E39183C5CF909188
:100F90005902993209F220915A02293209F4BCCF40
:100FA00030915B02393209F4B7CF40915C0249328B
:100FB00009F4B2CF50915D02593209F4ADCF60917E
:100FC0005E02693209F4A8CF9923A9F02223C9F05F
:100FD0003323D1F04423F1F0552329F161119CCF43
:100FE00025E030E0F901E85AFD4F99E2918394CF72
:100FF00020E030E0C6CF20E030E0F4CF21E030E068
:10100000C0CF21E030E0EECF22E030E0EBCF22E0B5
:1010100030E0B7CF23E030E0E5CF23E030E0B1CFE0
:1010200024E030E0AECF24E030E0DCCF80918A02D3
:1010300090918B02981721F080938B0281E00895A4
:1010400080E008950C94990A80B38C7F80BB81B3B3
:10105000836081BB6E98769A8AB18F728AB98BB1A0
:10106000806D8BB987B18F7387B988B1806C88B96F
:1010700084B1847484B985B18B6B85B90895089562
:10108000089580B3836080BB81B38C7F81BB6E9AEF
:1010900076988AB1806D8AB98BB18F728BB987B11E
:1010A000806C87B988B18F7388B984B18B6B84B930
:1010B00085B1847485B9E091EE01F0E0EE52FE4F07
:1010C00061E080810E94850610928D024091EE01C0
:1010D00080E0242F30E01CC061E080810E94850602
:1010E0004091EE0180918D02242F30E09EE0499FD7
:1010F000F0011124E151FE4FE80FF11D9081992379
:1011000011F0915090838F5F80938D028E30D8F4D0
:1011100090E0220F331FF901EE0FFF1FEE0FFF1FAC
:10112000EE0FFF1FE21BF30BE151FE4FE80FF91F1B
:101130002081FC01E852FE4F2111CECF60E080817A
:101140000E948506CDCF80915F0280FF02C04423BC
:10115000D1F081FF04C09091EE019230E1F082FF66
:1011600009C08C9A8091EE018F5F853048F0109213
:10117000EE0108958C988091EE018F5F8530B8F76D
:101180008093EE01089561E08091E5010E9485065B
:1011900080915F02DECF61E08091D8010E948506D8
:1011A00080915F02DCCF1F93CF93DF9384B184647F
:1011B00084B985B18B7B85B980B3806F80BB81B3E7
:1011C0008F7181BB8AB1807D8AB98BB18F628BB9F7
:1011D00080B38C7F80BB81B3836081BB6E98769A2D
:1011E0008AB18F728AB98BB1806D8BB987B18F73D9
:1011F00087B988B1806C88B984B1847484B985B1A9
:101200008B6B85B980EF8093890210928C02E0E0AD
:10121000DCE6C9E01FE0F0E0EA51FE4F61E08081CA
:101220000E94D605E0918C02F0E0EA51FE4F60E0AA
:1012300080810E94850610928D02E0E012C0A0918C
:101240008C022EE0A29FD0011124A050BF4FAE0F00
:10125000B11D8C9187778C93EF5FE0938D02EE3018
:1012600058F5F0E0E852FE4F80810E943407E0918B
:101270008D028111E4CF90918C024E2F50E02EE030
:10128000929FC0011124DC01A050BF4FA40FB51FD5
:101290002C9128682C93C093ED0181519E4FDC0165
:1012A000A40FB51FDC932E3EB9F610938902EF5FB1
:1012B000E0938D02EE30A8F28AB1807D8AB98BB1BD
:1012C0008F628BB9E0918C02EF5FE0938C02E53086
:1012D00008F4A1CF0E9441080E9474040E946C048B
:1012E00010928A0210928C0240E010928D0290E0DF
:1012F0001DC0803B09F4CDC008F486C0803D09F4D0
:10130000BCC0803F09F4ACC0803C59F424573E4F28
:10131000E20FF31F80810E943A0440918C02909169
:101320008D029F5F90938D029E3070F5E92FF0E063
:101330008EE0489F90011124D901A050BF4FAE0FFD
:10134000BF1F5C918091890285238F3009F4BAC058
:1013500080F68B3009F46AC008F043C0893009F484
:1013600072C08A30F1F6A9014A5B5E4FE40FF51FA7
:1013700080810E94BD0440918C0290918D029F5FFC
:1013800090938D029E3090F24F5F40938C024530D7
:1013900008F4ABCF0E941608882319F083E08093ED
:1013A000EC010E94C304882319F083E08093EC01D0
:1013B0000E941D0581119FC08091ED01893009F4C3
:1013C000A2C0813009F4A7C09091EC0181119FC0A7
:1013D000992319F091509093EC01DF91CF911F91D7
:1013E00008958C3009F461C08D3009F09ACFA901BD
:1013F0004A5B5E4FE40FF51F80810E9440044091DC
:101400008C0290918D028DCF803909F468C0803AAA
:1014100009F087CF24573E4FE20FF31F80810E94CF
:10142000BD0440918C0290918D027BCFA9014A5B53
:101430005E4FE40FF51F80810E94660440918C028C
:1014400090918D026ECFA9014A5B5E4FE40FF51FAC
:1014500080810E947E0440918C0290918D0261CF28
:10146000A90144575E4FE40FF51F80810E948A074F
:1014700040918C0290918D0254CF24573E4FE20F41
:10148000F31F80810E94400440918C0290918D0254
:1014900048CF24573E4FE20FF31F80810E9466041D
:1014A00040918C0290918D023CCFA9014A5B5E4F26
:1014B000E40FF51F80810E943A0440918C029091C4
:1014C0008D022FCFC9018A5B9E4FE80FF91F8081E3
:1014D0000E948A0740918C0290918D0222CF24575E
:1014E0003E4FE20FF31F80810E947E0440918C02E8
:1014F00090918D0216CF83E08093EC018091ED01F5
:10150000893009F05ECF9091EC01913059F0815013
:101510008093ED015DCF0E940E050E945B058091D6
:10152000ED0152CF0E940E050E945B058091ED01F6
:1015300048CF80E880936100109261000E94D2053C
:101540000E94EA0A0E940B0B81110AC02FEF85EA64
:101550009EE0215080409040E1F700C00000F2CFB3
:101560000E9424088AB1807D8AB98BB18F628BB9C1
:1015700084B1846484B985B18B7B85B980B3806F75
:1015800080BB81B38F7181BBC1E0C0936502C09302
:1015900060020E9487012FEF89E698E12150804088
:1015A0009040E1F700C000000E9474040E946C04A7
:1015B00022E348E060E472E081E00E940E0B0E94AA
:1015C000840380916002823001F38130C1F70E9470
:1015D000D308F5CF81E08093D70080EA8093D800CC
:1015E00082E189BD09B400FEFDCF80E98093D80077
:1015F0001092E000109237028CE08093E200789421
:101600000E9410040E94EE030E942B0410928A0292
:1016100010928B02089580913702089590913702BD
:101620009923E9F09FB7F8943091E400230F809359
:10163000E9003091E80035FF0DC013C09091E4003F
:10164000291769F09FB7F8948093E9003091E8007A
:1016500035FD07C09FBF909137029111EFCF81E018
:101660000895442351F0FB019B01240F311D81910A
:101670008093F1002E173F07D1F78AE38093E800AB
:101680009FBF80E008951F920F920FB60F92112412
:101690002F933F934F938F939F938091E1001092EC
:1016A000E10083FF0FC01092E90091E09093EB00FE
:1016B0001092EC0092E09093ED0098E09093F0008F
:1016C0001092370282FF04C08091370281110AC054
:1016D0009F918F914F913F912F910F900FBE0F903F
:1016E0001F901895909136029F5F89E2989F812DF7
:1016F0001124869586958695392F22E3829F30198D
:101700001124832F311116C0109236029091E800F7
:1017100095FF12C090916502992371F020916002AB
:1017200021114AC08091370281114EC021E02093DF
:10173000650202C09093360290916102992341F2B2
:10174000809135028F5F80933502837009F0C0CF9E
:1017500081E08093E9008091E80085FFB9CF809116
:1017600062028F5F809362028913B2CF109262028D
:10177000809140028093F100809141028093F100BA
:10178000809142028093F100809143028093F100A6
:10179000809144028093F100809145028093F10092
:1017A000809146028093F100809147028093F1007E
:1017B0008AE38093E8008CCF90913702911154C056
:1017C00081E080936502B8CF8FB7F8943091E40040
:1017D00094E09093E9009091E80095FD20C08FBFC0
:1017E00080913702882309F4A1CF8091E400381753
:1017F00009F49CCF44E00BC08FBF8091370288234F
:1018000009F494CF8091E400381709F48FCF8FB793
:10181000F8944093E9009091E80095FFEDCF909106
:10182000F100909338029091F100909339029091D9
:10183000F10090933A029091F10090933B029091C5
:10184000F10090933C029091F10090933D029091B1
:10185000F10090933E029091F10090933F029AE341
:101860009093E8008FBF63CF9FB7F8943091E40066
:1018700024E02093E9002091E80025FD20C09FBFCF
:1018800090913702992309F49BCF9091E40093172C
:1018900009F496CF44E00BC09FBF90913702992383
:1018A00009F48ECF9091E400391709F489CF9FB7DE
:1018B000F8944093E9002091E80025FFEDCF2091B6
:1018C000F100209338022091F100209339022AE39D
:1018D0002093E8009FBF75CF1F920F920FB60F9213
:1018E00011242F933F934F935F936F937F938F9325
:1018F0009F93AF93BF93EF93FF931092E900809172
:10190000E80083FF38C07091F1004091F1008091B0
:10191000F1002091F10090E0922B2091F100509184
:10192000F10030E0352B6091F100E091F10052EFD1
:101930005093E800463099F1453009F43EC14930F2
:1019400009F47BC0483009F407C14111B5C1809149
:10195000E80080FFFCCF723809F484C180E08093F6
:10196000F1001092F1008EEF8093E80007C021157E
:10197000310509F00AC181E28093EB00FF91EF91FC
:10198000BF91AF919F918F917F916F915F914F9197
:101990003F912F910F900FBE0F901F9018958115BA
:1019A00041E0940709F455C18115F2E09F0709F45D
:1019B00063C1811542E2940709F425C18115F1E262
:1019C0009F0709F462C1811523E0920709F061C203
:1019D000A4E0B0E024E048E751E0862F90E09E2BA1
:1019E0008F3F910509F020F48A179B0708F4262FF2
:1019F0006EEF8091E8008570E1F38091E80082FD50
:101A0000BDCF322F293008F41FC138E0FA01832FEF
:101A100094919093F100815031968111F9CF8FEF1D
:101A2000830F90E00196480F591F231B6093E80035
:101A30002111DFCF3830E9F2A1CF71118FC080932F
:101A400037028EEF8093E80081E08093E900E2E4C2
:101A5000F1E0E491E093EB00EE2309F463C1E3E4E9
:101A6000F1E0E491E093EC00E4E4F1E0E491E09350
:101A7000ED0025E431E082E08093E900C9010196A0
:101A8000F90144914093EB00442351F0FC0184910F
:101A90008093EC00C9010396319624912093ED00C8
:101AA00023E02093E9009C012F5F3F4FFC0144910C
:101AB0004093EB00442359F0F90124912093EC006A
:101AC0009C012D5F3F4F319684918093ED0084E01F
:101AD0008093E900C9010196F90144914093EB001C
:101AE000442351F0FC0184918093EC00C9010396DA
:101AF000319624912093ED0025E02093E9009C018C
:101B00002F5F3F4FFC0144914093EB00442359F079
:101B1000F90124912093EC009C012D5F3F4F3196F9
:101B200084918093ED0086E08093E900C9010196DD
:101B3000F90144914093EB00442341F0FC0184916E
:101B40008093EC00319624912093ED008EE78093F2
:101B5000EA001092EA0012CF7038D1F12115310558
:101B6000A1F4713A09F4E1C0713209F004CF4930AF
:101B7000D9F14A3009F485C14B3009F0FCCE80938D
:101B800063028EEF8093E800F9CE2230310509F42C
:101B900044C02130310509F0EECE713A09F412C18A
:101BA000713209F0E8CE4B3009F465C14A3009F0D2
:101BB000E2CE8EEF8093E800E1CE2EEF2093E80096
:101BC0002091E80020FFFCCF80688093E300D6CE10
:101BD0008091E80080FFFCCF809137028093F10074
:101BE0008EEF8093E800CACE8091E80082FFFCCFA0
:101BF0008091F10080935F028BEF8093E8008EEF7D
:101C00008093E800BBCE2115310509F047C0A0E460
:101C1000B0E020E44DE752E0E0CE713A09F403C1B0
:101C2000713209F0A8CE4A3021F2493009F0A3CE32
:101C30008091E80082FFFCCF8BEF8093E8008091D9
:101C4000E80080FFFCCFB5CF2111E0CE6093E80023
:101C500095CE232B09F08FCEA2E1B0E022E14DEB2F
:101C600052E0BBCE2093E9008091EB0085FB8827F2
:101C700080F91092E90073CE232B09F07CCEABE5FE
:101C8000B0E02BE54CE751E0A8CE21153105E1F598
:101C9000A9E0B0E029E04EE851E09FCE22303105C6
:101CA00009F48AC02130310509F065CEA4E8B0E01E
:101CB00024E849EF51E091CE542F5D7F513009F077
:101CC0004DCF723009F04ACF009709F050CE522F15
:101CD0005F776FEF650F663008F049CE8EEF809327
:101CE000E8005093E900433009F445CE89E1809340
:101CF000EB0081E090E001C0880F5A95EAF78093ED
:101D0000EA001092EA003ACE2230310509F4ADC063
:101D10002130310509F02FCEA9E0B0E029E047EAF3
:101D200051E05BCE23E431E0A6CE413089F0423071
:101D3000B9F1433009F01FCE8091E80080FFFCCF5D
:101D4000809163028093F1008EEF8093E80016CEBD
:101D50008091E80080FFFCCF809140028093F100E9
:101D6000809141028093F100809142028093F100C2
:101D7000809143028093F100809144028093F100AE
:101D8000809145028093F100809146028093F1009A
:101D9000809147028093F1008EEF8093E800EECDB2
:101DA0008091E80080FFFCCF809161028093F10078
:101DB0008EEF8093E800E2CDA2E2B0E022E247EDB0
:101DC00051E00BCE413079F0433009F0D4CD809111
:101DD000E80080FFFCCF80917B028093F1008EEFC2
:101DE0008093E800CBCD8091E80080FFFCCF80910C
:101DF00066028093F100809167028093F1008091E8
:101E000068028093F100809169028093F1008091D3
:101E10006A028093F10080916B028093F1008EEF53
:101E20008093E800ABCD413009F0A5CD28E03EEF2E
:101E30008091E800982F9570D9F382FD9FCD922F65
:101E4000293070F098E0892F1092F1008150E1F76D
:101E5000291B3093E8002111EBCF983049F38ECD48
:101E60002111F1CF3093E80089CDA9E0B0E029E05D
:101E700040EC51E0B2CD80937B028EEF8093E8007E
:101E80007DCD90936102109262028EEF8093E80004
:101E900075CD813043E0940751F08230934009F0D2
:101EA0006ACDACE1B0E02CE140E551E096CDACE08C
:101EB000B0E02CE04CE651E090CDEE0FFF1F059016
:101EC000F491E02D0994F999FECF92BD81BDF89A65
:101ED000992780B50895A8E1B0E042E050E00C9465
:101EE000780F0E94860F272F0C94870FDC01CB01FF
:101EF000FC01F999FECF06C0F2BDE1BDF89A31961A
:101F000000B40D9241505040B8F70895262FF9992A
:101F1000FECF1FBA92BD81BD20BD0FB6F894FA9ACC
:0C1F2000F99A0FBE01960895F894FFCFC7
:101F2C001111111111111111111111111111111096
:101F3C00111010101010101010101011111111118F
:101F4C00101010101010101000112200111111118E
:101F5C00101010101010002222222200001100007C
:101F6C00000022226622353A3B3C3D3E3F40414236
:101F7C004344454C2B0052000000000000000000C0
:101F8C0000313950514F00000000000000000028C3
:101F9C0002005347494600000000000000200108E1
:101FAC000400002C0000000040800010291E1F209F
:101FBC00212223242526272D2E2A2B141A08151707
:101FCC001C180C12132F303139041607090A0B0D8B
:101FDC000E0F3334002802001D1B06190511103694
:101FEC003738002001080400002C0000000040805D
:101FFC0000100F12111002131514180A0904160000
:0C200C00010E0D0C0B0305060708170061
:00000001FF
