:100000000C9438010C9455010C9455010C94550135
:100010000C9455010C9455010C9455010C94550108
:100020000C9455010C9455010C948E050C94EA0522
:100030000C9455010C9455010C9455010C945501E8
:100040000C9455010C9455010C9455010C945501D8
:100050000C9455010C9455010C9455010C945501C8
:100060000C9455010C9455010C9455010C945501B8
:100070000C9455010C9455010C9455010C945501A8
:100080000C9455010C9455010C9455010C94550198
:100090000C9455010C9455010C9455010C94550188
:1000A0000C9455010C9455010C94550165016B019C
:1000B000710177017D01830189018F0195019B0108
:1000C000A101A701AD01B301B901BF01C501CB0178
:1000D000D101D701DD01E301E901EF01F5010502DD
:1000E0000B02110217021D02230229022F02350200
:1000F0003B02410247024D02530259025F02650270
:100100006B02710277027D02830289028F029502DF
:10011000A502A702A902AB02AD02AF02B202B5026C
:10012000B802BB02BD02BF02C102C302C502C702C0
:10013000C902CC02CE02D002D202D402D602D90227
:10014000DC020001000054021200020000B1014272
:100150000022000015023F00210000C30109002217
:100160000100F3012200210100DC01090003090460
:10017000AD0104010309049F010C0203090481017C
:100180001C1C037A00690061006E005F006B006553
:1001900000790062006F0061007200640000000CD2
:1001A000037A00690061006E003100000004030959
:1001B0000409024200020100A03209040000010308
:1001C000010100092101110001223F0007058103FF
:1001D00008000109040100020300000009210111C7
:1001E000000122220007058203080001070503031E
:1001F0000800010631FF0974A1010975150026FFE9
:10020000009508750881020976150026FF009508FB
:1002100075089102C005010906A10175019508053F
:100220000719E029E715002501810295017508816C
:1002300003950575010508190129059102950175B8
:10024000039103950675081500256805071900290F
:10025000688100C01201000200000020CCCC1434E0
:1002600000010102000101C10601C10601C0060032
:1002700011241FBECFEFDAE0DEBFCDBF11E0A0E05A
:10028000B1E0E8E7FFE002C005900D92A83EB1079B
:10029000D9F722E0A8EEB1E001C01D92AD33B2075C
:1002A000E1F70E94E1020C94BA070C94000080E888
:1002B00085BF85BF089590E08931910508F09AC007
:1002C000FC01EA5AFF4F0C94B407662311F0209A00
:1002D000089520980895662311F0219A0895219891
:1002E0000895662311F0229A0895229808956623AE
:1002F00011F0239A089523980895662311F0279A00
:10030000089527980895662311F0509A08955098FB
:100310000895662311F0519A08955198089566231F
:1003200011F0529A089552980895662311F0539A45
:10033000089553980895662311F03E9A08953E98C3
:100340000895662311F03F9A08953F980895662313
:1003500011F0569A089556980895662311F0579A09
:10036000089557980895662311F0249A08952498C3
:100370000895662311F0259A089525980895662317
:1003800011F0269A089526980895662311F0879A09
:10039000089587980895662311F0869A089586989F
:1003A0000895662311F0859A089585980895662327
:1003B00011F0849A089584980895662311F0819A23
:1003C000089581980895662311F0809A0895809881
:1003D0000895662311F0549A089554980895662359
:1003E00011F0559A089555980895662311F06E9A64
:1003F00008956E98089590E08931910508F09AC0AB
:10040000FC01E159FF4F0C94B407662311F0289AC0
:10041000089528980895662311F0299A0895299837
:100420000895662311F02A9A08952A98089566235C
:1004300011F02B9A08952B980895662311F02F9AA6
:1004400008952F980895662311F0589A08955898A2
:100450000895662311F0599A0895599808956623CE
:1004600011F05A9A08955A980895662311F05B9AEC
:1004700008955B980895662311F0469A089546986A
:100480000895662311F0479A0895479808956623C2
:1004900011F05E9A08955E980895662311F05F9AB0
:1004A00008955F980895662311F02C9A08952C986A
:1004B0000895662311F02D9A08952D9808956623C6
:1004C00011F02E9A08952E980895662311F08F9AB0
:1004D00008958F980895662311F08E9A08958E9846
:1004E0000895662311F08D9A08958D9808956623D6
:1004F00011F08C9A08958C980895662311F0899ACA
:10050000089589980895662311F0889A0895889827
:100510000895662311F05C9A08955C980895662307
:1005200011F05D9A08955D980895662311F0769A0A
:1005300008957698089590E08931910508F03FC0BC
:10054000FC01E857FF4F0C94B40783B109C083B195
:100550000AC083B10BC083B10CC083B11BC089B189
:100560008170089589B18270089589B18470089569
:1005700089B18870089586B120C086B10BC089B159
:100580001CC089B107C083B112C083B113C083B14D
:1005900014C08FB1807808958FB10FC08FB10AC099
:1005A0008FB105C08FB1DFCF8FB1DACF89B1807144
:1005B000089589B1807208958CB18074089580E0A7
:1005C00008950C94590410922802E0912802EE300C
:1005D000B0F4F0E0EC52FE4F60E080810E945B01DD
:1005E000E0912802F0E0EC52FE4F61E080810E9431
:1005F000FB01809128028F5F80932802E6CF089547
:1006000010922802E0912802E530B0F4F0E0EE51BB
:10061000FE4F60E080810E945B01E0912802F0E0E3
:10062000EE51FE4F61E080810E94FB018091280223
:100630008F5F80932802E6CF089510922802E09100
:100640002802E230B0F4F0E0EE52FE4F61E080812B
:100650000E945B01E0912802F0E0EE52FE4F60E064
:1006600080810E94FB01809128028F5F8093280285
:10067000E6CF0E946D078FEF80933C020E946F07C8
:100680000C9483070F931F93CF931092280201E0DD
:1006900010E0809128028230F0F4E82FF0E0980119
:1006A00002C0220F331F8A95E2F780910C0290E07E
:1006B00082239323EE52FE4F2817390711F460E08E
:1006C00001C061E080810E94FB01809128028F5F60
:1006D00080932802DECF80913C028F3FE1F480912D
:1006E0000C0282FF11C0C0E000E010E04C2F4095EA
:1006F0002C2F6C2FC8010E9477070F5F1F4FCE5C15
:100700000630110599F702C00E946F070E94830707
:1007100080913C0202C0882311F0815001C08FEF0C
:1007200080933C02CF911F910F910895CEE0D2E0CB
:1007300010E204E01092EA0110922702E0912702F1
:10074000E53008F04AC0F0E0EE51FE4F61E08081F4
:100750000E945B01E0912702F0E0EE51FE4F60E065
:1007600080810E94FB0110922902E0912902EE3063
:1007700060F5F0E0EC52FE4F80810E949B02E09118
:10078000270290912902CE9FD0011124A050BF4F83
:10079000A90FB11D882321F08C918E7F8C9305C009
:1007A0008C9181608C931093E901CE9FF00111240C
:1007B000E050FF4FE90FF11D8081813411F4D09397
:1007C000EA019F5F90932902D0CF0E94000380919D
:1007D00027028F5F80932702B1CF0E948A04109274
:1007E0002702809127028530F0F510922902E091CE
:1007F000290290912702EE3088F5F0E0C99FC001F0
:100800001124DC01A050BF4FAE0FBF1F3C912091BF
:10081000EA01232B213211F0233249F49C012457A1
:100820003E4FE20FF31F80810E94B10411C02131BD
:1008300031F49C0124573E4FE20FF31F06C02331D1
:1008400039F48A5B9E4FE80FF91F80810E9494045F
:10085000809129028F5F80932902C9CF81E0890F9F
:1008600080932702BECF0E944C0581110093E801BE
:100870008091E901803231F48091E801813011F4F6
:100880000E9412058091E901813011F40E94120545
:100890008091E901882319F081508093E9018091CA
:1008A000E801882319F081508093E8010E944203F7
:1008B00041CF80E880936100109261000E9457014F
:1008C0000E94F3040E940F0581110AC02FEF85EAF0
:1008D0009EE0215080409040E1F700C00000F2CF40
:1008E0000E94E3020E9400030E941D032FEF89E68D
:1008F00098E1215080409040E1F700C000000E9444
:100900008A040E9412050E9496038091E80080FFED
:10091000FCCF0895E5E0F2E0118212821382148286
:100920001582168210820895A6E0B2E0FD01919131
:100930009817A9F092E0EC30F907C9F720E030E011
:100940009D91911105C0F901EB5FFD4F818307C0B7
:100950002F5F3F4F2630310599F780E0089581E001
:100960000895E5E0F2E09081892B80830895CF938C
:10097000DF93E1E1F2E08DE0DF011D928A95E9F776
:1009800089E0AEE1B2E0ED0119928A95E9F781E0E4
:10099000818382E0878383E08287DF91CF9108950E
:1009A00088E0E5EFF1E0DF011D928A95E9F7E5E0E7
:1009B000F2E08CE0DF011D928A95E9F781E0808703
:1009C00083878DE78187089588E0EDEFF1E0DF010F
:1009D000982F1D929A95E9F7EDEEF1E0DF011D9257
:1009E0008A95E9F7089581E08093D70080EA8093A3
:1009F000D80082E189BD09B400FEFDCF80E9809373
:100A0000D8001092E0001092EC018CE08093E2009C
:100A100078940E94D0040E94B7040C94E40480915E
:100A2000EC0108958091EC01811102C081E00895EC
:100A30008FB7F89491E09093E9009091E4009E5C68
:100A400021E03091E80035FD0EC08FBF8091EC01B0
:100A5000882361F38091E400981741F38FB7F894ED
:100A60002093E900EECF9091F5019093F1009091E1
:100A7000F6019093F100E7EFF1E091919093F1008E
:100A800091E0ED3FF907C9F79AE39093E8001092DF
:100A90000F028FBF80E00895809105029091F501CB
:100AA000981721F08093F50181E001C080E09091DA
:100AB00006022091F701291719F09093F70181E0C0
:100AC000909107022091F801291719F09093F801ED
:100AD00081E0909108022091F901291719F0909373
:100AE000F90181E0909109022091FA01291719F08A
:100AF0009093FA0181E090910A022091FB0129175D
:100B000019F09093FB0181E090910B022091FC0180
:100B1000291719F09093FC0181E008951F920F921C
:100B20000FB60F9211248F939F93EF93FF938091B1
:100B3000E1001092E10083FF0FC01092E90091E004
:100B40009093EB001092EC0092E29093ED0098E00D
:100B50009093F0001092EC0182FF33C08091EC0181
:100B6000882379F190910E02992359F18091EB013C
:100B70008F5F8093EB01837021F581E08093E90022
:100B80008091E80085FF1DC080910F028F5F8093E8
:100B90000F02891316C010920F028091F501809305
:100BA000F1008091F6018093F100E7EFF1E081918F
:100BB0008093F10081E0ED3FF807C9F78AE3809365
:100BC000E800FF91EF919F918F910F900FBE0F90D2
:100BD0001F9018951F920F920FB60F921124FF923B
:100BE0000F931F932F933F934F935F936F937F9335
:100BF0008F939F93AF93BF93CF93DF93EF93FF9325
:100C00001092E9008091E80083FF4EC1F090F1005E
:100C10008091F1000091F1009091F10010E0192B0A
:100C2000C091F1009091F100D0E0D92B2091F1001A
:100C30006091F10092EF9093E800863009F048C08F
:100C400082E491E0FC014591549104171507D9F411
:100C5000FC01329645915491C417D507A1F4FC01CB
:100C6000349645915491FC013696849130E0362BB0
:100C70002F3F310519F010F02FEF30E0281708F45E
:100C8000822F3EEF0DC0079631E081389307D1F6F1
:100C90000BC1490F511D891B3093E8008823A9F02F
:100CA0009091E800292F2570D9F392FD00C1982F6B
:100CB000813208F090E2FA01292F222351F3649146
:100CC0006093F10021503196F8CF903249F3EFC094
:100CD000853049F48EEF8093E8000E948504006817
:100CE0000093E300E4C0893039F5F1106CC0009343
:100CF000EC018EEF8093E80041E086E692E04093BD
:100D0000E9009C012F5F3F4FFC0154915093EB0091
:100D1000552359F0F90124912093EC009C012D5F9B
:100D20003F4F3196E491E093ED004F5F453011F075
:100D3000C901E5CF8EE142C0883041F4F0E8FF12EE
:100D400042C00E9485048091EC0168C0811115C0E9
:100D50000E94850432E8F3120AC0C093E900809132
:100D6000EB0085FB882780F91092E90001C080E044
:100D70008093F1001092F10093C0982F9D7F9130E5
:100D800011F592E0F9121FC0012B09F08DC0CF7749
:100D90009FEF9C0F943008F087C09EEF9093E8007F
:100DA000C093E900833009F47FC089E18093EB00B0
:100DB00081E090E001C0880FCA95EAF78093EA00CD
:100DC0001092EA0074C0209709F048C0E1EAFE12D0
:100DD00028C08130A9F40E9485048091F501809398
:100DE000F1008091F6018093F100E7EFF1E08DEFE3
:100DF00091E021912093F1008E179F07D1F750C009
:100E0000823029F40E94850480910E0207C083304D
:100E100009F04AC00E948504809110028093F1007D
:100E20003FC0F1E2FF1240C0893061F48091E800D8
:100E300082FFFCCF8091F10080930C028BEF8093B6
:100E4000E8002EC08A3029F410930E0210920F028F
:100E500027C08B3049F50093100222C0219721F55D
:100E600031EAF3120FC08130F9F48091E800982F35
:100E70009570D9F382FD1BC088E01092F10081507B
:100E8000E1F70EC091E2F9120FC0893069F4809148
:100E9000E80082FFFCCF8BEF8093E8000E9485047E
:100EA0008EEF8093E80003C081E28093EB00FF9116
:100EB000EF91DF91CF91BF91AF919F918F917F91F2
:100EC0006F915F914F913F912F911F910F91FF90E3
:100ED0000F900FBE0F901F901895869A0895EAE222
:100EE000F2E0119282E0EC33F807D9F70895FC01A3
:100EF000EE0FFF1F8E0F9F1FFC01E65DFD4F40832D
:100F0000618322830895F894EAE2F2E04CE352E030
:100F100028E030E0808190E0022E02C09595879510
:100F20000A94E2F78E9A80FF0CC0000000000000D7
:100F300000000000000000000000000000008E988B
:100F40000AC000008E9800000000000000000000B1
:100F500000000000000021503109E1F631964E17E3
:100F60005F07B1F678940895EE0FFF1F0590F49196
:080F7000E02D0994F894FFCF75
:100F78001010101010101010101010101010101069
:100F88001010101010101010101010101010101059
:100F98001010101010101010001020001010101059
:100FA8001010101010001010204020000010001029
:100FB800100040201010353A3B3C3D3E3F40414236
:100FC8004344454C2B595A5B5C5D5E5F60616256D9
:100FD8005731390000000000000000000000002820
:100FE800020053474946000000000000005201007B
:100FF8000400002C000050000010514F291E1F2033
:10100800212223242526272D2E2A2B141A081517CA
:101018001C180C12132F303139041607090A0B0D4E
:101028000E0F3334002802001D1B06190511103657
:101038003700385201000400002C0038500000101E
:10104800514F12021514180A090F1601040E0D0C3F
:081058000B0305060708170051
:00000001FF
