:100000000C9468010C9485010C9485010C94850175
:100010000C9485010C9485010C9485010C94850148
:100020000C9485010C9485010C940B0A0C94340BF0
:100030000C9485010C9485010C9485010C94850128
:100040000C9485010C9485010C9485010C94850118
:100050000C9485010C9485010C9485010C94850108
:100060000C9485010C9485010C9485010C948501F8
:100070000C9485010C9485010C9485010C948501E8
:100080000C9485010C9485010C9485010C948501D8
:100090000C9485010C9485010C9485010C948501C8
:1000A0000C9485010C9485010C94850105061506B8
:1000B000F1051D06FB050D06E705210600061106E4
:1000C000EC051906F6050906E205DD05C905D305A7
:1000D000BF05D805C405CE05BA05B505B105B406FA
:1000E000C406A006CC06AA06BC069606D006AF0635
:1000F000C0069B06C806A506B80691068C067806BB
:1001000082066E06870673067D066906640660062B
:100110005607530750074D074A074707440741074B
:100120003E073B073807350732072F072C072907FB
:100130002607230720071D071A07170714071107AB
:10014000590701C10601C10601C10601C006000030
:100150001C037A00690061006E005F006B0065009F
:10016000790062006F006100720064000C037A0085
:10017000690061006E0031000403090409025B009C
:10018000030100A03209040000010301010009215C
:100190001101000122400007058103080001090444
:1001A0000100010301020009211101000122840064
:1001B0000705820308000109040200020300000091
:1001C0000921110100012222000705830308000113
:1001D000070504030800010631FF0974A101097530
:1001E000150026FF0095087508810209761500267E
:1001F000FF00950875089102C005010902A101855B
:10020000010901A10005091901290515002501753C
:1002100001950581027503950181030501093009E6
:10022000311581257F7508950281060938158125CC
:100230007F35004500750895018106050C0A3802D6
:100240001581257F750895018106C0C005010980CB
:10025000A1018502150126B700190129B77510956E
:10026000018100C0050C0901A10185031501269C2F
:100270000219012A9C02751095018100C00501092F
:1002800006A10175019508050719E029E715002564
:10029000018102950175088103950575010508190D
:1002A00001290591029501750391039506750815BD
:1002B0000026FF000507190029FF8100C012010078
:1002C0000200000008CCCC1534000201020001003D
:1002D00011241FBECFEFDAE0DEBFCDBF11E0A0E0FA
:1002E000B1E0E4EDFCE102C005900D92AA3FB10738
:1002F000D9F722E0AAEFB1E001C01D92A134B20704
:10030000E1F70E945C070C94680E0C940000AF9219
:10031000BF92CF92DF92EF92FF920F931F93CF93F2
:10032000DF9380E090E00E943F0E5C0182E090E06D
:100330000E943F0E8C0184E090E00E943F0EEC0191
:1003400086E090E00E943F0E6C0188E090E00E9401
:100350003F0E7C018AE0A816B10409F4B6C10F3043
:100360001105C1F06D9709F46CC0E3E6CE16D10417
:1003700009F4CBC0F9EAEF16F10409F438C1DF91B2
:10038000CF911F910F91FF90EF90DF90CF90BF9092
:10039000AF9008958FE090E00E94370E8093E601C1
:1003A00080E190E00E94370E8093E70181E190E0C8
:1003B0000E94370E8093E80182E190E00E94370EA0
:1003C0008093E90183E190E00E94370E8093EA0177
:1003D00084E190E00E94370E8093EB0185E190E08C
:1003E0000E94370E8093EC0186E190E00E94370E68
:1003F0008093ED0187E190E00E94370E8093EE013B
:1004000088E190E00E94370E8093EF0189E190E04F
:100410000E94370E8093F0018AE190E00E94370E2F
:100420008093F1018BE190E00E94370E8093F201FE
:100430008CE190E00E94370E8093F3016D9709F0F4
:1004400094CF0CE811E0C0E0D0E0CE014D960E94C0
:10045000370EF8018083CE014E960E94370EF801C8
:100460008183CE014F960E94370EF8018283CE0120
:1004700080960E94370EF8018383CE0181960E94F8
:10048000370EF8018483CE0182960E94370EF80160
:100490008583CE0183960E94370EF8018683CE01B4
:1004A00084960E94370EF8018783CE0185960E94BC
:1004B000370EF8018087CE0186960E94370EF8012C
:1004C0008187CE0187960E94370EF8018287CE0180
:1004D00088960E94370EF8018387CE0189960E9484
:1004E000370EF8018487CE018A960E94370EF801F4
:1004F00085872E96025F1F4FC634D10509F0A5CF20
:10050000E3E6CE16D10409F035CF06E411E0C0E0F1
:10051000D0E0CE018D599F4F0E94370EF8018083A5
:10052000CE018C599F4F0E94370EF8018183CE0176
:100530008B599F4F0E94370EF8018283CE018A5952
:100540009F4F0E94370EF8018383CE0189599F4F38
:100550000E94370EF8018483CE0188599F4F0E9474
:10056000370EF8018583CE0187599F4F0E94370EC1
:10057000F8018683CE0186599F4F0E94370EF801FD
:100580008783CE0185599F4F0E94370EF8018087DF
:10059000CE0184599F4F0E94370EF8018187CE010A
:1005A00083599F4F0E94370EF8018287CE018259EE
:1005B0009F4F0E94370EF8018387CE0181599F4FCC
:1005C0000E94370EF8018487CE0180599F4F0E9408
:1005D000370EF80185872E96025F1F4FC634D1056E
:1005E00009F097CFF9EAEF16F10409F0C8CE00E060
:1005F00011E0C0E0D0E0CE0187559F4F0E94370E3A
:10060000F8018083CE0186559F4F0E94370EF80176
:100610008183CE0185559F4F0E94370EF80182835A
:10062000CE0184559F4F0E94370EF8018383CE017F
:1006300083559F4F0E94370EF8018483CE01825567
:100640009F4F0E94370EF8018583CE0181559F4F41
:100650000E94370EF8018683CE0180559F4F0E947D
:10066000370EF8018783CE018F549F4F0E94370EBB
:10067000F8018087CE018E549F4F0E94370EF801FB
:100680008187CE018D549F4F0E94370EF8018287DB
:10069000CE018C549F4F0E94370EF8018387CE0104
:1006A0008B549F4F0E94370EF8018487CE018A54E5
:1006B0009F4F0E94370EF80185872E96025F1F4FCD
:1006C000C634D10509F097CF5ACE8AE090E00E9457
:1006D000370E8093F4018BE090E00E94370E8093F8
:1006E000F5018CE090E00E94370E8093F6018DE0DA
:1006F00090E00E94370E8093F7018EE090E00E9418
:10070000370E8093F8012BCECF93DF938091250293
:1007100081111BC0C0910002D0910102CF3F21EF97
:10072000D207B1F0CF3F82EFD80709F44AC08091D9
:1007300020028823B9F088E0E0E0F2E0DF011D92BA
:100740008A95E9F781E080932502DF91CF910895A2
:1007500080912002813009F43EC08111ECCF0E94CB
:1007600079071DC00E947907CE3FA3E0DA0748F45D
:10077000F999FECF6091020270910302CE010E94AE
:10078000450ECE0102968E3FB3E09B0740F4F999E7
:10079000FECF60910402709105020E94450ECE01C9
:1007A00004968E3F23E0920718F00E947A07C3CF89
:1007B000F999FECF60910602709107020E94450EE2
:1007C000F4CF809120028111B6CF0E947A0782E097
:1007D00080932002B0CF10922002ADCFCF93DF9351
:1007E000E6E2F2E08CE0DF011D928A95E9F7A2E3F0
:1007F000B2E08BE0ED0119928A95E9F781E0808300
:1008000092E0968393E0918719968C93DF91CF9134
:10081000089588E0E8E0F2E0DF011D928A95E9F7AB
:10082000E8E1F2E08DE0DF011D928A95E9F781E0D1
:10083000808783878DE78187089588E0E0E1F2E093
:10084000DF01982F1D929A95E9F7E0E0F2E0DF01D1
:100850001D928A95E9F7089590E09093380280936D
:100860003702089590E090933A02809339020895F8
:10087000E2E3F2E09081892B80830895E2E3F2E0E5
:1008800010821682158210861782089586E0E9E1AB
:10089000F2E0DF011D928A95E9F71092180208959F
:1008A00090911902891711F120911A028217F1F023
:1008B00030911B028317D1F040911C028417B1F0D4
:1008C00050911D02851791F060911E02681771F01A
:1008D000992371F02223A1F03323A9F04423B1F02E
:1008E0005523B9F06623C1F080E0089581E00895B2
:1008F00020E030E0F901E85EFD4F818381E008955A
:1009000021E030E0F7CF22E030E0F4CF23E030E028
:10091000F1CF24E030E0EECF25E030E0EBCFE8E1AE
:10092000F2E09081892B8083089580911802909144
:1009300008029817D1F18093080281E09091190282
:1009400020910A02291719F090930A0281E09091F0
:100950001A0220910B02291719F090930B0281E0E3
:1009600090911B0220910C02291719F090930C0210
:1009700081E090911C0220910D02291719F09093AB
:100980000D0281E090911D0220910E02291779F04D
:1009900090930E0290911E0280910F0298139093F3
:1009A0000F0281E080932402089580E0C7CF9091E8
:1009B0001E0220910F022913F2CF8111F2CF089568
:1009C00080912402811102C081E0089510922402D6
:1009D00022E348E068E072E081E00C94D60980915F
:1009E000320290912702981729F18093270281E023
:1009F000209137023091380240912D0250912E0201
:100A000042175307C9F030932E0220932D022091F4
:100A1000390230913A02809130029091310282176E
:100A20009307C9F0309331022093300283E0809322
:100A30003C02089580E0DCCF2091390230913A02E7
:100A400040913002509131024217530759F78823E1
:100A500081F381E0ECCF82E0EACFCF93DF93809106
:100A60003C02837080933C02811104C081E0DF91DD
:100A7000CF9108950E94D3098823C1F38FB7F894CA
:100A8000C091E400CE5C92E09093E9009091E80080
:100A900095FD14C0D2E00CC08091E400C81731F37A
:100AA0008FB7F894D093E9009091E80095FD06C0C7
:100AB0008FBF0E94D3098111EFCFD8CF90913C0214
:100AC000923099F1933011F19130D1F410923C02AF
:100AD000909126029093F100909127029093F1005B
:100AE000909128029093F100909129029093F10047
:100AF00090912A029093F10090912B029093F10033
:100B00009AE39093E8008FBF80E0B1CF10923C024F
:100B100090912F029093F100909130029093F10008
:100B2000909131029093F100EBCF10923C029091A2
:100B30002C029093F10090912D029093F1009091EE
:100B40002E029093F100DCCF80E885BF85BF089529
:100B500090E08931910540F4FC01EA5AFF4F0C9472
:100B6000310E6111A2C06E980895662309F46DC01C
:100B7000559A0895662309F46AC0549A0895662325
:100B800009F46DC0859A0895662309F464C0819ABA
:100B90000895662309F467C0879A0895662309F4C7
:100BA00058C0809A0895662309F45BC0869A089518
:100BB000662309F452C0849A0895662309F455C047
:100BC000269A0895662309F460C0259A089566233D
:100BD00009F453C0519A0895662309F45EC03F9A00
:100BE0000895662309F445C0229A0895662309F4FE
:100BF00050C0579A0895662309F443C0279A089570
:100C0000662309F44EC0539A0895662381F1209A11
:100C100008956623E1F1249A0895662381F1509A9C
:100C200008956623E1F13E9A0895662321F1219A01
:100C30000895662381F1569A0895662321F1239A37
:100C40000895662381F1529A08955598089554980D
:100C500008958098089581980895849808958598B6
:100C6000089586980895879808952698089520985D
:100C700008952298089521980895519808955098BC
:100C800008952798089523980895259808952498FD
:100C9000089557980895569808953F9808953E9856
:100CA000089553980895529808956E9A089590E083
:100CB0008931910540F4FC01E159FF4F0C94310E4C
:100CC0006111A2C076980895662309F46DC05D9AFB
:100CD0000895662309F46AC05C9A0895662309F4AE
:100CE0006DC08D9A0895662309F464C0899A0895A9
:100CF000662309F467C08F9A0895662309F458C0E3
:100D0000889A0895662309F45BC08E9A0895662335
:100D100009F452C08C9A0895662309F455C02E9A9E
:100D20000895662309F460C02D9A0895662309F496
:100D300053C0599A0895662309F45EC0479A0895EE
:100D4000662309F445C02A9A0895662309F450C021
:100D50005F9A0895662309F443C02F9A0895662385
:100D600009F44EC05B9A0895662381F1289A08958C
:100D70006623E1F12C9A0895662381F1589A08952B
:100D80006623E1F1469A0895662321F1299A089590
:100D9000662381F15E9A0895662321F12B9A0895C6
:100DA000662381F15A9A08955D9808955C98089594
:100DB00088980895899808958C9808958D98089535
:100DC0008E9808958F9808952E98089528980895DC
:100DD0002A9808952998089559980895589808953B
:100DE0002F9808952B9808952D9808952C9808957C
:100DF0005F9808955E9808954798089546980895D5
:100E00005B9808955A980895769A089590E08931EC
:100E1000910510F080E00895FC01E857FF4F0C9415
:100E2000310E89B18072089589B1807108958FB1B2
:100E3000817008958FB1827008958FB18071089587
:100E40008FB1807208958FB1807408958FB18078CA
:100E5000089583B18074089583B18072089583B139
:100E60008071089589B18078089589B1807408955A
:100E700086B18078089586B18074089589B18870AC
:100E8000089589B18470089589B18270089589B1F7
:100E90008170089583B18078089583B18870089532
:100EA00083B18470089583B18270089583B1817095
:100EB00008958CB1807408950C94660980B38C7F7A
:100EC00080BB81B3836081BB6E98769A8AB18F7242
:100ED0008AB98BB1806D8BB987B18F7387B988B1AF
:100EE000806C88B984B1847484B985B18B6B85B901
:100EF000089508950895CF93DF9380B38C7F80BBCE
:100F000081B3836081BB6E98769A8AB18F728AB9F9
:100F10008BB1806D8BB987B18F7387B988B1806CC5
:100F200088B984B1847484B985B18B6B85B98AB171
:100F3000807D8AB98BB18F628BB984B1846484B9A6
:100F400085B18B7B85B980B3806F80BB81B38F7097
:100F500081BB80EF80933D0210923E02E0E0C9E049
:100F6000DFE0F0E0EC50FE4F61E080810E94A805D8
:100F7000E0913E02F0E0EC50FE4F60E080810E9484
:100F8000570610924002E0E010C03EE0A39FD0015F
:100F90001124A050BF4FAE0FB11D8C9187778C9359
:100FA000EF5FE0934002EE3010F5F0E0EA51FE4FC3
:100FB00080810E940607E0914002A0913E028111CB
:100FC000E4CF8EE0A89FD0011124A050BF4FAE0FF8
:100FD000B11D8C9188688C93C093FB018E3E01F704
:100FE000D0933D02EF5FE0934002EE30F0F28AB121
:100FF000807D8AB98BB18F628BB9E0913E02EF5F41
:10100000E0933E02E53008F4ACCF80B3836080BB50
:1010100081B38C7F81BB6E9A76988AB1806D8AB9D4
:101020008BB18F728BB987B1806C87B988B18F73A0
:1010300088B984B18B6B84B985B1847485B98AB160
:10104000807D8AB98BB18F628BB984B1846484B995
:1010500085B18B7B85B980B3806F80BB81B38F7086
:1010600081BBE091FC01F0E0E052FE4F61E0808145
:101070000E9457061092400280E00BC061E0808120
:101080000E945706809140028F5F809340028E300D
:10109000E8F490E020913E02FC013EE0239FE00D49
:1010A000F11D1124E050FF4F20812878FC01EE5201
:1010B000FE4F2111E3CF60E080810E9457068091AE
:1010C00040028F5F809340028E3018F38091FC01C4
:1010D0008F5F8093FC01853010F01092FC010E941C
:1010E00046040E943E0410923E0240E010924002EC
:1010F00090E01AC0803B09F4A9C008F06BC08039A9
:1011000009F48BC0803A59F424573E4FE20FF31F85
:1011100080810E948F0440913E02909140029F5F27
:10112000909340029E3070F5E92FF0E08EE0489FEA
:1011300090011124D901A050BF4FAE0FBF1F5C9189
:1011400080913D0285238D3009F473C098F68A3072
:1011500009F495C008F451C08B3009F483C08C3079
:10116000F1F6A9014A5B5E4FE40FF51F80810E94F2
:101170002C0440913E02909140029F5F9093400268
:101180009E3090F24F5F40933E02453008F4AECF60
:101190000E949504882319F083E08093FA010E944D
:1011A000EF04882319F083E08093FA018091FB011A
:1011B000893009F475C0813009F47AC09091FA0140
:1011C000811172C0992319F091509093FA01DF9127
:1011D000CF910895803C09F45FC0803D09F09FCF16
:1011E000A90144575E4FE40FF51F80810E9432042D
:1011F00040913E029091400292CF893009F08FCF0A
:10120000A9014A5B5E4FE40FF51F80810E945004E4
:1012100040913E029091400282CF24573E4FE20F10
:10122000F31F80810E94500440913E029091400241
:1012300076CFC9018A5B9E4FE80FF91F80810E941B
:10124000320440913E029091400269CF24573E4FB4
:10125000E20FF31F80810E94380440913E0290917A
:1012600040025DCFA9014A5B5E4FE40FF51F80810C
:101270000E94380440913E029091400250CFA90153
:101280004A5B5E4FE40FF51F80810E948F044091FE
:101290003E029091400243CFA90144575E4F64CF74
:1012A0009091FA01913059F081508093FB018ACFDF
:1012B0000E94E0040E942D058091FB017FCF0E94D7
:1012C000E0040E942D058091FB0175CF80E880939A
:1012D0006100109261000E94A4050E94B7090E945B
:1012E000D30981110AC02FEF85EA9EE0215080408A
:1012F0009040E1F700C00000F2CF0E945E078AB183
:10130000807D8AB98BB18F628BB984B1846484B9D2
:1013100085B18B7B85B980B3806F80BB81B38F70C3
:1013200081BBC1E0C0932502C09320020E948701C7
:101330002FEF89E698E1215080409040E1F700C00E
:1013400000000E9446040E943E0422E348E068E058
:1013500072E081E00E94D6090E94840380912002FD
:10136000823001F38130C1F70E947B07F5CF81E025
:101370008093D70080EA8093D80082E189BD09B4C8
:1013800000FEFDCF80E98093D8001092E00010921B
:10139000FF018CE08093E20078940E9409040E948F
:1013A000EE030C941D048091FF0108959091FF01BC
:1013B0009923E9F09FB7F8943091E400230F8093CC
:1013C000E9003091E80035FF0DC013C09091E400B2
:1013D000291769F09FB7F8948093E9003091E800ED
:1013E00035FD07C09FBF9091FF019111EFCF81E0C4
:1013F0000895442351F0FB019B01240F311D81917D
:101400008093F1002E173F07D1F78AE38093E8001D
:101410009FBF80E008951F920F920FB60F92112484
:101420002F933F934F938F939F938091E10010925E
:10143000E10083FF0FC01092E90091E09093EB0070
:101440001092EC0092E09093ED0098E09093F00001
:101450001092FF0182FF04C08091FF0181110AC038
:101460009F918F914F913F912F910F900FBE0F90B1
:101470001F9018959091FE019F5F89E2989F812DA2
:101480001124869586958695392F22E3829F3019FF
:101490001124832F311116C01092FE019091E800A3
:1014A00095FF12C090912502992371F0209120029E
:1014B00021114AC08091FF0181114EC021E020938B
:1014C000250202C09093FE0190912102992341F2DE
:1014D0008091FD018F5F8093FD01837009F0C0CF83
:1014E00081E08093E9008091E80085FFB9CF809189
:1014F00022028F5F809322028913B2CF10922202C0
:10150000809108028093F100809109028093F1009C
:1015100080910A028093F10080910B028093F10088
:1015200080910C028093F10080910D028093F10074
:1015300080910E028093F10080910F028093F10060
:101540008AE38093E8008CCF9091FF01911154C001
:1015500081E080932502B8CF8FB7F8943091E400F2
:1015600094E09093E9009091E80095FD20C08FBF32
:101570008091FF01882309F4A1CF8091E4003817FE
:1015800009F49CCF44E00BC08FBF8091FF018823FA
:1015900009F494CF8091E400381709F48FCF8FB706
:1015A000F8944093E9009091E80095FFEDCF909179
:1015B000F100909300029091F100909301029091BC
:1015C000F100909302029091F100909303029091A8
:1015D000F100909304029091F10090930502909194
:1015E000F100909306029091F100909307029AE324
:1015F0009093E8008FBF63CF9FB7F8943091E400D9
:1016000024E02093E9002091E80025FD20C09FBF41
:101610009091FF01992309F49BCF9091E4009317D7
:1016200009F496CF44E00BC09FBF9091FF0199232E
:1016300009F48ECF9091E400391709F489CF9FB750
:10164000F8944093E9002091E80025FFEDCF209128
:10165000F100209300022091F100209301022AE37F
:101660002093E8009FBF75CF1F920F920FB60F9285
:1016700011242F933F934F935F936F937F938F9397
:101680009F93AF93BF93EF93FF931092E9008091E4
:10169000E80083FF38C07091F1004091F100809123
:1016A000F1002091F10090E0922B2091F1005091F7
:1016B000F10030E0352B6091F100E091F10052EF44
:1016C0005093E800463099F1453009F442C1493061
:1016D00009F47EC0483009F40BC14111B9C18091B1
:1016E000E80080FFFCCF723809F488C180E0809365
:1016F000F1001092F1008EEF8093E80007C02115F1
:10170000310509F00EC181E28093EB00FF91EF916A
:10171000BF91AF919F918F917F916F915F914F9109
:101720003F912F910F900FBE0F901F90189581152C
:1017300041E0940709F459C18115F2E09F0709F4CB
:1017400067C1811542E2940709F429C18115F1E2CC
:101750009F0709F466C1811543E0940709F065C24B
:101760002930344081F6A4E0B0E024E048E751E0BD
:10177000862F90E09E2B8F3F910509F020F48A1769
:101780009B0708F4262F6EEF8091E8008570E1F347
:101790008091E80082FDBACF322F293008F420C1B1
:1017A00038E0FA01832F94919093F10081503196A3
:1017B0008111F9CF8FEF830F90E00196480F591FE9
:1017C000231B6093E8002111DFCF3830E9F29ECF70
:1017D000711190C08093FF018EEF8093E80081E04B
:1017E0008093E900E2E4F1E0E491E093EB00EE2382
:1017F00009F464C1E3E4F1E0E491E093EC00E4E493
:10180000F1E0E491E093ED0025E431E082E08093A3
:10181000E900C9010196F90144914093EB0044238A
:1018200051F0FC0184918093EC00C901039631963C
:1018300024912093ED0023E02093E9009C012F5F89
:101840003F4FFC0144914093EB00442359F0F901D0
:1018500024912093EC009C012D5F3F4F31968491A1
:101860008093ED0084E08093E900C9010196F901BD
:1018700044914093EB00442351F0FC018491809308
:10188000EC00C9010396319624912093ED0025E0E8
:101890002093E9009C012F5F3F4FFC01449140934E
:1018A000EB00442359F0F90124912093EC009C01B2
:1018B0002D5F3F4F319684918093ED0086E08093B9
:1018C000E900A9014F5F5F4FF90184918093EB001C
:1018D000882341F0FA0144914093EC003196249121
:1018E0002093ED008EE78093EA001092EA000ECF7D
:1018F0007038D1F121153105A1F4713A09F4E1C034
:10190000713209F000CF4930D9F14A3009F47FC172
:101910004B3009F0F8CE809323028EEF8093E800DD
:10192000F5CE2230310509F444C02130310509F0EB
:10193000EACE713A09F434C1713209F0E4CE4B3089
:1019400009F46DC14A3009F0DECE8EEF8093E800D5
:10195000DDCE2EEF2093E8002091E80020FFFCCFA1
:1019600080688093E300D2CE8091E80080FFFCCFB6
:101970008091FF018093F1008EEF8093E800C6CE46
:101980008091E80082FFFCCF8091F10080931F02DC
:101990008BEF8093E8008EEF8093E800B7CE21159F
:1019A000310509F047C0A0E4B0E020E44DE752E083
:1019B000DFCE713A09F4D2C0713209F0A4CE4A30B8
:1019C00021F2493009F09FCE8091E80082FFFCCFE0
:1019D0008BEF8093E8008091E80080FFFCCFB5CFCB
:1019E0002111DFCE6093E80091CE232B09F08BCE3E
:1019F000A2E1B0E022E14DEB52E0BACE2093E90043
:101A00008091EB0085FB882780F91092E9006FCE6A
:101A1000232B09F078CEABE5B0E02BE54CE751E0A5
:101A2000A7CE21153105E1F5A9E0B0E029E04EE8A7
:101A300051E09ECE2230310509F48AC021303105B3
:101A400009F061CEA4E8B0E024E849EF51E090CE7F
:101A5000542F5D7F513009F04DCF723009F04ACFDD
:101A6000009709F04CCE522F5F776FEF650F66300D
:101A700008F045CE8EEF8093E8005093E9004330A4
:101A800009F441CE89E18093EB0081E090E001C050
:101A9000880F5A95EAF78093EA001092EA0036CE52
:101AA0002230310509F4ADC02130310509F02BCECB
:101AB000A9E0B0E029E047EA51E05ACE23E431E062
:101AC000A5CE413089F04230B9F1433009F01BCE48
:101AD0008091E80080FFFCCF809123028093F10089
:101AE0008EEF8093E80012CE8091E80080FFFCCF5B
:101AF000809108028093F100809109028093F100A7
:101B000080910A028093F10080910B028093F10092
:101B100080910C028093F10080910D028093F1007E
:101B200080910E028093F10080910F028093F1006A
:101B30008EEF8093E800EACD8091E80080FFFCCF33
:101B4000809121028093F1008EEF8093E800DECD3A
:101B5000A2E2B0E022E247ED51E00ACE413009F0C6
:101B6000D2CD28E03EEF8091E800982F9570D9F310
:101B700082FDCCCD922F293070F098E0892F109201
:101B8000F1008150E1F7291B3093E8002111EBCFE0
:101B9000983049F3BBCD2111F1CF3093E800B6CD99
:101BA000413079F0433009F0AECD8091E80080FFFC
:101BB000FCCF80913B028093F1008EEF8093E80090
:101BC000A5CD8091E80080FFFCCF80912602809314
:101BD000F100809127028093F10080912802809388
:101BE000F100809129028093F10080912A02809374
:101BF000F10080912B028093F1008EEF8093E8003A
:101C000085CDA9E0B0E029E040EC51E0B1CD909362
:101C10002102109222028EEF8093E80077CD80930C
:101C20003B028EEF8093E80071CD8130F3E09F0797
:101C300051F42930344009F066CDACE0B0E02CE03E
:101C40004CE651E095CD8230934009F05CCD2930CF
:101C5000344009F058CDACE1B0E02CE140E551E072
:101C600087CDEE0FFF1F0590F491E02D0994F999AF
:101C7000FECF92BD81BDF89A992780B50895A8E15D
:101C8000B0E042E050E00C944C0E0E945A0E272F18
:101C90000C945B0EDC01CB01FC01F999FECF06C070
:101CA000F2BDE1BDF89A319600B40D92415050401A
:101CB000B8F70895262FF999FECF1FBA92BD81BDBE
:101CC00020BD0FB6F894FA9AF99A0FBE01960895BE
:041CD000F894FFCFB6
:101CD40011111111111111111111111111111110F1
:101CE40011101010101010101010101111111111EA
:101CF40010101010101010100011220011111111E9
:101D040010101010101000222222220000110000D6
:101D1400000022226622353A3B3C3D3E3F40414290
:101D24004344454C2B00520000000000000000001A
:101D340000313950514F000000000000000000281D
:101D4400020053474946000000000000002001083B
:101D54000400002C0000000040800010291E1F20F9
:101D6400212223242526272D2E2A2B141A08151761
:101D74001C180C12132F303139041607090A0B0DE5
:101D84000E0F3334002802001D1B061905111036EE
:101D94003738002001080400002C000000004080B7
:101DA40000101514180A09041600010E0D0C0B037B
:101DB4000F12111013021514180A09041600010E4B
:0A1DC4000D0C0B03050607081700BD
:00000001FF
