:100000000C940E010C942B010C942B010C942B01DD
:100010000C942B010C942B010C942B010C942B01B0
:100020000C942B010C942B010C94F6040C945205A7
:100030000C942B010C942B010C942B010C942B0190
:100040000C942B010C942B010C942B010C942B0180
:100050000C942B010C942B010C942B010C942B0170
:100060000C942B010C942B010C942B010C942B0160
:100070000C942B010C942B010C942B010C942B0150
:100080000C942B010C942B010C942B010C942B0140
:100090000C942B010C942B010C942B010C942B0130
:1000A0000C942B010C942B010C942B0164016A011C
:1000B000700176017C01820188018E0194019A0110
:1000C000A001A601AC01B201B801BE01C401CA0180
:1000D000D001D601DC01E201E801EE01F4010402E5
:1000E0000A02100216021C02220228022E02340208
:1000F0003A02400246024C02520258025E02640278
:100100006A02700276027C02820288028E029402E7
:10011000A402A602A802AA02AC02AE02B102B40274
:10012000B702BA02BC02BE02C002C202C402C602C8
:10013000C802CB02CD02CF02D102D302D502D8022F
:10014000DB020001000004021200020000A30122F1
:1001500000220000C5013F00210000B50109000395
:1001600000009F01040103090491010C020309042A
:1001700073011C1C037A00690061006E005F006B54
:10018000006500790062006F006100720064000089
:10019000000C037A00690061006E00310000000469
:1001A00003090409022200010100C0320904000011
:1001B0000103010100092111010001223F0007058F
:1001C000830308000105010906A1017501950805D1
:1001D0000719E029E71500250181029501750881BD
:1001E0000395057501050819012905910295017509
:1001F0000391039506750815002568050719002960
:10020000688100C01201000200000020CCCC133431
:10021000000101020001000001C1060011241FBEFF
:10022000CFEFDAE0DEBFCDBF11E0A0E0B1E0EEEF4E
:10023000FDE002C005900D92AA3EB107D9F722E079
:10024000AAEEB1E001C01D92A531B207E1F70E940C
:10025000E0020C94FD060C94000086E0E6EFF1E06D
:10026000DF011D928A95E9F71092FD010895A6EF2E
:10027000B1E0FD0191919817A9F091E0EC3FF907E9
:10028000C9F720E030E09D91911105C0F901EA50D5
:10029000FE4F808307C02F5F3F4F2630310599F70F
:1002A00080E0089581E008959091FD01892B80936D
:1002B000FD01089590E08931910508F09AC0FC0194
:1002C000EA5AFF4F0C94F706662311F0209A08951E
:1002D00020980895662311F0219A08952198089591
:1002E000662311F0229A089522980895662311F04A
:1002F000239A089523980895662311F0279A089564
:1003000027980895662311F0509A089550980895FB
:10031000662311F0519A089551980895662311F0BB
:10032000529A089552980895662311F0539A0895A9
:1003300053980895662311F03E9A08953E980895C3
:10034000662311F03F9A08953F980895662311F0AF
:10035000569A089556980895662311F0579A08956D
:1003600057980895662311F0249A089524980895C3
:10037000662311F0259A089525980895662311F0B3
:10038000269A089526980895662311F0879A08956D
:1003900087980895662311F0869A0895869808959F
:1003A000662311F0859A089585980895662311F0C3
:1003B000849A089584980895662311F0819A089587
:1003C00081980895662311F0809A08958098089581
:1003D000662311F0549A089554980895662311F0F5
:1003E000559A089555980895662311F06E9A0895C8
:1003F0006E98089590E08931910508F09AC0FC014B
:10040000E159FF4F0C94F706662311F0289A0895DE
:1004100028980895662311F0299A08952998089537
:10042000662311F02A9A08952A980895662311F0F8
:100430002B9A08952B980895662311F02F9A08950A
:100440002F980895662311F0589A089558980895A2
:10045000662311F0599A089559980895662311F06A
:100460005A9A08955A980895662311F05B9A089550
:100470005B980895662311F0469A0895469808956A
:10048000662311F0479A089547980895662311F05E
:100490005E9A08955E980895662311F05F9A089514
:1004A0005F980895662311F02C9A08952C9808956A
:1004B000662311F02D9A08952D980895662311F062
:1004C0002E9A08952E980895662311F08F9A089514
:1004D0008F980895662311F08E9A08958E98089546
:1004E000662311F08D9A08958D980895662311F072
:1004F0008C9A08958C980895662311F0899A08952E
:1005000089980895662311F0889A08958898089527
:10051000662311F05C9A08955C980895662311F0A3
:100520005D9A08955D980895662311F0769A08956E
:100530007698089590E08931910508F03FC0FC015C
:10054000E857FF4F0C94F70683B109C083B10AC086
:1005500083B10BC083B10CC083B11BC089B1817062
:10056000089589B18270089589B18470089589B120
:100570008870089586B120C086B10BC089B11CC0B7
:1005800089B107C083B112C083B113C083B114C055
:100590008FB1807808958FB10FC08FB10AC08FB12D
:1005A00005C08FB1DFCF8FB1DACF89B180710895E7
:1005B00089B1807208958CB18074089580E00895A7
:1005C0000C94730410920002E0910002EE30B0F43B
:1005D000F0E0EC52FE4F60E080810E945A01E09111
:1005E0000002F0E0EC52FE4F61E080810E94FA01CF
:1005F000809100028F5F80930002E6CF08951092F1
:100600000002E0910002E530B0F4F0E0EE51FE4F60
:1006100060E080810E945A01E0910002F0E0EE511A
:10062000FE4F61E080810E94FA01809100028F5F9D
:1006300080930002E6CF089510920002E09100023C
:10064000E230B0F4F0E0EE52FE4F61E080810E94B3
:100650005A01E0910002F0E0EE52FE4F60E080812E
:100660000E94FA01809100028F5F80930002E6CF22
:100670000E94B0068FEF809314020E94B2060C9481
:10068000C6060F931F93CF931092000201E010E073
:10069000909100029230F0F48091EE01E92FF0E0A9
:1006A000980102C0220F331F9A95E2F790E082234F
:1006B0009323EE52FE4F2817390711F460E001C072
:1006C00061E080810E94FA01809100028F5F809337
:1006D0000002DECF809114028F3FE1F48091EE01A1
:1006E00082FF11C0C0E000E010E04C2F40952C2F9D
:1006F0006C2FC8010E94BA060F5F1F4FCE5C0630F8
:10070000110599F702C00E94B2060E94C6068091A8
:10071000140202C0882311F0815001C08FEF809332
:100720001402CF911F910F910895CEE0D2E010E214
:1007300004E01092EC011092FF01E091FF01E5301E
:1007400008F04AC0F0E0EE51FE4F61E080810E9467
:100750005A01E091FF01F0E0EE51FE4F60E0808130
:100760000E94FA0110920102E0910102EE3060F560
:10077000F0E0EC52FE4F80810E949A02E091FF016E
:1007800090910102CE9FD0011124A050BF4FA90F1C
:10079000B11D882321F08C918E7F8C9305C08C91A4
:1007A00081608C931093EB01CE9FF0011124E050F7
:1007B000FF4FE90FF11D8081813411F4D093EC01DA
:1007C0009F5F90930102D0CF0E94FF028091FF01B2
:1007D0008F5F8093FF01B1CF0E942D011092FF0126
:1007E0008091FF018530F0F510920102E091010245
:1007F0009091FF01EE3088F5F0E0C99FC00111240F
:10080000DC01A050BF4FAE0FBF1F3C912091EC0107
:10081000232B213211F0233249F49C0124573E4FFF
:10082000E20FF31F80810E94540111C0213131F485
:100830009C0124573E4FE20FF31F06C0233139F4C9
:100840008A5B9E4FE80FF91F80810E9437018091DB
:1008500001028F5F80930102C9CF81E0890F8093ED
:10086000FF01BECF8091FD019091FC01981721F00E
:100870008093FC010093EA019091EA0180E08630C8
:1008800079F0E82FF0E0DF01AA50BE4F2C91E05143
:10089000FE4F3081321711F0208394E08F5FEFCF4D
:1008A000809300029093EA018091EB01803221F461
:1008B000913011F40E94BE048091EB01813011F45B
:1008C0000E94BE048091EB01882319F0815080932F
:1008D000EB018091EA01882319F081508093EA01AD
:1008E0000E94410326CF80E880936100109261004E
:1008F00085BF85BF0E94A4040E94BB0481110AC069
:100900002FEF85EA9EE0215080409040E1F700C043
:100910000000F2CF0E94E2020E94FF020E941C032C
:100920002FEF89E698E1215080409040E1F700C028
:1009300000000E942D010E94BE040E949503809138
:10094000E80080FFFCCF089581E08093D70080EA23
:100950008093D80082E189BD09B400FEFDCF80E913
:100960008093D8001092E0001092FE018CE08093FA
:10097000E200789408958091FE0108958091FE012F
:10098000811102C08FEF08958FB7F89493E0909390
:10099000E9009091E4009E5C23E03091E80035FD91
:1009A0000EC08FBF8091FE01882361F38091E40027
:1009B000981741F38FB7F8942093E900EECF909108
:1009C000FD019093F1001092F100E6EFF1E09191BA
:1009D0009093F10091E0EC3FF907C9F79AE3909307
:1009E000E8001092EF018FBF80E008951F920F92F0
:1009F0000FB60F9211248F939F93EF93FF938091E3
:100A0000E1001092E10083FF0FC01092E90091E035
:100A10009093EB001092EC0092E29093ED0098E03E
:100A20009093F0001092FE0182FF33C08091FE018E
:100A3000882379F18091E701882359F18091ED01B4
:100A40008F5F8093ED01837021F583E08093E9004F
:100A50008091E80085FF1DC08091EF018F5F80933A
:100A6000EF019091E701891314C01092EF0180917A
:100A7000FD018093F1001092F100E6EFF1E0819129
:100A80008093F10081E0EC3FF807C9F78AE3809397
:100A9000E800FF91EF919F918F910F900FBE0F9003
:100AA0001F9018951F920F920FB60F921124FF926C
:100AB0000F931F932F933F934F935F936F937F9366
:100AC0008F939F93AF93BF93CF93DF93EF93FF9356
:100AD0001092E9008091E80083FF29C1F090F100B5
:100AE0008091F100C091F1009091F100D0E0D92BFC
:100AF0000091F1009091F10010E0192B2091F1008C
:100B00006091F10092EF9093E800863009F049C0BF
:100B100082E491E043E751E0FC01A591B491CA174A
:100B2000DB07D9F4FC013296A591B4910A171B0793
:100B3000A1F4FC01349645915491FC0136968491C0
:100B400030E0362B2F3F310519F010F02FEF30E059
:100B5000281708F4822F3EEF0CC007964817590754
:100B6000D9F6E5C0490F511D891B3093E800882351
:100B7000A9F09091E800292F2570D9F392FDDAC0F1
:100B8000982F813208F090E2FA01292F222351F3A5
:100B900064916093F10021503196F8CF903249F37F
:100BA000C9C0853049F48EEF8093E8000E949F040D
:100BB000C068C093E300BEC0893039F5F1106CC045
:100BC000C093FE018EEF8093E80041E086E192E061
:100BD0004093E9009C012F5F3F4FFC0154915093DB
:100BE000EB00552359F0F90124912093EC009C016E
:100BF0002D5F3F4F3196E491E093ED004F5F45301C
:100C000011F0C901E5CF8EE142C0883041F4F0E82F
:100C1000FF1242C00E949F048091FE0165C08111B5
:100C200015C00E949F0482E8F8120AC00093E900F0
:100C30008091EB0085FB882780F91092E90001C0C4
:100C400080E08093F1001092F1006DC0982F9D7F9D
:100C5000913011F592E0F9121FC0CD2B09F067C059
:100C60000F779FEF900F943008F061C09EEF909344
:100C7000E8000093E900833009F459C089E18093CA
:100C8000EB0081E090E001C0880F0A95EAF78093BD
:100C9000EA001092EA004EC0012B09F048C0E1EAD8
:100CA000FE1225C0813099F40E949F048091FD01BD
:100CB0008093F1001092F100E6EFF1E08CEF91E00B
:100CC00021912093F1008E179F07D1F72CC082301D
:100CD00029F40E949F048091E70106C0833039F512
:100CE0000E949F048091E8018093F1001CC0F1E212
:100CF000FF121DC0893061F48091E80082FFFCCFB3
:100D00008091F1008093EE018BEF8093E8000BC09F
:100D10008A3029F4D093E7011092EF0104C08B30A0
:100D200031F4C093E8018EEF8093E80003C081E2C4
:100D30008093EB00FF91EF91DF91CF91BF91AF9145
:100D40009F918F917F916F915F914F913F912F91E3
:100D50001F910F91FF900F900FBE0F901F9018954D
:100D6000869A0895E2E0F2E0119282E0E431F80719
:100D7000D9F70895FC01EE0FFF1F8E0F9F1FFC0196
:100D8000EE5FFD4F4083618322830895F894E2E093
:100D9000F2E044E152E028E030E0808190E0022E71
:100DA00002C0959587950A94E2F78E9A80FF0CC051
:100DB0000000000000000000000000000000000033
:100DC000000000008E980AC000008E98000000000D
:100DD0000000000000000000000000002150310968
:100DE000E1F631964E175F07B1F678940895EE0F4D
:0E0DF000FF1F0590F491E02D0994F894FFCFB9
:100DFE0010101010101010101010101010101010E5
:100E0E0010101010101010101010101010101010D4
:100E1E0010101010101010100010200010101010D4
:100E2E0010101010100010102040200000100010A4
:100E3E00100040201010353A3B3C3D3E3F404142B1
:100E4E004344454C2B595A5B5C5D5E5F6061625654
:100E5E00573139000000000000000000000000289B
:100E6E0002005347494600000000000000520100F6
:100E7E000400002C000050000010514F291E1F20AE
:100E8E00212223242526272D2E2A2B141A08151746
:100E9E001C180C12132F303139041607090A0B0DCA
:100EAE000E0F3334002802001D1B061905111036D3
:100EBE003700385201000400002C0038500000109A
:100ECE00514F12021514180A090F1601040E0D0CBB
:0A0EDE000B0305060708177D01004D
:00000001FF
