:100000000C940E010C942B010C942B010C942B01DD
:100010000C942B010C942B010C942B010C942B01B0
:100020000C942B010C942B010C9470050C94D605A8
:100030000C942B010C942B010C942B010C942B0190
:100040000C942B010C942B010C942B010C942B0180
:100050000C942B010C942B010C942B010C942B0170
:100060000C942B010C942B010C942B010C942B0160
:100070000C942B010C942B010C942B010C942B0150
:100080000C942B010C942B010C942B010C942B0140
:100090000C942B010C942B010C942B010C942B0130
:1000A0000C942B010C942B010C942B0173017901FE
:1000B0007F0185018B01910197019D01A301A90198
:1000C000AF01B501BB01C101C701CD01D301D90108
:1000D000DF01E501EB01F101F701FD01030213026C
:1000E00019021F0225022B02310237023D02430290
:1000F00049024F0255025B02610267026D02730200
:1001000079027F0285028B02910297029D02A3026F
:10011000B302B602B902BC02BF02C202C502C802E3
:10012000CB02CE02D102D402D702DA02DD02E00213
:10013000E302E602E902EC02EF02F202F502F80243
:10014000FB020001000004021200020000A30122D1
:1001500000220000C5013F00210000B50109000395
:1001600000009F01040103090491010C020309042A
:1001700073011C1C037A00690061006E005F006B54
:10018000006500790062006F006100720064000089
:10019000000C037A00690061006E00310000000469
:1001A00003090409022200010100C0320904000011
:1001B0000103010100092111010001223F0007058F
:1001C000830308000105010906A1017501950805D1
:1001D0000719E029E71500250181029501750881BD
:1001E0000395057501050819012905910295017509
:1001F0000391039506750815002568050719002960
:10020000688100C01201000200000020C0167904BD
:10021000000101020001000001C1060011241FBEFF
:10022000CFEFDAE0DEBFCDBF11E0A0E0B1E0EAEF52
:10023000FEE002C005900D92AA3EB107D9F722E078
:10024000AAEEB1E001C01D92A230B207E1F70E9410
:10025000D3040C947B070C94000086E0E6EFF1E0F9
:10026000DF011D928A95E9F71092FD0108954091F2
:10027000F601481721F1A7EFB1E02CEF31E0FD01C5
:1002800003C091919817E9F0E217F307D1F74423DF
:1002900039F021E030E0A9019D91911109C002C01F
:1002A00040E050E0FA01EA50FE4F808381E008957B
:1002B0002F5F3F4F2630310571F780E0089581E0D0
:1002C000089581E008959091FD01892B8093FD01AF
:1002D000089590E08931910508F09AC0FC01EA5A2E
:1002E000FF4F0C947507662311F0209A089520980B
:1002F0000895662311F0219A0895219808956623A0
:1003000011F0229A089522980895662311F0239AF5
:10031000089523980895662311F0279A0895279841
:100320000895662311F0509A089550980895662311
:1003300011F0519A089551980895662311F0529A38
:10034000089552980895662311F0539A089553988A
:100350000895662311F03E9A08953E980895662305
:1003600011F03F9A08953F980895662311F0569A28
:10037000089556980895662311F0579A089557984E
:100380000895662311F0249A089524980895662309
:1003900011F0259A089525980895662311F0269A5C
:1003A000089526980895662311F0879A08958798EE
:1003B0000895662311F0869A089586980895662315
:1003C00011F0859A089585980895662311F0849A0E
:1003D000089584980895662311F0819A089581986C
:1003E0000895662311F0809A0895809808956623F1
:1003F00011F0549A089554980895662311F0559A6F
:10040000089555980895662311F06E9A08956E9890
:10041000089590E08931910508F09AC0FC01E159F6
:10042000FF4F0C947507662311F0289A08952898B9
:100430000895662311F0299A08952998089566234E
:1004400011F02A9A08952A980895662311F02B9A9C
:1004500008952B980895662311F02F9A08952F98E8
:100460000895662311F0589A0895589808956623C0
:1004700011F0599A089559980895662311F05A9ADF
:1004800008955A980895662311F05B9A08955B9831
:100490000895662311F0469A0895469808956623B4
:1004A00011F0479A089547980895662311F05E9ACF
:1004B00008955E980895662311F05F9A08955F98F5
:1004C0000895662311F02C9A08952C9808956623B8
:1004D00011F02D9A08952D980895662311F02E9A03
:1004E00008952E980895662311F08F9A08958F9895
:1004F0000895662311F08E9A08958E9808956623C4
:1005000011F08D9A08958D980895662311F08C9AB4
:1005100008958C980895662311F0899A0895899812
:100520000895662311F0889A08958898089566239F
:1005300011F05C9A08955C980895662311F05D9A15
:1005400008955D980895662311F0769A0895769837
:10055000089590E08931910508F050C0FC01E857FA
:10056000FF4F0C94750783B18170089583B1827039
:10057000089583B18470089583B18870089583B11C
:100580008078089589B18170089589B18270089545
:1005900089B18470089589B18870089586B1807496
:1005A000089586B18078089589B18074089589B1DD
:1005B0008078089583B18071089583B18072089521
:1005C00083B1807408958FB1807808958FB180745D
:1005D00008958FB1807208958FB1807108958FB1A1
:1005E000827008958FB18170089589B180710895E6
:1005F00089B1807208958CB18074089580E0089567
:1006000010920002E0E0F0E0EC52FE4F60E08081EA
:100610000E946901E0910002F0E0EC52FE4F61E0BF
:1006200080810E940902E0910002EF5FE0930002E6
:10063000EE3048F3089510920002E0E0F0E0EE5151
:10064000FE4F60E080810E946901E0910002F0E0CD
:10065000EE51FE4F61E080810E940902E0910002AC
:10066000EF5FE0930002E53048F308951092000236
:10067000E0E0F0E0EE52FE4F61E080810E9469010F
:10068000E0910002F0E0EE52FE4F60E080810E94B7
:100690000902E0910002EF5FE0930002E23048F3CC
:1006A0000895CF93DF931092000280E0C1E0D0E084
:1006B0009091EE01282F30E0AE0102C0440F551F8B
:1006C0008A95E2F7892F90E08423952348175907EC
:1006D00041F4F901EE52FE4F60E080810E94090270
:1006E00007C0F901EE52FE4F61E080810E940902CD
:1006F000809100028F5F809300028230C8F2DF9108
:10070000CF91089510E202E00F2EF0EFAF2EF1E04E
:10071000BF2EF02D0F2EF6EFCF2EF1E0DF2EF02DB5
:10072000C6EFD1E00F2EF6E0FF2EF02D1092EC0177
:100730001092FF01E0E0F0E0EE51FE4F61E08081B9
:100740000E946901E091FF01F0E0EE51FE4F60E090
:1007500080810E94090210920102E0E0F0E0EC5278
:10076000FE4F80810E94A9028823C1F08091FF0181
:1007700090E020910102880F991FFC01EE0FFF1FEE
:10078000EE0FFF1FEE0FFF1FE81BF90BE20FF11D2D
:10079000E050FF4F80818E7F808319C08091FF01E0
:1007A00090E020910102880F991FFC01EE0FFF1FBE
:1007B000EE0FFF1FEE0FFF1FE81BF90BE20FF11DFD
:1007C000E050FF4F8081816080831093EB01E091C6
:1007D00001028091FF0190E0880F991FDC01AA0FB0
:1007E000BB1FAA0FBB1FAA0FBB1FA81BB90BAE0FC5
:1007F000B11DA050BF4F8C91813411F40093EC01D6
:10080000EF5FE0930102EE3008F4A8CF0E941B03D3
:10081000E091FF01EF5FE093FF01E53008F48BCF3B
:10082000BAC01092010280E02091FF0130E090E018
:10083000A901440F551FFA01EE0FFF1FEE0FFF1F16
:10084000EE0FFF1FE41BF50BE80FF91FE050FF4F01
:1008500050814091EC01452B4132A1F4220F331F0E
:10086000F901EE0FFF1FEE0FFF1FEE0FFF1FE21B40
:10087000F30B8E0F9F1FFC01E457FE4F80810E94F7
:10088000630141C04332A1F4220F331FF901EE0F7F
:10089000FF1FEE0FFF1FEE0FFF1FE21BF30B8E0F6C
:1008A0009F1FFC01E457FE4F80810E9463012BC013
:1008B0004131A1F4220F331FF901EE0FFF1FEE0F9C
:1008C000FF1FEE0FFF1FE21BF30B8E0F9F1FFC019C
:1008D000E457FE4F80810E94370115C0433199F4DF
:1008E000220F331FF901EE0FFF1FEE0FFF1FEE0F58
:1008F000FF1FE21BF30B8E0F9F1FFC01EA5BFE4FF5
:1009000080810E943701809101028F5F80930102F4
:100910008E3008F489CF8091FF018F5F8093FF01B3
:10092000853008F47ECF1092EA018091FD0190910C
:10093000FC01981729F08093FC0181E08093EA0183
:100940002091EA01F501D60131E08D91908198174F
:1009500011F08083232F3196EC17FD07B1F7F09249
:1009600000022093EA018091EB01803221F42130D2
:10097000B9F40E9419058091EB01813011F40E94B5
:1009800019058091EB01882319F081508093EB01C8
:100990000E945103CBCE0E942D011092FF0141CF46
:1009A0008091EB01F2CFE1E6F0E080E880831082F5
:1009B00085BF85BF0E94FF0409C02FEF85EA9EE036
:1009C000215080409040E1F700C000000E941605D1
:1009D000882399F30E9400030E941B030E943603A0
:1009E0002FEF89E698E1215080409040E1F700C068
:1009F00000000E942D010E9419050E94820381E0DF
:100A00008093D70080EA8093D80082E189BD09B441
:100A100000FEFDCF80E98093D8001092E000109294
:100A2000FE018CE08093E200789408958091FE01AD
:100A30000895CF93DF938091FE01882309F444C089
:100A40008FB7F89493E09093E9002091E4002E5C36
:100A50009091E80095FD1FC08FBF8091FE01882313
:100A6000A9F18091E400821799F1A9EEB0E033E09A
:100A7000E8EEF0E0C4EED0E008C08FBF8091FE0148
:100A8000882341F18881821739F18FB7F8943C931C
:100A9000908195FFF2CF9091FD01E1EFF0E090831E
:100AA0001082E6EFF1E02CEF31E0A1EFB0E09191A0
:100AB0009C93E217F307D9F79AE39093E80010921A
:100AC000EF018FBF80E009C08FEF07C08FEF05C037
:100AD0008FEF03C08FEF01C08FEFDF91CF910895AB
:100AE0001F920F920FB60F9211242F933F938F9363
:100AF0009F93AF93BF93EF93FF93E1EEF0E080817C
:100B0000108283FF0FC01092E90091E09093EB00F8
:100B10001092EC0092E29093ED0098E09093F00038
:100B20001092FE0182FF35C08091FE01882389F179
:100B30008091E701882369F18091ED018F5F8093B7
:100B4000ED01837031F583E08093E9008091E80046
:100B500085FF1FC08091EF018F5F8093EF0190911F
:100B6000E701891316C01092EF018091FD01E1EFBA
:100B7000F0E080831082E6EFF1E02CEF31E0A1EFAE
:100B8000B0E081918C93E217F307D9F78AE3809361
:100B9000E800FF91EF91BF91AF919F918F913F91AD
:100BA0002F910F900FBE0F901F9018951F920F92CC
:100BB0000FB60F9211240F931F932F933F934F93D0
:100BC0005F936F937F938F939F93AF93BF93CF93D5
:100BD000DF93EF93FF931092E9008091E80083FF89
:100BE00068C1E1EFF0E0608180812081908130E098
:100BF000392B4081908150E0592B7081C08192EF58
:100C00009093E800863009F057C004C081E28093D9
:100C1000EB0056C167E082E491E0FC01A591B4913C
:100C20002A173B0711F0079622C0FC013296A591C6
:100C3000B4914A175B0711F0079619C0FC0134966E
:100C400045915491FC0136962491872F90E09C2B7E
:100C50008F3F910519F010F08FEF90E0821708F4A4
:100C6000282FA8EEB0E06EEFC1EFD0E003C06150D6
:100C7000A1F6CCCF8C91982F9570E1F382FD20C125
:100C8000322F213208F030E2332309F416C1FA0181
:100C9000832F94919883815031968111FACF8FEFF1
:100CA000830F90E00196480F591F231B6C9321116D
:100CB000E1CF3032F9F204C1853061F48EEF8093D8
:100CC000E800E8EEF0E0808180FFFDCF206820930F
:100CD000E300F6C0893089F5611186C02093FE01DA
:100CE0008EEF8093E80081E026E132E0C9EED0E0AB
:100CF000ABEEB0E00CEE10E06DEE70E08883A90181
:100D00004F5F5F4FF90194919C93992361F0FA0131
:100D10004491F8014083F901329694912D5F3F4F41
:100D2000FB01908301C09A018F5F853039F7EAEEAD
:100D3000F0E08EE180831082C3C0883081F4603897
:100D400009F052C0E8EEF0E0808180FFFDCF809195
:100D5000FE018093F1008EEF8093E800B1C0811115
:100D60001AC0E8EEF0E0808180FFFDCF623851F4D8
:100D7000E9EEF0E040838091EB0085FB882780F965
:100D8000108201C080E0E1EFF0E0808310828EEFFE
:100D90008093E80095C0982F9D7F913029F56230AF
:100DA00019F5232B09F085C04F779FEF940F9430EE
:100DB00008F07FC09EEF9093E8004093E9008330F5
:100DC00021F481E28093EB007BC089E18093EB000A
:100DD00081E090E002C0880F991F4A95E2F7EAEEA1
:100DE000F0E0808310826CC0452B09F062C0613A4C
:100DF000D1F58130D1F4E8EEF0E0808180FFFDCFC5
:100E00008091FD01E1EFF0E080831082E6EFF1E0F8
:100E10002CEF31E0A1EFB0E081918C93E217F30762
:100E2000D9F78EEF8093E8004BC0823069F4E8EE8A
:100E3000F0E0808180FFFDCF8091E7018093F10099
:100E40008EEF8093E8003CC0833099F5E8EEF0E047
:100E5000808180FFFDCF8091E8018093F1008EEFCB
:100E60008093E8002DC0613221F5893081F4E8EEED
:100E7000F0E0808182FFFDCF8091F1008093EE0150
:100E8000E8EEF0E08BEF80838EEF808319C08A302C
:100E900041F43093E7011092EF018EEF8093E80068
:100EA0000FC08B3031F42093E8018EEF8093E8007F
:100EB00007C081E28093EB0003C06C932111DACE6E
:100EC000FF91EF91DF91CF91BF91AF919F918F9162
:100ED0007F916F915F914F913F912F911F910F9152
:100EE0000F900FBE0F901F901895EE0FFF1F0590EB
:0A0EF000F491E02D0994F894FFCF6F
:100EFA0010101010101010101010101010101010E8
:100F0A0010101010101010101010101010101010D7
:100F1A0010101010101010100010200010101010D7
:100F2A0010101010100010102040200000100010A7
:100F3A00100040201010353A3B3C3D3E3F404142B4
:100F4A004344454C2B005200000000000000000002
:100F5A0000493950514F00000000000000000028ED
:100F6A000200534700000000000000000052010088
:100F7A000400002C000050000010514F291E1F20B1
:100F8A00212223242526272D2E2A2B141A08151749
:100F9A001C180C12132F303139041607090A0B0DCD
:100FAA000E0F3334002802001D1B061905111036D6
:100FBA003700385201000400002C0038500000109D
:100FCA00514F12021514180A090F1601040E0D0CBE
:0A0FDA000B0305060708177D010050
:00000001FF
