:100000000C94E6020C9403030C9403030C94030376
:100010000C9403030C9403030C9403030C94030348
:100020000C9403030C9403030C94F60B0C941F0D17
:100030000C9403030C9403030C9403030C94030328
:100040000C9403030C9403030C9403030C94030318
:100050000C9403030C9403030C9403030C94030308
:100060000C9403030C9403030C9403030C940303F8
:100070000C9403030C9403030C9403030C940303E8
:100080000C9403030C9403030C9403030C940303D8
:100090000C9403030C9403030C9403030C940303C8
:1000A0000C9403030C9403030C940303830793073A
:1000B0006F079B0779078B0765079F077E078F07E9
:1000C0006A0797077407870760075B0747075107A9
:1000D0003D07560742074C07380733072F073208FA
:1000E00042081E084A0828083A0814084E082D0835
:1000F0003E0819084608230836080F080A08F607BC
:100100000008EC070508F107FB07E707E207DE0731
:10011000D408D108CE08CB08C808C508C208BF0853
:10012000BC08B908B608B308B008AD08AA08A70803
:10013000A408A1089E089B089808950892088F08B3
:10014000D70801C10601C10601C10601C0060000B1
:100150001C037A00690061006E005F006B0065009F
:10016000790062006F006100720064000C037A0085
:10017000690061006E0031000403090409025B009C
:10018000030100A03209040000010301010009215C
:100190001101000122400007058103080001090444
:1001A0000100010301020009211101000122840064
:1001B0000705820308000109040200020300000091
:1001C0000921110100012222000705830308000113
:1001D000070504030800010631FF0974A101097530
:1001E000150026FF0095087508810209761500267E
:1001F000FF00950875089102C005010902A101855B
:10020000010901A10005091901290515002501753C
:1002100001950581027503950181030501093009E6
:10022000311581257F7508950281060938158125CC
:100230007F35004500750895018106050C0A3802D6
:100240001581257F750895018106C0C005010980CB
:10025000A1018502150126B700190129B77510956E
:10026000018100C0050C0901A10185031501269C2F
:100270000219012A9C02751095018100C00501092F
:1002800006A10175019508050719E029E715002564
:10029000018102950175088103950575010508190D
:1002A00001290591029501750391039506750815BD
:1002B0000026FF000507190029FF8100C012010078
:1002C0000200000008CCCC1534000201020001003D
:1002D000000000000000000000000000000000001E
:1002E000000000000000000000000000000000000E
:1002F00000000000000000000000000000000000FE
:1003000000000000000000000000000000000000ED
:1003100000000000000000000000000000000000DD
:1003200000000000000000000000000000000000CD
:1003300000000000000000000000000000000000BD
:1003400000000000000000000000000000000000AD
:100350000102030405060708090A0B0C0D0E0F1015
:100360001112131415161718191A1B1C1D1E1F2005
:100370002122232425262728292A2B2C2D2E2F30F5
:100380003132333435363738393A3B3C3D3E3F40E5
:100390004142434445464748494A4B4C4D4E4F50D5
:1003A0005152535455565758595A5B5C5D5E5F60C5
:1003B0006162636465666768696A6B6C6D6E6F70B5
:1003C0007172737475767778797A7B7C7D7E0001A3
:1003D00002030405060708090A0B0C0D0E0F101185
:1003E00012131415161718191A1B1C1D1E1F202175
:1003F00022232425262728292A2B2C2D2E2F303165
:1004000032333435363738393A3B3C3D3E3F404154
:1004100042434445464748494A4B4C4D4E4F505144
:1004200052535455565758595A5B5C5D5E5F606134
:1004300062636465666768696A6B6C6D6E6F707124
:1004400072737475767778797A7B7C7D7E7F7F7E18
:100450007D7C7B7A797877767574737271706F6E44
:100460006D6C6B6A696867666564636261605F5E34
:100470005D5C5B5A595857565554535251504F4E24
:100480004D4C4B4A494847464544434241403F3E14
:100490003D3C3B3A393837363534333231302F2E04
:1004A0002D2C2B2A292827262524232221201F1EF4
:1004B0001D1C1B1A191817161514131211100F0EE4
:1004C0000D0C0B0A090807060504030201FFFEFDD7
:1004D000FCFBFAF9F8F7F6F5F4F3F2F1F0EFEEEDD4
:1004E000ECEBEAE9E8E7E6E5E4E3E2E1E0DFDEDDC4
:1004F000DCDBDAD9D8D7D6D5D4D3D2D1D0CFCECDB4
:10050000CCCBCAC9C8C7C6C5C4C3C2C1C0BFBEBDA3
:10051000BCBBBAB9B8B7B6B5B4B3B2B1B0AFAEAD93
:10052000ACABAAA9A8A7A6A5A4A3A2A1A09F9E9D83
:100530009C9B9A999897969594939291908F8E8D73
:100540008C8B8A89888786858483828180000102DA
:10055000030405060708090A0B0C0D0E0F101112F3
:10056000131415161718191A1B1C1D1E1F202122E3
:10057000232425262728292A2B2C2D2E2F303132D3
:10058000333435363738393A3B3C3D3E3F404142C3
:10059000434445464748494A4B4C4D4E4F505152B3
:1005A000535455565758595A5B5C5D5E5F606162A3
:1005B000636465666768696A6B6C6D6E6F70717293
:1005C000737475767778797A7B7C7D7E11241FBE73
:1005D000CFEFDAE0DEBFCDBF11E0A0E0B1E0E6EAA8
:1005E000F2E202C005900D92AE3EB107D9F722E0CB
:1005F000AEEEB1E001C01D92AD34B207E1F70E944A
:10060000DA080C9451110C940000AF92BF92CF9273
:10061000DF92EF92FF920F931F93CF93DF9380E0CF
:1006200090E00E9428115C0182E090E00E94281175
:100630008C0184E090E00E942811EC0186E090E0BB
:100640000E9428116C0188E090E00E9428117C0132
:100650008AE0A816B10409F4B6C10F301105C1F043
:100660006D9709F46CC0E3E6CE16D10409F4CBC053
:10067000F9EAEF16F10409F438C1DF91CF911F9127
:100680000F91FF90EF90DF90CF90BF90AF900895C3
:100690008FE090E00E9420118093DA0180E190E0E9
:1006A0000E9420118093DB0181E190E00E942011E3
:1006B0008093DC0182E190E00E9420118093DD01B3
:1006C00083E190E00E9420118093DE0184E190E0BC
:1006D0000E9420118093DF0185E190E00E942011AB
:1006E0008093E00186E190E00E9420118093E10177
:1006F00087E190E00E9420118093E20188E190E080
:100700000E9420118093E30189E190E00E94201172
:100710008093E4018AE190E00E9420118093E5013A
:100720008BE190E00E9420118093E6018CE190E043
:100730000E9420118093E7016D9709F094CF04E99E
:1007400011E0C0E0D0E0CE014D960E942011F801EA
:100750008083CE014E960E942011F8018183CE0144
:100760004F960E942011F8018283CE0180960E944C
:100770002011F8018383CE0181960E942011F80197
:100780008483CE0182960E942011F8018583CE01D8
:1007900083960E942011F8018683CE0184960E94E0
:1007A0002011F8018783CE0185960E942011F8015F
:1007B0008087CE0186960E942011F8018187CE01A4
:1007C00087960E942011F8018287CE0188960E94A8
:1007D0002011F8018387CE0189960E942011F8012B
:1007E0008487CE018A960E942011F80185872E9673
:1007F000025F1F4FC634D10509F0A5CFE3E6CE1640
:10080000D10409F035CF0EE411E0C0E0D0E0CE0114
:100810008D599F4F0E942011F8018083CE018C5981
:100820009F4F0E942011F8018183CE018B599F4F69
:100830000E942011F8018283CE018A599F4F0E94A5
:100840002011F8018383CE0189599F4F0E94201106
:10085000F8018483CE0188599F4F0E942011F8012E
:100860008583CE0187599F4F0E942011F80186830E
:10087000CE0186599F4F0E942011F8018783CE0137
:1008800085599F4F0E942011F8018087CE0184591D
:100890009F4F0E942011F8018187CE0183599F4FFD
:1008A0000E942011F8018287CE0182599F4F0E9439
:1008B0002011F8018387CE0181599F4F0E9420119A
:1008C000F8018487CE0180599F4F0E942011F801C2
:1008D00085872E96025F1F4FC634D10509F097CF4A
:1008E000F9EAEF16F10409F0C8CE08E011E0C0E023
:1008F000D0E0CE0187559F4F0E942011F8018083E0
:10090000CE0186559F4F0E942011F8018183CE01B0
:1009100085559F4F0E942011F8018283CE01845596
:100920009F4F0E942011F8018383CE0183559F4F72
:100930000E942011F8018483CE0182559F4F0E94AE
:100940002011F8018583CE0181559F4F0E9420110F
:10095000F8018683CE0180559F4F0E942011F80137
:100960008783CE018F549F4F0E942011F80180870A
:10097000CE018E549F4F0E942011F8018187CE0135
:100980008D549F4F0E942011F8018287CE018C5414
:100990009F4F0E942011F8018387CE018B549F4FF7
:1009A0000E942011F8018487CE018A549F4F0E9433
:1009B0002011F80185872E96025F1F4FC634D1059E
:1009C00009F097CF5ACE8AE090E00E9420118093E0
:1009D000E8018BE090E00E9420118093E9018CE017
:1009E00090E00E9420118093EA018DE090E00E9447
:1009F00020118093EB018EE090E00E942011809303
:100A0000EC012BCECF93DF9380911E0281111BC08E
:100A1000C091F901D091FA01CF3F21EFD207B1F097
:100A2000CF3F82EFD80709F44AC08091190288238A
:100A3000B9F088E0E9EFF1E0DF011D928A95E9F76E
:100A400081E080931E02DF91CF9108958091190279
:100A5000813009F43EC08111ECCF0E9412091DC003
:100A60000E941209CE3FA3E0DA0748F4F999FECFBD
:100A70006091FB017091FC01CE010E942E11CE010C
:100A800002968E3FB3E09B0740F4F999FECF609148
:100A9000FD017091FE010E942E11CE0104968E3F41
:100AA00023E0920718F00E942409C3CFF999FECFE2
:100AB0006091FF01709100020E942E11F4CF80918D
:100AC00019028111B6CF0E94240982E08093190295
:100AD000B0CF10921902ADCFCF93DF93EFE1F2E0E8
:100AE0008CE0DF011D928A95E9F7ABE2B2E08BE082
:100AF000ED0119928A95E9F781E0808392E096836F
:100B000093E0918719968C93DF91CF91089588E0B7
:100B1000E1E0F2E0DF011D928A95E9F7E1E1F2E020
:100B20008DE0DF011D928A95E9F781E08087838758
:100B30008DE78187089588E0E9E0F2E0DF01982FF2
:100B40001D929A95E9F7E9EFF1E0DF011D928A9590
:100B5000E9F7089590E09093310280933002089570
:100B600090E090933302809332020895EBE2F2E03A
:100B70009081892B80830895EBE2F2E01082168247
:100B8000158210861782089586E0E2E1F2E0DF0127
:100B90001D928A95E9F71092110208959091120220
:100BA000891711F1209113028217F1F0309114028C
:100BB0008317D1F0409115028417B1F050911602BD
:100BC000851791F060911702681771F0992371F001
:100BD0002223A1F03323A9F04423B1F05523B9F027
:100BE0006623C1F080E0089581E0089520E030E0C0
:100BF000F901EF5EFD4F818381E0089521E030E04F
:100C0000F7CF22E030E0F4CF23E030E0F1CF24E072
:100C100030E0EECF25E030E0EBCFE1E1F2E0908193
:100C2000892B808308958091110290910102981779
:100C3000D1F18093010281E0909112022091030290
:100C4000291719F09093030281E0909113022091EB
:100C50000402291719F09093040281E09091140284
:100C600020910502291719F09093050281E09091D7
:100C7000150220910602291719F09093060281E0CF
:100C80009091160220910702291779F0909307029C
:100C9000909117028091080298139093080281E0C6
:100CA00080931D02089580E0C7CF90911702209194
:100CB00008022913F2CF8111F2CF089580911D020D
:100CC000811102C081E0089510921D0222E348E0E4
:100CD00061E072E081E00C94C10B80912B02909155
:100CE0002002981729F18093200281E020913002A0
:100CF000309131024091260250912702421753074A
:100D0000C9F03093270220932602209132023091BD
:100D100033028091290290912A0282179307C9F029
:100D200030932A022093290283E0809335020895AC
:100D300080E0DCCF209132023091330240912902D1
:100D400050912A024217530759F7882381F381E013
:100D5000ECCF82E0EACFCF93DF93809135028370AE
:100D600080933502811104C081E0DF91CF91089515
:100D70000E94BE0B8823C1F38FB7F894C091E400A2
:100D8000CE5C92E09093E9009091E80095FD14C04C
:100D9000D2E00CC08091E400C81731F38FB7F8940B
:100DA000D093E9009091E80095FD06C08FBF0E94A6
:100DB000BE0B8111EFCFD8CF90913502923099F1CF
:100DC000933011F19130D1F41092350290911F02BD
:100DD0009093F100909120029093F1009091210264
:100DE0009093F100909122029093F1009091230250
:100DF0009093F100909124029093F1009AE39093E4
:100E0000E8008FBF80E0B1CF1092350290912802A8
:100E10009093F100909129029093F10090912A0211
:100E20009093F100EBCF10923502909125029093B0
:100E3000F100909126029093F100909127029093F7
:100E4000F100DCCF80E885BF85BF089590E089314F
:100E5000910540F4FC01EA5AFF4F0C941A116111FC
:100E6000A2C06E980895662309F46DC0559A08953E
:100E7000662309F46AC0549A0895662309F46DC084
:100E8000859A0895662309F464C0819A08956623BB
:100E900009F467C0879A0895662309F458C0809AB8
:100EA0000895662309F45BC0869A0895662309F4C1
:100EB00052C0849A0895662309F455C0269A08956D
:100EC000662309F460C0259A0895662309F453C087
:100ED000519A0895662309F45EC03F9A08956623E7
:100EE00009F445C0229A0895662309F450C0579A20
:100EF0000895662309F443C0279A0895662309F4E8
:100F00004EC0539A0895662381F1209A089566236E
:100F1000E1F1249A0895662381F1509A0895662399
:100F2000E1F13E9A0895662321F1219A08956623FE
:100F300081F1569A0895662321F1239A0895662334
:100F400081F1529A0895559808955498089580987B
:100F500008958198089584980895859808958698AD
:100F600008958798089526980895209808952298BE
:100F700008952198089551980895509808952798B4
:100F800008952398089525980895249808955798CA
:100F90000895569808953F9808953E980895539857
:100FA0000895529808956E9A089590E089319105B8
:100FB00040F4FC01E159FF4F0C941A116111A2C0D9
:100FC00076980895662309F46DC05D9A08956623A6
:100FD00009F46AC05C9A0895662309F46DC08D9A7D
:100FE0000895662309F464C0899A0895662309F474
:100FF00067C08F9A0895662309F458C0889A0895A7
:10100000662309F45BC08E9A0895662309F452C0E2
:101010008C9A0895662309F455C02E9A0895662384
:1010200009F460C02D9A0895662309F453C0599AB3
:101030000895662309F45EC0479A0895662309F46B
:1010400045C02A9A0895662309F450C05F9A08950E
:10105000662309F443C02F9A0895662309F44EC00D
:101060005B9A0895662381F1289A08956623E1F139
:101070002C9A0895662381F1589A08956623E1F128
:10108000469A0895662321F1299A0895662381F1ED
:101090005E9A0895662321F12B9A0895662381F1C3
:1010A0005A9A08955D9808955C98089588980895CF
:1010B000899808958C9808958D9808958E9808952C
:1010C0008F9808952E980895289808952A9808953D
:1010D0002998089559980895589808952F98089533
:1010E0002B9808952D9808952C9808955F98089549
:1010F0005E98089547980895469808955B980895D6
:101100005A980895769A089590E08931910510F0E3
:1011100080E00895FC01E857FF4F0C941A1189B143
:101120008072089589B1807108958FB1817008959A
:101130008FB1827008958FB1807108958FB18072E0
:1011400008958FB1807408958FB18078089583B128
:101150008074089583B18072089583B18071089579
:1011600089B18078089589B18074089586B18078B6
:10117000089586B18074089589B18870089589B101
:101180008470089589B18270089589B1817008953D
:1011900083B18078089583B18870089583B1847095
:1011A000089583B18270089583B1817008958CB1E0
:1011B000807408950C943B0B10924A02E0E0F0E03A
:1011C000E652FE4F60E080810E942607E0914A02CD
:1011D000F0E0E652FE4F61E080810E94D507E09189
:1011E0004A02EF5FE0934A02EE3048F3089510920E
:1011F0004A02E0E0F0E0E851FE4F60E080810E94AA
:101200002607E0914A02F0E0E851FE4F61E080815C
:101210000E94D507E0914A02EF5FE0934A02E53071
:1012200048F3089510924A02E0E0F0E0EA5FFE4FD2
:1012300060E080810E94D507E0914A02EF5FE09371
:101240004A02E23090F3089510924A02E0E0F0E0A2
:10125000EA5FFE4F61E080810E94D507E0914A027B
:10126000EF5FE0934A02E23090F30895DF92EF924D
:10127000FF920F931F93CF93DF9310924A0280E067
:10128000C1E0D0E00BC061E080810E94D507809171
:101290004A028F5F80934A028230F0F4282F30E0B8
:1012A000AE0102C0440F551F8A95E2F780911802E3
:1012B00090E084239523F901EA5FFE4F4817590710
:1012C00011F760E080810E94D50780914A028F5F0C
:1012D00080934A02823010F380914C028F3FC1F01C
:1012E00081110BC08FEF80934C02DF91CF911F9142
:1012F0000F91FF90EF90DF900895815080934C0202
:10130000DF91CF911F910F91FF90EF90DF900895A3
:101310008091180282FF32C0C0E0D1E080EFE82E59
:1013200081E0F82E00E010E0DD24D3940CC0D082E0
:101330008F5F88830F5F1F4F2196FFEFEF1AFF0A21
:1013400006301105E9F0288130E0F901E353FB4F45
:101350006491F901E253FC4F4491F901E153FD4FCF
:101360002491C8010E9426108881F7018823F9F290
:101370008E3FA1F4108281508883DCCF0E941E1022
:1013800080914C02815080934C02DF91CF911F914C
:101390000F91FF90EF90DF900C9432109081992381
:1013A00051F3C6CFCF93DF9380EF80933602109234
:1013B0004902E0E0C9E0DFE0F0E0E851FE4F61E023
:1013C00080810E942607E0914902F0E0E851FE4F3B
:1013D00060E080810E94D50710924B02E0E010C0CF
:1013E0008EE0A89FD0011124A85FBE4FAE0FB11DA3
:1013F0008C9187778C93EF5FE0934B02EE3010F582
:10140000F0E0E652FE4F80810E948408E0914B029A
:10141000A09149028111E4CF8EE0A89FD001112450
:10142000A85FBE4FAE0FB11D8C9188688C93C0939E
:10143000EF018E3E01F7D0933602EF5FE0934B024F
:10144000EE30F0F210924A02E0E0F0E0E851FE4F98
:1014500060E080810E942607E0914A02F0E0E851B6
:10146000FE4F61E080810E94D507E0914A02EF5F64
:10147000E0934A02E53048F3E0914902EF5FE093E0
:101480004902E53008F498CF0E94C4050E94BC05CB
:101490001092490240E010924B0290E01AC0803B4B
:1014A00009F4A9C008F06BC0803909F48BC0803AF8
:1014B00059F42C563E4FE20FF31F80810E940D0617
:1014C0004091490290914B029F5F90934B029E3056
:1014D00070F5E92FF0E08EE0489F90011124D901CA
:1014E000A85FBE4FAE0FBF1F5C918091360285236F
:1014F0008D3009F473C098F68A3009F495C008F469
:1015000051C08B3009F483C08C30F1F6A901425BE5
:101510005E4FE40FF51F80810E94AA0540914902A9
:1015200090914B029F5F90934B029E3090F24F5FE1
:1015300040934902453008F4AECF0E941306882339
:1015400019F083E08093EE010E946D06882319F064
:1015500083E08093EE018091EF01893009F475C03A
:10156000813009F47AC09091EE01811172C0992303
:1015700019F091509093EE01DF91CF910895803C46
:1015800009F45FC0803D09F09FCFA9014C565E4F22
:10159000E40FF51F80810E94B005409149029091AF
:1015A0004B0292CF893009F08FCFA901425B5E4F89
:1015B000E40FF51F80810E94CE0540914902909171
:1015C0004B0282CF2C563E4FE20FF31F80810E94C8
:1015D000CE054091490290914B0276CFC901825BC2
:1015E0009E4FE80FF91F80810E94B005409149028B
:1015F00090914B0269CF2C563E4FE20FF31F808132
:101600000E94B6054091490290914B025DCFA9011D
:10161000425B5E4FE40FF51F80810E94B60540914A
:10162000490290914B0250CFA901425B5E4FE40FFB
:10163000F51F80810E940D064091490290914B0256
:1016400043CFA9014C565E4F64CF9091EE0191308B
:1016500059F081508093EF018ACF0E945E060E946C
:10166000AB068091EF017FCF0E945E060E94AB0621
:101670008091EF0175CF80E8809361001092610046
:101680000E9422070E94A20B0E94BE0B81110AC079
:101690002FEF85EA9EE0215080409040E1F700C0A6
:1016A0000000F2CF0E94DC080E94F708CFEF1092F2
:1016B0004A02E0E0F0E0EA5FFE4F61E080810E94D4
:1016C0002607E0914A02F0E0EA5FFE4F60E0808189
:1016D0000E94D507E0914A02EF5FE0934A02E230B0
:1016E00048F30E941C10C0934C020E941E100E94DE
:1016F000321081E080931E02809319020E9405033C
:101700002FEF89E698E1215080409040E1F700C03A
:1017100000000E94C4050E94BC0522E348E061E08D
:1017200072E081E00E94C10B0E94020580911902C3
:10173000823009F4BCCF8130B9F70E94D2090E94EF
:101740003609F2CF81E08093D70080EA8093D800F9
:1017500082E189BD09B400FEFDCF80E98093D80005
:101760001092E0001092F8018CE08093E2007894EF
:101770000E9487050E946C050C949B058091F801DE
:1017800008959091F8019923E9F09FB7F89430916A
:10179000E400230F8093E9003091E80035FF0DC08D
:1017A00013C09091E400291769F09FB7F8948093D3
:1017B000E9003091E80035FD07C09FBF9091F80126
:1017C0009111EFCF81E00895442351F0FB019B017B
:1017D000240F311D81918093F1002E173F07D1F71F
:1017E0008AE38093E8009FBF80E008951F920F92E4
:1017F0000FB60F9211242F933F934F938F939F9384
:101800008091E1001092E10083FF0FC01092E90087
:1018100091E09093EB001092EC0092E09093ED0039
:1018200098E09093F0001092F80182FF04C080913C
:10183000F80181110AC09F918F914F913F912F9193
:101840000F900FBE0F901F9018959091F7019F5F1A
:1018500089E2989F812D1124869586958695392F4A
:1018600022E3829F30191124832F311116C0109268
:10187000F7019091E80095FF12C090911E02992304
:1018800071F02091190221114AC08091F801811153
:101890004EC021E020931E0202C09093F701909168
:1018A0001A02992341F28091F6018F5F8093F6012D
:1018B000837009F0C0CF81E08093E9008091E80057
:1018C00085FFB9CF80911B028F5F80931B02891324
:1018D000B2CF10921B02809101028093F10080919F
:1018E00002028093F100809103028093F1008091C5
:1018F00004028093F100809105028093F1008091B1
:1019000006028093F100809107028093F10080919C
:1019100008028093F1008AE38093E8008CCF9091D5
:10192000F801911154C081E080931E02B8CF8FB7A7
:10193000F8943091E40094E09093E9009091E800ED
:1019400095FD20C08FBF8091F801882309F4A1CFB5
:101950008091E400381709F49CCF44E00BC08FBF9E
:101960008091F801882309F494CF8091E40038171E
:1019700009F48FCF8FB7F8944093E9009091E80075
:1019800095FFEDCF9091F1009093F9019091F100C6
:101990009093FA019091F1009093FB019091F100E6
:1019A0009093FC019091F1009093FD019091F100D2
:1019B0009093FE019091F1009093FF019091F100BE
:1019C000909300029AE39093E8008FBF63CF9FB794
:1019D000F8943091E40024E02093E9002091E8009D
:1019E00025FD20C09FBF9091F801992309F49BCF5A
:1019F0009091E400931709F496CF44E00BC09FBF89
:101A00009091F801992309F48ECF9091E400391751
:101A100009F489CF9FB7F8944093E9002091E8003A
:101A200025FFEDCF2091F1002093F9012091F100E5
:101A30002093FA012AE32093E8009FBF75CF1F92FD
:101A40000F920FB60F9211242F933F934F935F93F2
:101A50006F937F938F939F93AF93BF93EF93FF9376
:101A60001092E9008091E80083FF38C07091F10086
:101A70004091F1008091F1002091F10090E0922BD3
:101A80002091F1005091F10030E0352B6091F10090
:101A9000E091F10052EF5093E800463099F1453063
:101AA00009F442C1493009F47EC0483009F40BC141
:101AB0004111B9C18091E80080FFFCCF723809F470
:101AC00088C180E08093F1001092F1008EEF809346
:101AD000E80007C02115310509F00EC181E28093AD
:101AE000EB00FF91EF91BF91AF919F918F917F910B
:101AF0006F915F914F913F912F910F900FBE0F907B
:101B00001F901895811541E0940709F459C181157A
:101B1000F2E09F0709F467C1811542E2940709F4D6
:101B200029C18115F1E29F0709F466C1811543E0DF
:101B3000940709F065C22930344081F6A4E0B0E092
:101B400024E048E751E0862F90E09E2B8F3F9105DF
:101B500009F020F48A179B0708F4262F6EEF809176
:101B6000E8008570E1F38091E80082FDBACF322F62
:101B7000293008F420C138E0FA01832F9491909322
:101B8000F100815031968111F9CF8FEF830F90E0F2
:101B90000196480F591F231B6093E8002111DFCFE6
:101BA0003830E9F29ECF711190C08093F8018EEF2A
:101BB0008093E80081E08093E900E2E4F1E0E491C1
:101BC000E093EB00EE2309F464C1E3E4F1E0E49177
:101BD000E093EC00E4E4F1E0E491E093ED0025E42F
:101BE00031E082E08093E900C9010196F901449156
:101BF0004093EB00442351F0FC0184918093EC006E
:101C0000C9010396319624912093ED0023E020939F
:101C1000E9009C012F5F3F4FFC0144914093EB0092
:101C2000442359F0F90124912093EC009C012D5F8D
:101C30003F4F319684918093ED0084E08093E900DA
:101C4000C9010196F90144914093EB00442351F0FE
:101C5000FC0184918093EC00C90103963196249194
:101C60002093ED0025E02093E9009C012F5F3F4F7A
:101C7000FC0144914093EB00442359F0F901249175
:101C80002093EC009C012D5F3F4F3196849180930F
:101C9000ED0086E08093E900A9014F5F5F4FF901F5
:101CA00084918093EB00882341F0FA0144914093A2
:101CB000EC00319624912093ED008EE78093EA00AA
:101CC0001092EA000ECF7038D1F121153105A1F440
:101CD000713A09F4E1C0713209F000CF4930D9F10D
:101CE0004A3009F47FC14B3009F0F8CE80931C02D2
:101CF0008EEF8093E800F5CE2230310509F444C020
:101D00002130310509F0EACE713A09F434C171325B
:101D100009F0E4CE4B3009F46DC14A3009F0DECE53
:101D20008EEF8093E800DDCE2EEF2093E800209127
:101D3000E80020FFFCCF80688093E300D2CE809142
:101D4000E80080FFFCCF8091F8018093F1008EEFD6
:101D50008093E800C6CE8091E80082FFFCCF80919E
:101D6000F100809318028BEF8093E8008EEF809350
:101D7000E800B7CE2115310509F047C0A0E4B0E076
:101D800020E44DE752E0DFCE713A09F4D2C071325F
:101D900009F0A4CE4A3021F2493009F09FCE80915B
:101DA000E80082FFFCCF8BEF8093E8008091E80091
:101DB00080FFFCCFB5CF2111DFCE6093E80091CE3C
:101DC000232B09F08BCEA2E1B0E022E14DEB52E0F3
:101DD000BACE2093E9008091EB0085FB882780F93B
:101DE0001092E9006FCE232B09F078CEABE5B0E07E
:101DF0002BE54CE751E0A7CE21153105E1F5A9E02F
:101E0000B0E029E04EE851E09ECE2230310509F4E1
:101E10008AC02130310509F061CEA4E8B0E024E8A1
:101E200049EF51E090CE542F5D7F513009F04DCFF6
:101E3000723009F04ACF009709F04CCE522F5F77ED
:101E40006FEF650F663008F045CE8EEF8093E800A7
:101E50005093E900433009F441CE89E18093EB00CF
:101E600081E090E001C0880F5A95EAF78093EA007C
:101E70001092EA0036CE2230310509F4ADC021308F
:101E8000310509F02BCEA9E0B0E029E047EA51E0A6
:101E90005ACE23E431E0A5CE413089F04230B9F189
:101EA000433009F01BCE8091E80080FFFCCF809189
:101EB0001C028093F1008EEF8093E80012CE809197
:101EC000E80080FFFCCF809101028093F1008091B7
:101ED00002028093F100809103028093F1008091CF
:101EE00004028093F100809105028093F1008091BB
:101EF00006028093F100809107028093F1008091A7
:101F000008028093F1008EEF8093E800EACD809183
:101F1000E80080FFFCCF80911A028093F1008EEFE1
:101F20008093E800DECDA2E2B0E022E247ED51E08E
:101F30000ACE413009F0D2CD28E03EEF8091E80092
:101F4000982F9570D9F382FDCCCD922F293070F067
:101F500098E0892F1092F1008150E1F7291B30930E
:101F6000E8002111EBCF983049F3BBCD2111F1CF1F
:101F70003093E800B6CD413079F0433009F0AECD72
:101F80008091E80080FFFCCF809134028093F100C3
:101F90008EEF8093E800A5CD8091E80080FFFCCF14
:101FA00080911F028093F100809120028093F100C4
:101FB000809121028093F100809122028093F100B0
:101FC000809123028093F100809124028093F1009C
:101FD0008EEF8093E80085CDA9E0B0E029E040ECE9
:101FE00051E0B1CD90931A0210921B028EEF8093B4
:101FF000E80077CD809334028EEF8093E80071CDB6
:102000008130F3E09F0751F42930344009F066CD68
:10201000ACE0B0E02CE04CE651E095CD823093404E
:1020200009F05CCD2930344009F058CDACE1B0E086
:102030002CE140E551E087CD869A089582E1E7E3FF
:10204000F2E0DF011D928A95E9F70895FC01EE0F99
:10205000FF1F8E0F9F1FFC01E95CFD4F40836183D2
:1020600022830895F894E7E3F2E029E432E062C0C5
:1020700000008E980000000000000000000000003A
:102080000000000080818E9A86FD78C000008E9846
:102090000000000000000000000000000000000040
:1020A00080818E9A85FD79C000008E980000000026
:1020B00000000000000000000000000080818E9AF7
:1020C00084FD7AC000008E9800000000000000002F
:1020D000000000000000000080818E9A83FD7BC01C
:1020E00000008E98000000000000000000000000CA
:1020F0000000000080818E9A82FD7CC000008E98D6
:1021000000000000000000000000000000000000CF
:1021100081918E9A81FD7DC000008E9800000000A4
:102120000000000000000000000000002E173F0724
:1021300009F47EC08E9A00008E9800000000000016
:1021400000000000000000000000808190E0880F87
:10215000892F881F990B8E9A892B09F489CF00004B
:10216000000000000000000000000000000000006F
:1021700000008E9880818E9A86FF88CF0000000034
:10218000000000000000000000000000000000004F
:102190008E9880818E9A85FF87CF00000000000016
:1021A00000000000000000000000000000008E9809
:1021B00080818E9A84FF86CF00000000000000001E
:1021C0000000000000000000000000008E988081E8
:1021D0008E9A83FF85CF0000000000000000000001
:1021E000000000000000000000008E9880818E9AA0
:1021F00082FF84CF0000000000000000000000000B
:1022000000000000000000008E9881918E9A81FFEE
:1022100083CF00000000000000000000000000006C
:102220000000000000008E982E173F0709F082CFB3
:1022300078940895EE0FFF1F0590F491E02D099416
:10224000F999FECF92BD81BDF89A992780B508957E
:10225000A8E1B0E042E050E00C9435110E94431137
:10226000272F0C944411DC01CB01FC01F999FECF1E
:1022700006C0F2BDE1BDF89A319600B40D9241500E
:102280005040B8F70895262FF999FECF1FBA92BD96
:1022900081BD20BD0FB6F894FA9AF99A0FBE019647
:0622A0000895F894FFCF41
:1022A6000022446688AA120211111111111111118E
:1022B6001111111111111111111111111111111108
:1022C60011111111111313131010101010101010FA
:1022D6000011220011111111101010151500101106
:1022E6002266220000110010110066221111353AF3
:1022F6003B3C3D3E3F4041424344454C2B595A5B93
:102306005C5D5E5F60616256573139010402000010
:102316000000000000000028020053474946000064
:1023260000EAE900005201000400002C0000500001
:102336000010514F291E1F20212223242526272D38
:102346002E2A2B141A0815171C180C12132F3031AD
:1023560039041607090A0B0D0E0F33340028020044
:102366001D1B0619051110363700385201000400EE
:10237600002C003850000010514F1514180A090F90
:0E2386001601040E0D0C0B03050607081700C8
:00000001FF
