:100000000C9448040C9465040C9465040C946504E9
:100010000C9465040C9465040C9465040C946504BC
:100020000C9465040C9465040C9465040C94D30C36
:100030000C94F40D0C9465040C9465040C94650404
:100040000C9465040C9465040C9465040C9465048C
:100050000C9465040C9465040C9465040C9465047C
:100060000C9465040C9465040C9465040C9465046C
:100070000C946504300B400B1C0B480B260B380B03
:10008000120B4C0B2B0B3C0B170B440B210B340BA3
:100090000D0B080BFE0A030BF90AF40AEF0AEA0A31
:1000A000E50AE10AD80BE80BC40BF00BCE0BE00B12
:1000B000BA0BF40BD30BE40BBF0BEC0BC90BDC0B33
:1000C000B50BB00BA60BAB0BA10B9C0B970B920BBC
:1000D0008D0B890B750C720C6F0C6C0C690C660C1B
:1000E000630C600C5D0C5A0C570C540C510C4E0CEC
:1000F0004B0C480C450C420C3F0C3C0C390C360C9C
:10010000330C780C01C10201C10201C10601C00615
:100110001C037A00690061006E005F006B006500DF
:10012000790062006F006100720064000C037A00C5
:10013000690061006E0031000403090409025B00DC
:10014000030100A03209040000010301010009219C
:100150001101000122400007058103080001090484
:1001600001000103010200092111010001228400A4
:1001700007058203080001090402000203000000D1
:100180000921110100012222000705830308000153
:10019000070504030800010631FF0974A101097570
:1001A000150026FF009508750881020976150026BE
:1001B000FF00950875089102C005010902A101859B
:1001C000010901A10005091901290515002501757D
:1001D0000195058102750395018103050109300927
:1001E000311581257F75089502810609381581250D
:1001F0007F35004500750895018106050C0A380217
:100200001581257F750895018106C0C0050109800B
:10021000A1018502150126B700190129B7751095AE
:10022000018100C0050C0901A10185031501269C6F
:100230000219012A9C02751095018100C00501096F
:1002400006A10175019508050719E029E7150025A4
:10025000018102950175088103950575010508194D
:1002600001290591029501750391039506750815FD
:100270000026FF000507190029FF8100C0120100B8
:100280000200000008C21605010002010200010080
:10029000000001010102030404050708090A0C0D0E
:1002A0000F1112141617191B1D1F2122242628298D
:1002B0002B2D2E3031333435363738393A3A3B3BF3
:1002C0003C3C3C3C3C3C3D3D3E3E3F404142434447
:1002D0004647494A4C4D4F5152545658595B5D5F01
:1002E0006062646567696A6B6D6E6F70717273745A
:1002F00074757576767676767676767676767676A2
:100300007676767676767677777777777777777784
:100310007777777777777777787878787878787865
:100320007878787878787878787878787879797A49
:100330007A7B7B7C7D7E7F7F8082838485868789B4
:100340008A8B8C8E8F9091929495969798999A9B80
:100350009C9D9D9E9F9FA0A0A0A1A1A1A1A1A1A2A3
:10036000A2A3A3A4A5A6A7A9AAACADAFB0B2B4B6E8
:10037000B8BABCBEC0C2C4C6C8CACCCED0D2D4D60D
:10038000D8D9DBDCDEDFE0E1E2E3E3E4E4E5E5E568
:10039000E5E4E4E3E2E0DFDDDBD8D6D3D0CDCAC6C6
:1003A000C2BFBBB7B3AFABA6A29E9A95918D89850C
:1003B000817D7A7673706D6A676563615F5E5C5B91
:1003C0005B5A5A5A5A595958575655545351504EC8
:1003D0004C4A484644423F3D3A383633302E2B296A
:1003E0002724221F1D1B1917151312100F0D0C0B9C
:1003F0000A090908080808080808080909090A0A72
:100400000A0B0B0C0D0D0E0E0F10101112131314FE
:10041000151516171818191A1A1B1B1C1D1D1E1E40
:100420001E1F1F1F202020202020202020202020D1
:100430001F1F1F1F1F1E1E1E1E1D1D1D1C1C1C1BE3
:100440001B1A1A1A19191918181817171716161629
:100450001615151515151414141414141414141455
:100460001413131313121212111110100F0F0E0E7A
:100470000D0D0C0B0B0A0A090808070706060504F0
:10048000040303030202010101010000000000391E
:1004900039393939383838373736363534343332F4
:1004A0003231302F2E2D2C2B2B2A2928272625249C
:1004B0002323222120201F1E1E1D1D1C1C1C1B1B54
:1004C0001B1B1B1B1B1B1B1A1A1A1919191818178F
:1004D000161615141413121111100F0E0D0D0C0B0E
:1004E0000A090808070606050404030302020101BD
:1004F00001000000000000000000000000000000FB
:1005000000000000000000000000000000000000EB
:1005100000000000000000000000000000000000DB
:1005200000000000000000000000000001010203C4
:1005300004050607080A0B0D0F11131517191B1DCB
:100540001F212426282A2C2E31333537383A3C3DBA
:100550003F40424344454646474748484848494942
:100560004A4B4C4E4F515356585B5D6063666A6D03
:100570007074787B7F83868A8E9195989C9FA2A5C4
:10058000A8ABAEB0B3B5B7B9BBBCBDBEBFC0C0C0F1
:10059000C0C0C0C0C0C0BFBFBFBFBEBEBEBEBDBD6D
:1005A000BDBCBCBBBBBBBABAB9B9B8B8B8B7B7B6B3
:1005B000B6B6B5B5B4B4B4B4B3B3B3B3B3B2B2B200
:1005C000B2B2B2B2B2B2B2B2B2B2B2B3B3B3B3B306
:1005D000B3B4B4B4B4B4B5B5B5B5B6B6B6B6B7B7CA
:1005E000B7B7B7B8B8B8B8B9B9B9B9B9B9B9BABA83
:1005F000BABABABABABABABABABBBBBBBCBDBDBE4C
:10060000BFC0C1C2C4C5C6C7C9CACCCDCFD0D2D461
:10061000D5D7D8DADBDDDEE0E1E2E3E5E6E7E8E9DD
:10062000EAEAEBECECECEDEDEDEDEDEDECECEBEA0C
:10063000E9E8E7E5E4E2E1DFDDDBD9D7D4D2D0CEEB
:10064000CBC9C6C4C2BFBDBBB8B6B4B2B0AEACAA0B
:10065000A9A7A6A5A3A2A1A1A0A09F9F9F9F9F9E7F
:100660009D9C9B9A99979593918F8D8A888582807E
:100670007D7A7773706D6A6764615E5B585552501E
:100680004D4B48464442413F3E3C3B3B3A3939F3AF
:10069000F3F3F3F3F3F3F3F3F2F2F2F2F2F2F2F133
:1006A000F1F1F1F1F0F0F0F0F0EFEFEFEFEFEEEE4F
:1006B000EEEEEEEDEDEDEDEDEDEDECECECECECEC6D
:1006C000ECECECECECECECEBEBEBEBEAEAE9E9E87C
:1006D000E8E7E6E6E5E4E4E3E2E1E0E0DFDEDDDCF6
:1006E000DCDBDAD9D9D8D7D7D6D6D5D5D4D4D3D39D
:1006F000D3D2D2D2D2D2D2D2D1D1D0CFCECCCBC9FA
:10070000C7C5C3C0BEBBB9B6B3B0ADA9A6A3A09CB4
:10071000999693908C898683807E7B7976747270AB
:100720006E6D6B6A69686867676767676666656547
:10073000646362615F5E5D5B5A58565553514F4D1D
:100740004B4947454342403E3C3A383735333230D7
:100750002F2E2D2C2B2A2928282727272727272704
:1007600026262625252423232221201F1E1D1C1B6F
:100770001A1918171614131211100F0E0D0B0A095F
:10078000080807060504040303020202010101012F
:100790000101010101020202020303030404040532
:1007A0000506060707080809090A0A0B0B0C0C0DB9
:1007B0000D0E0E0F0F0F1010101111111112121239
:1007C00012121212121213131415151617181A1BDF
:1007D0001C1E1F2122242628292B2D2F313335368C
:1007E000383A3C3E3F414244454748494A4B4C4DCC
:1007F0004D4E4E4F4F4F4F4F505152535557595BDF
:100800005D606366696D7174787C8084898D919672
:100810009A9EA2A7ABAFB3B7BABEC2C5C8CBCED063
:10082000D2D4D6D8D9DADBDCDCDCDCDCDCDCDDDD28
:10083000DDDEDEDFDFE0E0E1E2E2E3E4E4E5E6E79F
:10084000E8E9E9EAEBECEDEDEEEFF0F0F1F2F2F3CE
:10085000F4F4F5F5F5F6F6F6F7F7F7F7F7F7F7F737
:10086000F7F7F7F7F7F7F7F7F6F6F6F6F6F6F6F620
:10087000F6F6F5F5F5F5F5F5F5F5F4F4F4F4F4F42C
:10088000F4F4F4F4F3F3F3F3F3F3F3F3F3F3F30027
:1008900011241FBECFEFD2E0DEBFCDBF11E0A0E03C
:1008A000B1E0EAE3F4E202C005900D92AA31B1078B
:1008B000D9F721E0AAE1B1E001C01D92A838B20742
:1008C000E1F70E947B0C0C941B120C940000109218
:1008D0008401E0E0F0E0E05FFE4F60E080810E9494
:1008E000800BE0918401EF5FE0938401E53090F3A9
:1008F000089510928401E0E0F0E0E05FFE4F61E0D7
:1009000080810E94800BE0918401EF5FE09384017D
:10091000E53090F3089580912801E82FE17080FF81
:100920004DC08091860190918701811522E0920748
:10093000A8F18091280181FF3AC0209124013091D3
:100940002501F901E157F94F6491F901E157FB4F96
:100950004491F901E157FD4F249180E090E00E941D
:10096000C11080912401909125010196811522E00A
:10097000920778F490932501809324018091860159
:1009800090918701019790938701809386010C9441
:100990009F111092250110922401F0CF0097F9F4D5
:1009A00080E092E090938701809386010895809182
:1009B000530182FDC2CF0E94BB10E0CF1092840190
:1009C000F0E0E05FFE4F61E080810E94800BE091EB
:1009D0008401EF5FE0938401E53090F3A2CF0197AB
:1009E00090938701809386010895CF92DF92FF92C2
:1009F0000F931F93CF93DF938091280184FF5AC1F7
:100A00008FE080937D0110928301CC24CA94EFE0A3
:100A1000DE2E10E9FFE0FF2E00EF10928501E0E0EE
:100A200015C0842F90E0DC01AA0FBB1FAA0FBB1FCB
:100A3000A80FB91FA050BF4FAE0FB11D8C91877783
:100A40008C93EF5FE0938501E530B8F5F0E0EB5E65
:100A5000FE4F80810E94280C40918301E091850126
:100A60008111DFCF242F30E08E2F90E0D901AA0F23
:100A7000BB1FAA0FBB1FA20FB31FBD0160507F4F4A
:100A8000680F791FEB0128812868288310932701BC
:100A9000A80FB91FAA0FBB1FA65EBE4FCD92DC9256
:100AA0002E3E79F68091280184FF96C000937D0147
:100AB000EF5FE0938501E53048F24F5F409383019B
:100AC000442309F4AACF8091280180FD08C10E9427
:100AD000E2080E94DA0810928101109283011092BC
:100AE000850140E030E013C0203B09F4C4C008F4A5
:100AF0008AC0203D09F4BBC0203F09F4AAC0203CB5
:100B000009F4D0C03F5F309385013530A0F5842FC4
:100B100090E0632F70E0FC01EE0FFF1FEE0FFF1F50
:100B20008E0F9F1FFC01E050FF4FE60FF71F508113
:100B300020917D0125232F3009F4AFC0A8F62B307A
:100B400009F46BC008F04BC0293009F474C02A3096
:100B5000C9F6AC014B5F5E4FFA01E60FF71F8081CB
:100B60000E942B0940918301309185013F5F3093B2
:100B70008501353060F24F5F40938301442309F4CF
:100B8000AECF0E94CC0A882319F080E3809326011F
:100B90000E943109882319F080E3809326010E9486
:100BA0008B0981118BC080912701803909F48EC097
:100BB000813009F4C4C09091260181118CC0992321
:100BC00019F0915090932601DF91CF911F910F91D1
:100BD000FF90DF90CF900895F0927D0132CF2C30BE
:100BE00009F44DC02D3009F08DCFAC014B5F5E4F45
:100BF000FA01E60FF71F80810E94AE084091830141
:100C0000309185017FCF203909F450C0203A09F096
:100C100079CF865F9E4FFC01A0CFAC014B5F5E4F4A
:100C2000FA01E60FF71F80810E94D40840918301EA
:100C30003091850167CFAC014B5F5E4FFA01E60F43
:100C4000F71F80810E94EC0840918301309185015B
:100C500059CFAC01465F5E4FFA01E60FF71F808166
:100C60000E94400A40918301309185014BCF865FFD
:100C70009E4FFC01BECF865F9E4FFC01D2CFAC01E0
:100C80004B5F5E4FFA01E60FF71F80810E94A808B4
:100C9000409183013091850135CF9C012B5F3E4F00
:100CA000F901DBCF865F9E4FFC01EDCF865F9E4F43
:100CB000FC01C5CF80EF80937D01A5CE80E38093BA
:100CC000260180912701803909F072CF9091260189
:100CD000913009F442C081508093270170CF109267
:100CE000850180E018C060E080810E94800B8091C7
:100CF0008501E82FF0E0EE0FFF1FE65EFE4F20813A
:100D0000318121503109318320838F5F80938501A8
:100D1000853008F0DCCE90E0FC01EE0FFF1FE65EB0
:100D2000FE4F20813181FC01E05FFE4F232BD9F67D
:100D300061E080810E94800B80918501E6CF9091D7
:100D40002801809182018927809328010E947C09D3
:100D50000E94C909809127012ECF9091280180918E
:100D600082018927809328010E947C090E94C90979
:100D7000809127011DCF80E880936100109261006F
:100D80000E947D0C0E949B0C81110AC02FEF85EA06
:100D90009EE0215080409040E1F700C00000F2CF7B
:100DA0008AB1807E8AB98BB18F618BB9C0E0D2E005
:100DB00010928401E0E0F0E0E05FFE4F61E08081AE
:100DC0000E94D80AE0918401F0E0E05FFE4F61E00C
:100DD00080810E94800BE0918401EF5FE0938401A9
:100DE000E53048F30E94B910D0938701C093860183
:100DF0000E94BB100E94CD101092280181E08093C8
:100E00005901809354010E9427072FEF89E698E14A
:100E1000215080409040E1F700C000000E94E208AD
:100E20000E94DA0822E348E064E371E081E00E9476
:100E30009E0C0E94F20780915401823009F4B8CFD1
:100E40008130B9F70E94F5040E948B04F2CFAF9273
:100E5000BF92CF92DF92EF92FF920F931F93CF93A7
:100E6000DF9380E090E00E94F2115C0182E090E06C
:100E70000E94F2116C0184E090E00E94F2117C016A
:100E800086E090E00E94F2118C0188E090E00E94E0
:100E9000F211EC018AE0A816B10431F48AE090E086
:100EA0000E94EA1180930F018BE0C816D104B1F0C3
:100EB00080E1E816F104A1F10531110509F452C0F1
:100EC0006A9709F470C0DF91CF911F910F91FF9045
:100ED000EF90DF90CF90BF90AF9008958BE090E0BF
:100EE0000E94EA11809315018CE090E00E94EA11C3
:100EF000809316018DE090E00E94EA118093170123
:100F00008EE090E00E94EA11809318018FE090E05B
:100F10000E94EA118093190180E1E816F10461F65C
:100F200080E190E00E94EA1180930A0181E190E063
:100F30000E94EA1180930B0182E190E00E94EA1185
:100F400080930C0183E190E00E94EA1180930D01EF
:100F500084E190E00E94EA1180930E0105311105B1
:100F600009F0AECF85E190E00E94EA11809305017F
:100F700086E190E00E94EA118093060187E190E00B
:100F80000E94EA118093070188E190E00E94EA1133
:100F90008093080189E190E00E94EA1180930901A1
:100FA0006A9709F090CF8AE190E00E94EA1180935D
:100FB00000018BE190E00E94EA11809301018CE135
:100FC00090E00E94EA11809302018DE190E00E947E
:100FD000EA11809303018EE190E00E94EA11809370
:100FE000040171CFCF93DF938091590181111BC010
:100FF000C0912C01D0912D01CF3F21EFD207B1F04C
:10100000CF3F82EFD80709F44AC08091540188236A
:10101000B9F088E0ECE2F1E0DF011D928A95E9F792
:1010200081E080935901DF91CF910895809154011F
:10103000813009F43EC08111ECCF0E9467041DC0CD
:101040000E946704CE3FA3E0DA0748F4F999FECF87
:1010500060912E0170912F01CE010E94F811CE01F6
:1010600002968E3FB3E09B0740F4F999FECF609162
:101070003001709131010E94F811CE0104968E3F2B
:1010800023E0920718F00E947904C3CFF999FECFAC
:1010900060913201709133010E94F811F4CF809178
:1010A00054018111B6CF0E94790482E080935401EB
:1010B000B0CF10925401ADCFCF93DF938CE0E1E736
:1010C000F1E0DF01C82F1D92CA95E9F7EAE5F1E0EA
:1010D000DF011D928A95E9F7A6E6B1E08BE0ED010C
:1010E00019928A95E9F781E0808392E0968393E0F4
:1010F000918719968C93DF91CF91089588E0E4E46D
:10110000F1E0DF01982F1D929A95E9F7E4E3F1E011
:10111000DF011D928A95E9F7ECE4F1E08DE0DF0153
:101120001D928A95E9F781E0808783878DE7818723
:10113000089588E0ECE3F1E0DF01982F1D929A9585
:10114000E9F7ECE2F1E0DF011D928A95E9F70895F5
:1011500090E090936C0180936B010895982F907F9D
:101160009039D9F038F0903C91F0903E81F0903B6E
:1011700071F00895903221F0903879F09111F9CF03
:1011800090E0926090936E0180936D01089590E0DD
:1011900090936E0180936D01089590E0916090931B
:1011A0006E0180936D010895E6E6F1E09081892B50
:1011B00080830895E6E6F1E010821682158210869B
:1011C0001782089586E0EDE4F1E0DF011D928A9533
:1011D000E9F710924C01089590914D01891711F192
:1011E00020914E018217F1F030914F018317D1F019
:1011F000409150018417B1F050915101851791F041
:1012000060915201681771F0992371F02223A1F0C7
:101210003323A9F04423B1F05523B9F06623C1F07C
:1012200080E0089581E0089520E030E0F901E45B7A
:10123000FE4F818381E0089521E030E0F7CF22E086
:1012400030E0F4CF23E030E0F1CF24E030E0EECF27
:1012500025E030E0EBCFECE4F1E09081892B808356
:10126000089580914C01909134019817D1F18093A9
:10127000340181E090914D0120913601291719F038
:101280009093360181E090914E012091370129170A
:1012900019F09093370181E090914F01209138012E
:1012A000291719F09093380181E090915001209115
:1012B0003901291719F09093390181E0909151017A
:1012C00020913A01291779F090933A0190915201B7
:1012D00080913B01981390933B0181E080935801EA
:1012E000089580E0C7CF9091520120913B012913CE
:1012F000F2CF8111F2CF089580915801811102C07F
:1013000081E008951092580122E348E064E371E01F
:1013100081E00C949E0C8091660190915B0198177E
:1013200029F180935B0181E020916B0130916C0188
:10133000409161015091620142175307C9F0309307
:1013400062012093610120916D0130916E018091C5
:1013500064019091650182179307C9F0309365018C
:101360002093640183E080937001089580E0DCCFD6
:1013700020916D0130916E014091640150916501A1
:101380004217530759F7882381F381E0ECCF82E0BD
:10139000EACFCF93DF9380917001837080937001C7
:1013A000811104C081E0DF91CF9108950E949B0CD0
:1013B0008823C1F38FB7F894C091E400CE5C92E02B
:1013C0009093E9009091E80095FD14C0D2E00CC024
:1013D0008091E400C81731F38FB7F894D093E900F7
:1013E0009091E80095FD06C08FBF0E949B0C811173
:1013F000EFCFD8CF90917001923099F1933011F1E5
:101400009130D1F41092700190915A019093F100B3
:1014100090915B019093F10090915C019093F100A9
:1014200090915D019093F10090915E019093F10095
:1014300090915F019093F1009AE39093E8008FBF41
:1014400080E0B1CF10927001909163019093F10010
:10145000909164019093F100909165019093F10057
:10146000EBCF10927001909160019093F1009091F8
:1014700061019093F100909162019093F100DCCFB3
:10148000843031F090918101892B809381010895FE
:1014900090913401992389F190914D01953391F305
:1014A00020914E01253371F330914F01353351F3C3
:1014B00040915001453331F350915101553311F3AF
:1014C000609152016533F1F2992309F447C0222358
:1014D00009F44AC0332309F450C0442309F453C02B
:1014E000552309F453C06111CDCF25E030E0F90157
:1014F000E45BFE4F95E39183C5CF90914D01993206
:1015000009F220914E01293209F4BCCF30914F01EC
:10151000393209F4B7CF40915001493209F4B2CFC2
:1015200050915101593209F4ADCF609152016932A5
:1015300009F4A8CF9923A9F02223C9F03323D1F0CD
:101540004423F1F0552329F161119CCF25E030E0CF
:10155000F901E45BFE4F99E2918394CF20E030E003
:10156000C6CF20E030E0F4CF21E030E0C0CF21E072
:1015700030E0EECF22E030E0EBCF22E030E0B7CF3A
:1015800023E030E0E5CF23E030E0B1CF24E030E0ED
:10159000AECF24E030E0DCCF8091810190918201D8
:1015A000981721F08093820181E0089580E00895EA
:1015B00090E08831910540F4FC01E65CFF4F0C940B
:1015C000E41161119BC057980895662309F468C01F
:1015D000569A0895662309F465C0559A08956623BE
:1015E00009F462C0549A0895662309F45FC0539ABF
:1015F0000895662309F45EC0529A0895662309F49B
:1016000057C0509A0895662309F456C0519A089518
:10161000662309F453C03F9A0895662309F45EC017
:101620003E9A0895662309F451C0269A08956623C8
:1016300009F45CC03A9A0895662309F443C0229ADB
:101640000895662309F44EC03C9A0895662309F470
:1016500041C0249A0895662309F44CC0389A08952D
:10166000662371F1209A08956623D1F13D9A089579
:10167000662371F1259A08956623D1F1399A089568
:10168000662311F1219A0895662371F13B9A08951A
:10169000662311F1239A0895662371F1279A08951C
:1016A0005698089555980895549808955398089514
:1016B0005098089552980895519808953F98089524
:1016C00020980895229808952198089526980895BD
:1016D0002598089524980895239808953E9808958C
:1016E0003D9808953C9808953B9808953A98089538
:1016F000399808953898089527980895579A089525
:1017000090E08831910540F4FC01EE5AFF4F0C94B3
:10171000E41161119BC05F980895662309F468C0C5
:101720005E9A0895662309F465C05D9A089566235C
:1017300009F462C05C9A0895662309F45FC05B9A5D
:101740000895662309F45EC05A9A0895662309F441
:1017500057C0589A0895662309F456C0599A0895B7
:10176000662309F453C0479A0895662309F45EC0BE
:10177000469A0895662309F451C02E9A0895662367
:1017800009F45CC0429A0895662309F443C02A9A7A
:101790000895662309F44EC0449A0895662309F417
:1017A00041C02C9A0895662309F44CC0409A0895CC
:1017B000662371F1289A08956623D1F1459A089518
:1017C000662371F12D9A08956623D1F1419A089507
:1017D000662311F1299A0895662371F1439A0895B9
:1017E000662311F12B9A0895662371F12F9A0895BB
:1017F0005E9808955D9808955C9808955B980895A3
:10180000589808955A9808955998089547980895B2
:10181000289808952A980895299808952E9808954B
:101820002D9808952C9808952B980895469808951A
:1018300045980895449808954398089542980895C6
:1018400041980895409808952F9808955F9A0895B3
:1018500090E08831910510F080E00895FC01E65990
:10186000FF4F0C94E41189B18074089589B180729E
:10187000089589B18071089589B18870089589B1FA
:101880008470089589B18270089589B18170089536
:1018900086B18078089586B18074089586B180728B
:1018A000089586B18071089586B18870089586B1D3
:1018B0008470089586B18270089586B1817008950C
:1018C00083B18078089583B18074089583B1807264
:1018D000089583B18071089583B18870089583B1AC
:1018E0008470089583B18270089583B181700895E2
:1018F00089B1807808950C94BB0680EA8093D80063
:1019000086E089BD09B400FEFDCF80E88093D80051
:101910001092E00010922B018CE08093E20078940A
:101920000E947E080E945C080E9499081092810122
:1019300010928201089580912B01089590912B01BE
:101940009923E9F09FB7F8943091E400230F809336
:10195000E9003091E80035FF0DC013C09091E4001C
:10196000291769F09FB7F8948093E9003091E80057
:1019700035FD07C09FBF90912B019111EFCF81E002
:101980000895442351F0FB019B01240F311D8191E7
:101990008093F1002E173F07D1F78AE38093E80088
:1019A0009FBF80E008951F920F920FB60F921124EF
:1019B0002F933F934F936F937F938F939F93809138
:1019C000E1001092E10083FF0FC01092E90091E066
:1019D0009093EB001092EC0092E09093ED0098E071
:1019E0009093F00010922B0182FF04C080912B0194
:1019F00081110CC09F918F917F916F914F913F9179
:101A00002F910F900FBE0F901F90189520912A01D3
:101A10002F5F822F62E30E94D811911116C010929D
:101A20002A018091E80085FF12C080915901882326
:101A300071F02091540180912B01211147C0811137
:101A40004BC021E02093590102C020932A019091BC
:101A50005501992379F2809129018F5F80932901A3
:101A6000837041F681E08093E9008091E80085FF72
:101A7000C1CF809156018F5F809356018913BACFF1
:101A800010925601809134018093F10080913501CC
:101A90008093F100809136018093F10080913701AD
:101AA0008093F100809138018093F1008091390199
:101AB0008093F10080913A018093F10080913B0185
:101AC0008093F1008AE38093E80094CF811154C0A1
:101AD00091E090935901BBCF8FB7F8943091E40017
:101AE00094E09093E9009091E80095FD20C08FBFAD
:101AF00080912B01882309F4A4CF8091E40038174A
:101B000009F49FCF44E00BC08FBF80912B01882345
:101B100009F497CF8091E400381709F492CF8FB77A
:101B2000F8944093E9009091E80095FFEDCF9091F3
:101B3000F10090932C019091F10090932D019091E0
:101B4000F10090932E019091F10090932F019091CC
:101B5000F100909330019091F100909331019091B8
:101B6000F100909332019091F100909333019AE348
:101B70009093E8008FBF66CF8FB7F8943091E40060
:101B800024E02093E9002091E80025FD20C08FBFCC
:101B900080912B01882309F49BCF8091E400831767
:101BA00009F496CF44E00BC08FBF80912B018823AE
:101BB00009F48ECF8091E400381709F489CF8FB7EC
:101BC000F8944093E9002091E80025FFEDCF2091A3
:101BD000F10020932C012091F10020932D012AE3A4
:101BE0002093E8008FBF75CF1F920F920FB60F9210
:101BF00011242F933F934F935F936F937F938F9312
:101C00009F93AF93BF93EF93FF931092E90080915E
:101C1000E80083FF38C07091F1004091F10080919D
:101C2000F1002091F10090E0922B2091F100509171
:101C3000F10030E0352B6091F100E091F10052EFBE
:101C40005093E800463099F1453009F412C149300B
:101C500009F47BC0483009F4DBC0411189C180918F
:101C6000E80080FFFCCF723809F458C180E080930F
:101C7000F1001092F1008EEF8093E80007C021156B
:101C8000310509F0DEC081E28093EB00FF91EF9116
:101C9000BF91AF919F918F917F916F915F914F9184
:101CA0003F912F910F900FBE0F901F9018958115A7
:101CB00041E0940709F429C18115F2E09F0709F476
:101CC00037C1811542E2940709F4F9C08115F1E2A8
:101CD0009F0709F436C1811523E0920709F035C248
:101CE000A4E0B0E024E048E351E0862F90E09E2B92
:101CF0008F3F910509F020F48A179B0708F4262FDF
:101D00006EEF8091E8008570E1F38091E80082FD3C
:101D1000BDCF322F293008F4F3C038E0FA01832F09
:101D200094919093F100815031968111F9CF8FEF0A
:101D3000830F90E00196480F591F231B6093E80022
:101D40002111DFCF3830E9F2A1CF711163C0809348
:101D50002B018EEF8093E80081E08093E900E4E0BE
:101D6000F1E0E491E093EB00EE2309F437C1E5E004
:101D7000F1E0E491E093EC00E6E0F1E0E491E0933F
:101D8000ED0027E031E082E08093E900C90101968F
:101D9000F90144914093EB00442351F0FC018491FC
:101DA0008093EC00C9010396319624912093ED00B5
:101DB00023E02093E9009C012F5F3F4FFC014491F9
:101DC0004093EB00442359F0F90124912093EC0057
:101DD0009C012D5F3F4F319684918093ED0084E00C
:101DE0008093E900C9010196F90144914093EB0009
:101DF000442341F0FC0184918093EC0031962491BE
:101E00002093ED008EE18093EA001092EA003ECF2D
:101E10007038D1F121153105A1F4713A09F4E1C00E
:101E2000713209F030CF4930D9F14A3009F485C117
:101E30004B3009F028CF809357018EEF8093E80054
:101E400025CF2230310509F444C02130310509F095
:101E50001ACF713A09F412C1713209F014CF4B3024
:101E600009F465C14A3009F00ECF8EEF8093E80087
:101E70000DCF2EEF2093E8002091E80020FFFCCF4B
:101E800080688093E30002CF8091E80080FFFCCF60
:101E900080912B018093F1008EEF8093E800F6CEC5
:101EA0008091E80082FFFCCF8091F1008093530184
:101EB0008BEF8093E8008EEF8093E800E7CE21154A
:101EC000310509F047C0A0E4B0E020E44DE352E062
:101ED0000CCF713A09F403C1713209F0D4CE4A3003
:101EE00021F2493009F0CFCE8091E80082FFFCCF8B
:101EF0008BEF8093E8008091E80080FFFCCFB5CFA6
:101F000021110CCF6093E800C1CE232B09F0BBCE8A
:101F1000A2E1B0E022E14DE752E0E7CE2093E900F4
:101F20008091EB0085FB882780F91092E9009FCE15
:101F3000232B09F0A8CEABE5B0E02BE54CE351E054
:101F4000D4CE21153105E1F5A9E0B0E029E04EE459
:101F500051E0CBCE2230310509F48AC02130310561
:101F600009F091CEA4E8B0E024E849EB51E0BDCE01
:101F7000542F5D7F513009F04DCF723009F04ACFB8
:101F8000009709F07CCE522F5F776FEF650F6430BA
:101F900008F075CE8EEF8093E8005093E90043304F
:101FA00009F471CE89E18093EB0081E090E001C0FB
:101FB000880F5A95EAF78093EA001092EA0066CEFD
:101FC0002230310509F4ADC02130310509F05BCE76
:101FD000A9E0B0E029E047E651E087CE25E031E016
:101FE000D2CE413089F04230B9F1433009F04BCEC6
:101FF0008091E80080FFFCCF809157018093F10031
:102000008EEF8093E80042CE8091E80080FFFCCF05
:10201000809134018093F100809135018093F1002B
:10202000809136018093F100809137018093F10017
:10203000809138018093F100809139018093F10003
:1020400080913A018093F10080913B018093F100EF
:102050008EEF8093E8001ACE8091E80080FFFCCFDD
:10206000809155018093F1008EEF8093E8000ECEB1
:10207000A2E2B0E022E247E951E037CE413079F008
:10208000433009F000CE8091E80080FFFCCF8091C2
:102090006F018093F1008EEF8093E800F7CD80917F
:1020A000E80080FFFCCF80915A018093F10080917D
:1020B0005B018093F10080915C018093F10080913D
:1020C0005D018093F10080915E018093F100809129
:1020D0005F018093F1008EEF8093E800D7CD41300F
:1020E00009F0D1CD28E03EEF8091E800982F95705F
:1020F000D9F382FDCBCD922F293070F098E0892F53
:102100001092F1008150E1F7291B3093E800211172
:10211000EBCF983049F3BACD2111F1CF3093E800DD
:10212000B5CDA9E0B0E029E040E851E0DECD8093F4
:102130006F018EEF8093E800A9CD90935501109226
:1021400056018EEF8093E800A1CD813043E09407E3
:1021500051F08230934009F096CDACE1B0E02CE133
:1021600040E151E0C2CDACE0B0E02CE04CE251E007
:10217000BCCD3E9A0895EEE7F1E010821182128202
:102180000895FC01EE0FFF1F8E0F9F1FFC01E25808
:10219000FE4F4083618322830895F894EEE7F1E0D7
:1021A00021E831E0469A0000469800000000000057
:1021B00000000000000000000000808190E0880F17
:1021C000892F881F990B469A892B09F0ACC0000013
:1021D0004698000000000000000000000000000021
:1021E00000008081469A86FD92C00000469800005B
:1021F00000000000000000000000000000008081DE
:10220000469A85FD78C00000469800000000000056
:10221000000000000000000000008081469A84FD5C
:102220005EC00000469800000000000000000000B2
:102230000000000000008081469A83FD44C0000039
:1022400046980000000000000000000000000000B0
:1022500000008081469A82FD2AC000004698000056
:10226000000000000000000000000000000081915C
:10227000469A81FD10C00000469800000000000052
:10228000000000000000000000002E173F0709F0CA
:1022900089CF78940895000000000000000000003D
:1022A000000000000000000000004698EECF000093
:1022B000000000000000000000000000000000001E
:1022C00000004698D4CF000000000000000000008D
:1022D000000000000000000000004698BACF000097
:1022E00000000000000000000000000000000000EE
:1022F00000004698A0CF0000000000000000000091
:1023000000000000000000000000469886CF00009A
:1023100000000000000000000000000000000000BD
:10232000000046986CCF0000000000000000000094
:1023300000000000000000000000469852CFF89412
:1023400098B19F7B88B18064EEE7F1E0208138E0AE
:1023500088B9000000C027FF98B9220F000000C014
:1023600000C000C098B900C03A9591F7218138E0CB
:1023700088B9000000C027FF98B9220F000000C0F4
:1023800000C000C098B900C03A9591F7228138E0AA
:1023900088B9000000C027FF98B9220F000000C0D4
:1023A00000C000C098B900C03A9591F7789408959C
:1023B000991B79E004C0991F961708F0961B881F97
:1023C0007A95C9F780950895EE0FFF1F0590F49157
:1023D000E02D0994F999FECF92BD81BDF89A992715
:1023E00080B50895A8E1B0E042E050E00C94FF1100
:1023F0000E940D12272F0C940E12DC01CB01FC0160
:10240000F999FECF06C0F2BDE1BDF89A319600B44D
:102410000D9241505040B8F70895262FF999FECFFC
:102420001FBA92BD81BD20BD0FB6F894FA9AF99AF1
:0A2430000FBE01960895F894FFCF47
:10243A0017771111110110061B1D52104F5150FF31
:0A244A000A0F1516001011121314EA
:00000001FF
